:020000040800F2
:100000000000012061020008650200086702000884
:100010007D0200087F020008950200080000000031
:10002000000000000000000000000000AB0200081B
:10003000AD02000800000000AF020008B102000895
:10004000C5020008C5020008C5020008C502000874
:10005000C5020008C5020008C5020008C502000864
:10006000C5020008C5020008C5020008C502000854
:10007000C5020008C5020008C5020008C502000844
:10008000C5020008C5020008C50200080000000003
:10009000000000000000000000000000C502000891
:1000A000C5020008C5020008C5020008C502000814
:1000B000C5020008C5020008C5020008C502000804
:1000C000C5020008C5020008C5020008C5020008F4
:1000D000C5020008C5020008C502000800000000B3
:1000E000C5020008C5020008C502000800000000A3
:1000F000000000000000000000000000C502000831
:1001000000000000C5020008C5020008C502000882
:1001100000000000000000000000000000000000DF
:10012000C5020008C5020008C5020008C502000893
:10013000C5020008000000000000000000000000F0
:10014000000000000000000000000000C5020008E0
:10015000C5020008C5020008C5020008C502000863
:10016000C5020008C50200080000000000000000F1
:10017000000000000000000000000000000000007F
:1001800000000000C50200080000000000000000A0
:10019000C502000807B500F0B7F8274B274883428F
:1001A00026D3274B274900208B422DD300F0B8F8E7
:1001B000254E264C01A9684600F09EF8A41BA41009
:1001C0000025AC4229DC224E224CA41BA4100025A1
:1001D000AC4227DCDDE9000100F006FB1E4D1F4CA0
:1001E000641B0646A410002C21DC304600F080F889
:1001F000D3E900120C3353F8044C891A9442CED937
:10020000555815600432F9E753F8082B53F8044C9D
:100210009442C9D910600432FAE756F8253098475D
:100220000135CEE756F8253098470135D0E7013C37
:1002300055F824309847D6E7C8020008E0020008C5
:10024000E0020008F0020008F0020008F0020008D6
:10025000F0020008F0020008F0020008F0020008B6
:1002600014480047FEE71EF0040F0CBFEFF30880B0
:10027000EFF309807146104A1047FEE7FEE71EF0D3
:10028000040F0CBFEFF30880EFF3098071460B4AAF
:100290001047FEE71EF0040F0CBFEFF30880EFF3EA
:1002A00009807146064A1047FEE7FEE7FEE7FEE7D3
:1002B00070470000950100087B02000893020008C7
:0602C000A9020008FEE7A0
:1002C80084080008000000201000002084080008AE
:1002D800000000100000001010000020180100208D
:0802E8000000001000000010EE
:1002F00008B500F017F8000001230360014B0B6004
:10030000704700BF0000002008B500F01DF8024B48
:10031000024A9A6008BD00BF00ED00E0000000083E
:1003200000F032B8BFF34F8F0549064BCA6802F49C
:10033000E0621343CB60BFF34F8F00BFFDE700BF08
:1003400000ED00E00400FA050C4B1A68002142F0B1
:1003500001021A6099601A6822F0847222F48032D5
:100360001A60074A5A601A6822F480221A60D9601B
:10037000044B4FF000629A60704700BF00380240A3
:100380001030002400ED00E0174A1849936803F08C
:100390000C03042B10B50DD0082B0DD0144B0B60A3
:1003A000114B144A9B68C3F30313D25C0B68D34010
:1003B0000B6010BD104BF2E754685068526863023E
:1003C000C2F3881200F03F004CBF0B4B084BB3FB4D
:1003D000F0F35343044A5268C2F30142013252001F
:1003E000B3FBF2F3DBE700BF003802400800002057
:1003F0000024F4007408000840787D01A0F1300367
:100400000246D8B2092808D9A2F14103052B03D826
:10041000A2F13700C0B27047002070472DE9F047C5
:1004200001464078FFF7EAFF04468878FFF7E6FFC9
:100430000646C878FFF7E2FF81460879FFF7DEFF3E
:1004400080464879FFF7DAFF07468879FFF7D6FF3D
:1004500040F0006545EA093545EA082546EA0416F4
:10046000DFF8608045EA0715C6F3460601F1090486
:100470000027FBB29E4204F1040406D83246284607
:100480001049BDE8F04700F01FB814F8040CFFF75E
:10049000B5FF824614F8030CFFF7B0FF014614F8CD
:1004A000020CFFF7ABFF814614F8010CFFF7A6FF23
:1004B000090241EA0A31014341EA091128F81710FB
:1004C0000137D6E71200002030B5184C2346E56806
:1004D000ED03FCD42569002DBFBF154D656005F106
:1004E000883565601C6924F440741C611C6944F4FF
:1004F00080741C611C6944F001041C618B1E03EBB9
:100500004202401A93420CD1084BDA68D203FCD461
:10051000DA6842F00102DA601A6922F001021A6117
:1005200030BD33F8021FC150ECE700BF003C024071
:100530002301674510B520B9A1F10D03022B0BD89B
:1005400010BD012804D1CB1E012BF9D9094B04E0C1
:100550000228F5D1084B00E0084B18684900032435
:100560008C4020EA04001860186802FA01F1014387
:100570001960E5E700040240000802400000024064
:1005800030B520B9A1F10D00022834D830BD0128C2
:1005900019D1CC1E012CF9D9234C6568884025EA75
:1005A0000000606060688A4002436260A0684A00A0
:1005B0000321914020EA0101A160A06803FA02F141
:1005C0000143A160E2E70228E0D118480125446810
:1005D0008D4024EA0504446044688A402243426016
:1005E0008268490003248C4022EA04028260826807
:1005F00003FA01F114E00E48012544688D4024EA15
:100600000504446044688A402243426082684C008A
:100610000321A14022EA01028260826803FA04F108
:1006200011438160B2E700BF0004024000080240AD
:100630000000024010B520B9A1F10D03022B2AD809
:1006400010BD012814D1CB1E012BF9D90729214C4B
:1006500024D9A1F10803606A9B000F21994020EA88
:1006600001016162616A02FA03F30B436362E7E727
:100670000228E5D10729184C10D90839636A890086
:100680000F20884023EA00036362636A02FA01F1E3
:1006900019436162D4E70729104C0CD8236A8800FB
:1006A0000F21814023EA01032362216A02FA00F04C
:1006B00008432062C4E7A1F10800636A80000F21AB
:1006C000814023EA01036362616A02FA00F0084391
:1006D0006062B5E7000402400008024000000240EA
:1006E000074B1A6842F001021A601A689207FCD59B
:1006F0009A6822F003029A609A689A60704700BF75
:1007000000380240032822D8DFE800F0020A121A5B
:100710000F4A0123106C03FA01F101431164704781
:100720000B4A0123506C03FA01F1014351647047F5
:10073000074A0123106B03FA01F10143116370476B
:10074000034A0123506B03FA01F1014351637047DF
:1007500000380240104BDA6822F40052DA60DA689E
:1007600022F48052DA60DA6822F48062DA60DA68B1
:1007700042F00402DA60DA6842F00802DA601A69CC
:1007800022F480521A611A6922F400521A6140F26E
:1007900083629A60704700BF00100140024B5860AE
:1007A0001A681206FCD5704700100140034B1A6806
:1007B0009206FCD55868C0B2704700BF00100140D7
:1007C000024AD36843F40053D360704700100140DD
:1007D000024B034A1A60034B1B68184720ED000EBA
:1007E000004000080C00002010B5FFF779FF0F2132
:1007F0000420FFF787FF00210220FFF783FF042179
:100800000120FFF77FFF022209210020FFF792FE5F
:1008100002220A210020FFF78DFE07220921002075
:10082000FFF708FF07220A210020FFF703FFFFF769
:1008300091FFFFF7C5FF012211460020FFF77AFE66
:1008400000231A4601211846FFF79AFE084CFFF7CD
:10085000ADFF2A2807D120704B20FFF79FFF2046CD
:10086000FFF7DCFDF3E72428F1D1FFF7B1FFEEE756
:10087000DA00002000000000000000000102030474
:040880000607080956
:1008840010000020000000000024F40004400008D0
:040000050800019559
:00000001FF
