:020000040800F2
:1000000000000120C5020008CB020008CF02000852
:1000100041030008450300088D03000800000000AC
:10002000000000000000000000000000D5030008F0
:10003000D903000800000000DD030008E103000808
:10004000F1030008F1030008F1030008F1030008C0
:10005000F1030008F1030008250700084507000820
:10006000F1030008F1030008F1030008F1030008A0
:10007000F1030008F1030008F1030008F103000890
:10008000F1030008F1030008F1030008000000007C
:10009000000000000000000000000000F103000864
:1000A000F1030008F1030008F1030008F103000860
:1000B000F1030008F1030008F1030008F103000850
:1000C000F1030008F1030008F1030008F103000840
:1000D000F1030008F1030008F1030008000000002C
:1000E000F1030008F1030008F1030008000000001C
:1000F000000000000000000000000000F103000804
:1001000000000000F1030008F1030008F1030008FB
:1001100000000000000000000000000000000000DF
:10012000F1030008F1030008F1030008F1030008DF
:10013000F1030008000000000000000000000000C3
:10014000000000000000000000000000F1030008B3
:10015000F1030008F1030008F1030008F1030008AF
:10016000F1030008F1030008000000000000000097
:10017000000000000000000000000000000000007F
:1001800000000000F1030008000000000000000073
:10019000F103000800B583B000F0BAF9384B394AD2
:1001A0001360394A1360394900E02146384B9942BF
:1001B0000BD20A684B6801F10C0488689842F4D9A4
:1001C0001168196004330432F8E72E4B1A68314B7A
:1001D0009A4200D0FEE72C4B1A682F4B9A42F9D175
:1001E000274B2E4A13602E4A13602E4B05E0002049
:1001F000106004329342FAD80B462B4A934204D241
:10020000194651F8082B5B68F4E7244B1B6813B9B7
:10021000234B1B6803B1FEE700F086F9694601A88D
:1002200000F022F9214C224BE41AA4100025AC4224
:1002300014DC204C204BE41AA4100025AC4213DC43
:100240000099019800F0CEFC05461C4C1C4BE41AAA
:10025000A410002C0EDC284600F0E2F8144B53F8F2
:10026000253098470135E2E7134B53F8253098477E
:100270000135E3E7013C124B53F824309847E8E797
:10028000BABADECA0000002014290020F4030008D6
:100290000C0400087856341232547698182900203D
:1002A000F82900200C0400081C0400081C040008A5
:1002B0001C0400081C0400081C0400081C0400089E
:1002C0001C04000808B5FFF765FF00BEFEE71EF03E
:1002D000040F0CBFEFF30880EFF309807146414A29
:1002E00010472DE9F04182B004468846124B5E6B00
:1002F0009F6B9D6A1B6B13F0020F03D00E4BDB6AE2
:10030000002B0CDB0D4800F0B7F8CDF800803B4621
:1003100032462946204600F00BF900BEFEE74BF6B8
:10032000AB6100F07FF90028ECD0034B4FF00042A6
:10033000DA6202B0BDE8F08100ED00E0E4160008EA
:1003400000BEFEE71EF0040F0CBFEFF30880EFF3D2
:1003500009807146244A10472DE9F04182B00446D5
:100360008846084B5E6B9F6B9D6A074800F084F8D7
:10037000CDF800803B4632462946204600F0D8F8AA
:1003800000BEFEE700ED00E0F41600081EF0040FCA
:100390000CBFEFF30880EFF309807146134A104752
:1003A0002DE9F04182B004468846084B5E6B9F6B96
:1003B0009D6A074800F060F8CDF800803B46324661
:1003C0002946204600F0B4F800BEFEE700ED00E04C
:1003D0000017000800BEFEE700BEFEE700BEFEE715
:1003E00070470000E302000859030008A103000859
:0403F00000BEFEE766
:1003F4005417000800000020182900205417000892
:10040400000000100000001018290020FC29002022
:080414000000001000000010C0
:10042000FEE7000008B503460C4A12685AB10B4AB1
:100430001068033323F003030344094A934206D8A8
:10044000064A136008BD054A06491160EFE700F04F
:1004500041FC0C2303604FF0FF30F3E71C29002020
:1004600000FC0020FC29002001230360014B0B60ED
:10047000704700BF040000200FB400B583B004AB88
:1004800053F8042B01938021064800F055FC002806
:1004900003DD0146034800F037F803B05DF804EBD4
:1004A00004B07047242900202DE9F04385B00446AC
:1004B0000F4643560BB10E461EE004252846214642
:1004C000ABBE0446384605B0BDE8F08314F9011B05
:1004D00004AA1A4402F8101C0133AB42F6D304AA52
:1004E0001344002203F8102C4FF00408E94640465C
:1004F0004946ABBE8046761B002EE3D03546102E13
:1005000028BF10250023E8E708B5FFF7CDFF08BD99
:1005100008B500F097F8024A024B9A6008BD00BF88
:100520000000000800ED00E008B500F0ABF808BDE1
:10053000F8B504460D4617461E462748FFF79CFFB0
:1005400021682648FFF798FF61682548FFF794FF68
:10055000A1682448FFF790FFE1682348FFF78CFF6C
:1005600021692248FFF788FF61692148FFF784FF6E
:10057000A1692048FFF780FFE1691F48FFF77CFF72
:100580001E48FFF779FF29461D48FFF775FF1D4CF0
:10059000E16A1D48FFF770FF216B1C48FFF76CFFF5
:1005A000E16B1B48FFF768FF15F0800F0AD115F4C7
:1005B000004F0CD11748FFF75FFF06991648FFF769
:1005C0005BFFF8BD39461548FFF756FFEFE73146A8
:1005D0001348FFF751FFEDE7C8150008D8150008CC
:1005E000E8150008F8150008081600081816000895
:1005F0002816000838160008481600085816000883
:100600006416000800ED00E0741600088416000867
:1006100094160008C4160008CC160008A41600089A
:10062000B416000883691A888A4201D000207047F6
:100630000268033A012A03D802338361012070471C
:10064000002070470C4B1A6842F001021A6000212A
:1006500099601A6822F0847222F480321A60074A84
:100660005A601A6822F480221A60D960044B4FF055
:1006700000629A60704700BF0038024010300024CA
:1006800000ED00E0224B9B6803F00C03042B14D018
:10069000082B16D01BB11F4B1F4A1A6002E01D4BDE
:1006A0001D4A1A601A4B9B68C3F303131B4AD15CA3
:1006B000184A1368CB4013607047164B184A1A60EB
:1006C000F0E7134B5A685B6803F03F0312F4800FA6
:1006D00013D0134AB2FBF3F20D4B5B68C3F38813DC
:1006E00003FB02F30A4A5268C2F30142013252008C
:1006F000B3FBF2F3074A1360D4E7074AB2FBF3F205
:10070000034B5B68C3F3881303FB02F3EAE700BF04
:10071000003802400C0000200024F40010170008EC
:1007200040787D0108B5054B1B682BB19847044AFA
:10073000536943F00103536108BD00BFA4290020A1
:10074000003C014008B5054B5B682BB19847044A53
:10075000536943F00203536108BD00BFA429002080
:10076000003C0140034620B9A1F10D00C0B20228AF
:100770000DD9012B07D010B4012B17D043B1022B98
:1007800022D010BC7047C81EC0B20128F3D87047F1
:10079000144B1C6848000321814024EA01011960C0
:1007A0001C6802FA00F121431960EAE70E4B1C684D
:1007B00048000321814024EA010119601C6802FA03
:1007C00000F121431960DCE7084B18684900032455
:1007D0008C4020EA04001860186802FA01F1014315
:1007E0001960CEE700000240000402400008024009
:1007F00030B4044620B9A1F10D00C0B2022806D9D8
:10080000012C06D0012C21D044B1022C36D030BCB2
:100810007047C81EC0B20128F4D8F8E723484468DE
:1008200001258D4024EA0504446044688A4022433F
:1008300042608268490003248C4022EA04028260FC
:10084000826803FA01F111438160E0E718484468C7
:1008500001258D4024EA0504446044688A4022430F
:1008600042608268490003248C4022EA04028260CC
:10087000826803FA01F111438160C8E70D484468BA
:1008800001258D4024EA0504446044688A402243DF
:1008900042608268490003248C4022EA040282609C
:1008A000826803FA01F111438160B0E70000024061
:1008B0000004024000080240034620B9A1F10D00E7
:1008C000C0B202280DD9012B07D010B4012B17D0CC
:1008D00043B1022B22D010BC7047C81EC0B2012801
:1008E000F3D87047144BDC6848000321814024EAA8
:1008F0000101D960DC6802FA00F12143D960EAE71E
:100900000E4BDC6848000321814024EA0101D960D4
:10091000DC6802FA00F12143D960DCE7084BD868B3
:10092000490003248C4020EA0400D860D86802FA09
:1009300001F10143D960CEE700000240000402400B
:1009400000080240034620B9A1F10D00C0B2022800
:100950000BD9012B05D0012B1CD03BB1022B2DD084
:100960007047C81EC0B20128F5D87047012A0AD0C6
:10097000002AFAD11B484369012202FA01F123EA55
:100980000101416170471748436902FA01F11943B7
:1009900041617047012A0AD0002AE6D11248436912
:1009A000012202FA01F123EA0101416170470E4878
:1009B000436902FA01F1194341617047012A0AD0E3
:1009C000002AD2D109484369012202FA01F123EA3F
:1009D00001014161C9E70548436902FA01F1194380
:1009E00041617047000002400004024000080240DC
:1009F000034620B9A1F10D00C0B202280DD9012B88
:100A000007D010B4012B29D043B1022B46D010BC23
:100A10007047C81EC0B20128F3D8704707290DD807
:100A20002E4C236A89000F20884023EA00032362AA
:100A3000236A02FA01F119432162E8E7274C636A4D
:100A4000A1F1080080000F21814023EA01036362C5
:100A5000636A02FA00F119436162D8E707290DD8E9
:100A60001F4C236A89000F20884023EA0003236279
:100A7000236A02FA01F119432162C8E71848446A5F
:100A8000A1F108039B000F21994024EA0101416272
:100A9000416A02FA03F30B434362B8E707290ED910
:100AA000104B586A083989000F248C4020EA040052
:100AB0005862586A02FA01F101435962A7E7094CEA
:100AC000236A89000F20884023EA00032362236AF7
:100AD00002FA01F11943216299E700BF00000240C8
:100AE0000004024000080240084A136843F0010372
:100AF0001360064B1B6813F0020FFAD0034B9A6881
:100B000022F003029A609A689A60704700380240A7
:100B1000032822D8DFE800F0020A121A0F48036CFB
:100B2000012202FA01F11943016470470B48436C3A
:100B3000012202FA01F11943416470470748036B2F
:100B4000012202FA01F11943016370470348436B24
:100B5000012202FA01F11943416370470038024053
:100B6000104BDA6822F40052DA60DA6822F480521C
:100B7000DA60DA6822F48062DA60DA6842F004024D
:100B8000DA60DA6842F00802DA601A6922F4805208
:100B90001A611A6922F400521A6140F283629A6063
:100BA000704700BF00100140034B5860024B1B68A8
:100BB00013F0800FFAD0704700100140044B5868C2
:100BC000C0B2034B1B6813F0200FFAD0704700BF70
:100BD00000100140024AD36843F40053D3607047C9
:100BE0000010014010B5FFF77FFF00210220FFF742
:100BF0008FFF0E210120FFF78BFF04210120FFF75B
:100C000087FF002211461046FFF7ACFD01220021AC
:100C10000846FFF751FE022209210020FFF7A2FD3E
:100C200002220A210020FFF79DFD07220921002052
:100C3000FFF7DEFE07220A210020FFF7D9FE01227E
:100C400011460020FFF78EFD0123002219461046B1
:100C5000FFF7CEFDFFF784FFFFF7BCFF194B002223
:100C60001A7027E0012211460020FFF76BFE154B9A
:100C70001B78154C22781549642000FB0313985CFF
:100C8000FFF792FF2378013323700E4B1B780E4A37
:100C900012780E49642000FB03139B5C2A2BE1D1E0
:100CA000FFF78CFF0A4B18704B28FDD1054A1378CB
:100CB00001331370034B1B78772BCFD8024B0022E4
:100CC0001A70E2E7F4290020E42900201000002037
:100CD000E5290020014B1868704700BFB0280020AC
:100CE00030B5141E05469BB0184605DA8B232B60E1
:100CF0004FF0FF301BB030BD4FF40273ADF80C3035
:100D000014BF04F1FF332346029305934FF6FF739C
:100D100000910491ADF80E3002461E9B69462846AC
:100D200000F072F8431CBCBF8B232B60002CE1D079
:100D3000009B00221A70DDE707B5009313460A46B0
:100D4000014603480068FFF7CBFF03B05DF804FBE2
:100D5000B02800202DE9F0478E689E4282460C465E
:100D60009046994637D88A8912F4906F31D0256819
:100D700009696F1A6569022305EB450595FBF3F5D3
:100D800009F101033B449D4238BF1D46530530D550
:100D9000294600F07FFB064650B90C23CAF8003004
:100DA000A38943F04003A3814FF0FF30BDE8F087F3
:100DB0003A46216900F0FCFAA38923F4906343F0DA
:100DC0008003A381266165613E44ED1B2660A5601A
:100DD0004E464E4500D94E4632464146206800F008
:100DE000F2FAA3689B1BA36023681E4426600020C0
:100DF000DCE72A4600F0A8FB06460028E2D121697C
:100E0000504600F0F9FAC8E72DE9F04F9DB0804652
:100E100003938B891D060C4616460FD50B696BB9DB
:100E2000402100F037FB2060206128B90C23C8F86E
:100E300000304FF0FF30C7E0402363610023099387
:100E400020238DF8293030238DF82A304FF0010B04
:100E500037463D4615F8013B0BB1252B3ED1B7EB8C
:100E6000060A0BD05346324621464046FFF772FF32
:100E7000013000F0A480099B534409933B78002B78
:100E800000F09D8000234FF0FF32CDE9052304934D
:100E900007938DF853301A932F46052217F8011B3C
:100EA0004F4800F035FA049BD0B9D90644BF202240
:100EB0008DF853201A0744BF2B228DF853202A782F
:100EC0002A2A15D0079A2F4600200A25394611F8FC
:100ED000013B303B092B4DD9B8B10FE02F46B8E7A5
:100EE0003F4A801A0BFA00F0184304903D46D3E7BE
:100EF000039A111D12680391002A01DB079204E096
:100F0000524243F00203079204933B782E2B0CD1FC
:100F10007B782A2B33D1039B1A1D1B680392002B6D
:100F2000B8BF4FF0FF33023705932E4D39780322B7
:100F3000284600F0EDF938B14023401B03FA00F0D9
:100F4000049B034301370493397827488DF8281010
:100F500006227E1C00F0DCF9002838D0234B13BB9E
:100F6000039B073323F0070308330393099B4B4488
:100F700009936DE705FB023201200F46A6E7002327
:100F80000137059319460A25384610F8012B303AE7
:100F9000092A03D9002BC8D00591C6E705FB01211A
:100FA00001230746F0E703AB00932246104B04A948
:100FB0004046AFF30080B0F1FF3F8146D6D1A38910
:100FC0005B063FF536AF09981DB0BDE8F08F03AB67
:100FD00000932246064B04A9404600F081F8EAE758
:100FE00020170008261700082A1700080000000034
:100FF000550D00082DE9F04791461F468A680B6998
:10100000DDF820809342B8BF1346C9F8003091F84C
:10101000432006460C4612B10133C9F8003023685C
:10102000990642BFD9F800300233C9F8003025686C
:1010300015F0060507D104F1190AE368D9F8002074
:101040009B1AAB4228DC94F843302268003318BF67
:10105000012392062DD404F1430239463046C0479D
:10106000013020D02368E568D9F8002003F006039A
:10107000042B08BFAD1AA36822690CBF25EAE575E9
:1010800000259342C4BF9B1AED184FF000091A3493
:101090004D451AD1002008E001235246394630461A
:1010A000C047013003D14FF0FF30BDE8F087013574
:1010B000C3E7E1185A1C302081F84300224494F819
:1010C000451082F843100233C5E701232246394612
:1010D0003046C0470130E6D009F10109D8E70000E9
:1010E0002DE9F04301F1430C0C46097E85B06E29D1
:1010F0001746064698460C9A00F0B38022D863291A
:1011000036D00AD8002900F0B980582900F0838031
:1011100004F1420584F8421032E0642901D06929C3
:10112000F6D120681368050603F104012AD51B686F
:101130001160002B03DA2D225B4284F843206F48B4
:101140000A2239E0732900F09D8008D86F2920D049
:101150007029DDD1236843F02003236003E0752963
:1011600017D07829D4D1782384F84530644855E0E5
:101170001368191D1B68116004F1420584F84230A0
:1011800001238CE01B68116010F0400F18BF1BB2E8
:10119000CFE713682568181D1060280601D51B6865
:1011A00002E06806FBD51B8854486F2914BF0A2249
:1011B0000822002184F843106568A560002DC0F264
:1011C0009580216821F004012160002B3DD1002D84
:1011D00040F08E806546082A0BD12368DB0708D5CE
:1011E000236962689A42DEBF302305F8013C05F1AD
:1011F000FF35ACEB05032361CDF800803B4603AA25
:1012000021463046FFF7F6FE01304DD14FF0FF305A
:1012100005B0BDE8F083394884F8451013682168AB
:101220001D1D1B6815600A060BD5CA0744BF41F097
:10123000200121601BB9226822F0200222601022C6
:10124000B7E74D0648BF9BB2EFE76546B3FBF2F147
:1012500002FB1133C35C05F8013D0B460029F5D1B3
:10126000B9E7136825686169181D106028061B68B6
:1012700001D5196002E06A06FBD5198000232361BD
:101280006546B9E71368191D11601D686268002181
:10129000284600F03DF808B1401B60606368236198
:1012A000002384F84330A7E723692A4639463046AD
:1012B000C0470130AAD023689B0713D4E068039B82
:1012C0009842B8BF1846A3E701234A46394630463C
:1012D000C04701309AD00135E368039A9B1AAB42AC
:1012E000F2DCEBE7002504F11909F5E7002BACD19E
:1012F000037884F8423004F142056CE731170008A6
:10130000421700080000000000000000000000007C
:1013100001F0FF01102A2BDB10F0070F08D010F8A6
:10132000013B013A8B422DD010F0070F42B3F6D1AA
:10133000F0B441EA012141EA014122F007047FF0C3
:1013400000070023F0E80256083C85EA010586EA1A
:10135000010685FA47F5A3FA87F586FA47F6A5FA56
:1013600087F68EB9EED1F0BC01F0FF0102F0070262
:1013700032B110F8013B013A83EA010313B1F8D10D
:101380000020704701387047002D06BF35460338EE
:10139000073815F0010F07D1013015F4807F02BF27
:1013A000013015F4C03F0130F0BC0138704700BF78
:1013B00010B5431E0A44914200D110BD11F8014BF3
:1013C00003F8014FF7E7884210B501EB020307D895
:1013D000421E99420AD011F8014B02F8014FF8E77A
:1013E0008342F5D98118D21AD34200D110BD13F827
:1013F000014D01F8014DF7E738B50546002945D004
:1014000051F8043C0C1F002BB8BFE41800F0D2F8D0
:101410001F4A1368104633B9636014602846BDE85C
:10142000384000F0C8B8A3420CD921686218934232
:1014300004BF1A685B68636004BF521822600460CE
:10144000ECE713465A680AB1A242FAD9196858184B
:10145000A0420BD120680144581882421960DDD1A6
:10146000106852685A6001441960D7E702D90C230A
:101470002B60D3E7206821188A4204BF11685268A4
:10148000626004BF091821605C60C7E738BD00BF17
:10149000E829002070B5CD1C25F0030508350C2D7A
:1014A00038BF0C25002D064601DBA94203D90C23C9
:1014B0003360002070BD00F07DF8214A1468214699
:1014C00091B9204C23681BB9304600F063F82060C6
:1014D0002946304600F05EF8431C24D10C233360CB
:1014E000304600F068F8E4E70B685B1B18D40B2B60
:1014F0000FD90B60CD50CC18304600F05CF804F1E9
:101500000B00231D20F00700C31AD3D05A42E2502B
:10151000D0E78C424B6816BF636013600C46EBE764
:101520000C464968CCE7C41C24F00304A04205D053
:10153000211A304600F02EF80130CFD02560DBE7CD
:10154000E8290020EC290020F8B5074614460E468D
:1015500021B91146BDE8F840FFF79CBF22B9FFF75B
:101560004BFF25462846F8BD00F026F8A0420FD2D2
:1015700021463846FFF78EFF05460028F2D0314657
:101580002246FFF715FF31463846FFF735FFE9E7FA
:101590003546E7E738B5064C002305460846236084
:1015A000FEF740FF431C02D1236803B12B6038BD16
:1015B000F02900207047704751F8043C181F002B99
:1015C000BCBF0B58C0187047537461636B206672C0
:1015D000616D653A0A000000205230203D20202530
:1015E0003038580A00000000205231203D202025CC
:1015F0003038580A00000000205232203D202025BB
:101600003038580A00000000205233203D202025A9
:101610003038580A0000000020523132203D202589
:101620003038580A00000000204C52203D20202570
:101630003038580A00000000205043203D2020256B
:101640003038580A0000000020505352203D202519
:101650003038580A000000004653522F4641523A93
:101660000A0000002043465352203D2020253038F8
:10167000580A00002048465352203D20202530388B
:10168000580A00002044465352203D20202530387F
:10169000580A00002041465352203D202025303872
:1016A000580A0000204D4D464152203D202530383B
:1016B000580A00002042464152203D202025303863
:1016C000580A00004D6973630A000000204C522F35
:1016D0004558435F52455455524E3D2025303858A9
:1016E0000A0000005B486172644661756C745D0AB3
:1016F000000000005B4275734661756C745D0A0002
:101700005B55736167654661756C745D0A00000026
:1017100000000000000000000102030406070809A1
:10172000232D302B2000686C4C00656667454647CA
:10173000003031323334353637383941424344454D
:1017400046003031323334353637383961626364BC
:03175000656600CB
:101754007856341220290020000000000024F400F0
:101764003A30323030303030343038303046322A4B
:101774000000000000000000000000000000000065
:101784000000000000000000000000000000000055
:101794000000000000000000000000000000000045
:1017A4000000000000000000000000000000000035
:1017B4000000000000000000000000000000000025
:1017C400000000003A3130343030303030303030C6
:1017D40030303132303631343230303038363534DE
:1017E4003230303038363734323030303838342ACA
:1017F40000000000000000000000000000000000E5
:1018040000000000000000000000000000000000D4
:1018140000000000000000000000000000000000C4
:1018240000000000000000003A3130343031303024
:101834003037443432303030383746343230303058
:101844003839353432303030383030303030303070
:101854003033312A000000000000000000000000C6
:101864000000000000000000000000000000000074
:101874000000000000000000000000000000000064
:101884000000000000000000000000003A31303485
:101894003032303030303030303030303030303042
:1018A400303030303030303030303030304142340D
:1018B400323030303839422A000000000000000085
:1018C4000000000000000000000000000000000014
:1018D4000000000000000000000000000000000004
:1018E40000000000000000000000000000000000F4
:1018F4003A313034303330303041443432303030A7
:10190400383030303030303030414634323030309E
:1019140038423134323030303839352A0000000052
:1019240000000000000000000000000000000000B3
:1019340000000000000000000000000000000000A3
:101944000000000000000000000000000000000093
:10195400000000003A313034303430303043353414
:101964003230303038433534323030303843353427
:101974003230303038433534323030303833342A32
:101984000000000000000000000000000000000053
:101994000000000000000000000000000000000043
:1019A4000000000000000000000000000000000033
:1019B40000000000000000003A313034303530308F
:1019C40030433534323030303843353432303030CF
:1019D40038433534323030303843353432303030B7
:1019E4003832342A0000000000000000000000002B
:1019F40000000000000000000000000000000000E3
:101A040000000000000000000000000000000000D2
:101A14000000000000000000000000003A313034F3
:101A2400303630303043353432303030384335346A
:101A34003230303038433534323030303843353456
:101A4400323030303831342A000000000000000009
:101A54000000000000000000000000000000000082
:101A64000000000000000000000000000000000072
:101A74000000000000000000000000000000000062
:101A84003A3130343037303030433534323030301E
:101A940038433534323030303843353432303030F6
:101AA40038433534323030303830342A00000000C6
:101AB4000000000000000000000000000000000022
:101AC4000000000000000000000000000000000012
:101AD4000000000000000000000000000000000002
:101AE400000000003A31303430383030304335347F
:101AF4003230303038433534323030303843353496
:101B04003230303038303030303030303030332ACA
:101B140000000000000000000000000000000000C1
:101B240000000000000000000000000000000000B1
:101B340000000000000000000000000000000000A1
:101B440000000000000000003A31303430393030F9
:101B54003030303030303030303030303030303081
:101B64003030303030303030304335343230303053
:101B74003831312A0000000000000000000000009D
:101B84000000000000000000000000000000000051
:101B94000000000000000000000000000000000041
:101BA4000000000000000000000000003A31303462
:101BB40030413030304335343230303038433534CE
:101BC40032303030384335343230303038433534C5
:101BD400323030303844342A000000000000000065
:101BE40000000000000000000000000000000000F1
:101BF40000000000000000000000000000000000E1
:101C040000000000000000000000000000000000D0
:101C14003A31303430423030304335343230303081
:101C24003843353432303030384335343230303064
:101C340038433534323030303843342A0000000021
:101C44000000000000000000000000000000000090
:101C54000000000000000000000000000000000080
:101C64000000000000000000000000000000000070
:101C7400000000003A3130343043303030433534E2
:101C84003230303038433534323030303843353404
:101C94003230303038433534323030303842342A00
:101CA4000000000000000000000000000000000030
:101CB4000000000000000000000000000000000020
:101CC4000000000000000000000000000000000010
:101CD40000000000000000003A313034304430305D
:101CE40030433534323030303843353432303030AC
:101CF40038433534323030303830303030303030B2
:101D04003042332A00000000000000000000000000
:101D140000000000000000000000000000000000BF
:101D240000000000000000000000000000000000AF
:101D34000000000000000000000000003A313034D0
:101D44003045303030433534323030303843353438
:101D5400323030303843353432303030383030304F
:101D6400303030303041332A0000000000000000E1
:101D7400000000000000000000000000000000005F
:101D8400000000000000000000000000000000004F
:101D9400000000000000000000000000000000003F
:101DA4003A3130343046303030303030303030300A
:101DB400303030303030303030303030303030301F
:101DC40030433534323030303842312A000000009C
:101DD40000000000000000000000000000000000FF
:101DE40000000000000000000000000000000000EF
:101DF40000000000000000000000000000000000DF
:101E0400000000003A31303431303030303030307E
:101E1400303030303043353432303030384335347C
:101E24003230303038433534323030303838322A7A
:101E3400000000000000000000000000000000009E
:101E4400000000000000000000000000000000008E
:101E5400000000000000000000000000000000007E
:101E640000000000000000003A31303431313030DD
:101E7400303030303030303030303030303030305E
:101E8400303030303030303030303030303030304E
:101E94003039462A00000000000000000000000065
:101EA400000000000000000000000000000000002E
:101EB400000000000000000000000000000000001E
:101EC4000000000000000000000000003A3130343F
:101ED40031323030304335343230303038433534B9
:101EE40032303030384335343230303038433534A2
:101EF400323030303835332A000000000000000052
:101F040000000000000000000000000000000000CD
:101F140000000000000000000000000000000000BD
:101F240000000000000000000000000000000000AD
:101F34003A3130343133303030433534323030306C
:101F44003830303030303030303030303030303085
:101F540030303030303030303037302A000000003C
:101F6400000000000000000000000000000000006D
:101F7400000000000000000000000000000000005D
:101F8400000000000000000000000000000000004D
:101F9400000000003A3130343134303030303030E9
:101FA400303030303030303030303030303030302D
:101FB4003030303030433534323030303836302AF7
:101FC400000000000000000000000000000000000D
:101FD40000000000000000000000000000000000FD
:101FE40000000000000000000000000000000000ED
:101FF40000000000000000003A3130343135303048
:102004003043353432303030384335343230303088
:102014003843353432303030384335343230303070
:102024003832332A000000000000000000000000E5
:10203400000000000000000000000000000000009C
:10204400000000000000000000000000000000008C
:102054000000000000000000000000003A313034AD
:102064003136303030433534323030303843353423
:102074003230303038303030303030303030303052
:10208400303030303033312A0000000000000000CE
:10209400000000000000000000000000000000003C
:1020A400000000000000000000000000000000002C
:1020B400000000000000000000000000000000001C
:1020C4003A313034313730303030303030303030F5
:1020D40030303030303030303030303030303030FC
:1020E40030303030303030303033462A0000000099
:1020F40000000000000000000000000000000000DC
:1021040000000000000000000000000000000000CB
:1021140000000000000000000000000000000000BB
:10212400000000003A313034313830303030303053
:102134003030303030433534323030303830303075
:102144003030303030303030303030303032302A8F
:10215400000000000000000000000000000000007B
:10216400000000000000000000000000000000006B
:10217400000000000000000000000000000000005B
:1021840000000000000000003A31303431393030B2
:1021940030433534323030303830374235303046E1
:1021A40030423746383237344232373438383334B1
:1021B4003230462A00000000000000000000000049
:1021C400000000000000000000000000000000000B
:1021D40000000000000000000000000000000000FB
:1021E4000000000000000000000000003A3130341C
:1021F400314130303032364433323734423237347E
:10220400393030323038423432324444333030465C
:10221400304238463841372A0000000000000000F0
:1022240000000000000000000000000000000000AA
:10223400000000000000000000000000000000009A
:10224400000000000000000000000000000000008A
:102254003A3130343142303030323534453236342C
:1022640043303141393638343630304630394546DA
:1022740038413431424134313043392A00000000BE
:10228400000000000000000000000000000000004A
:10229400000000000000000000000000000000003A
:1022A400000000000000000000000000000000002A
:1022B400000000003A3130343143303030303032B5
:1022C4003541433432323944433232344532323484
:1022D4004341343142413431303030323536312AA1
:1022E40000000000000000000000000000000000EA
:1022F40000000000000000000000000000000000DA
:1023040000000000000000000000000000000000C9
:1023140000000000000000003A3130343144303015
:102324003041433432323744434444453930303009
:10233400313030463030364641314534443146340C
:102344004336312A000000000000000000000000B5
:102354000000000000000000000000000000000079
:102364000000000000000000000000000000000069
:102374000000000000000000000000003A3130348A
:1023840031453030303634314230363436413431F0
:1023940030303032433231444333303436303046D7
:1023A400303830463834392A00000000000000007C
:1023B4000000000000000000000000000000000019
:1023C4000000000000000000000000000000000009
:1023D40000000000000000000000000000000000F9
:1023E4003A3130343146303030443345393030318D
:1023F400323043333335334638303434433839316B
:1024040041393434324345443946372A0000000008
:1024140000000000000000000000000000000000B8
:1024240000000000000000000000000000000000A8
:102434000000000000000000000000000000000098
:10244400000000003A313034323030303035353528
:102454003831353630303433324639453735334602
:102464003830383242353346383034344335442AF0
:102474000000000000000000000000000000000058
:102484000000000000000000000000000000000048
:102494000000000000000000000000000000000038
:1024A40000000000000000003A3130343231303096
:1024B40030393434324339443931303630303433BE
:1024C400324641453735364638323533303938347B
:1024D4003731442A00000000000000000000000022
:1024E40000000000000000000000000000000000E8
:1024F40000000000000000000000000000000000D8
:102504000000000000000000000000003A313034F8
:102514003232303030303133354345453735364645
:102524003832353330393834373031333544304547
:10253400373031334346372A0000000000000000E2
:102544000000000000000000000000000000000087
:102554000000000000000000000000000000000077
:102564000000000000000000000000000000000067
:102574003A31303432333030303535463832343312
:1025840030393834374436453743383432303030D4
:1025940038453034323030303830352A00000000CD
:1025A4000000000000000000000000000000000027
:1025B4000000000000000000000000000000000017
:1025C4000000000000000000000000000000000007
:1025D400000000003A313034323430303045303489
:1025E400323030303846303432303030384630349F
:1025F4003230303038463034323030303839362AA0
:1026040000000000000000000000000000000000C6
:1026140000000000000000000000000000000000B6
:1026240000000000000000000000000000000000A6
:1026340000000000000000003A3130343235303000
:102644003046303432303030384630343230303046
:10265400384630343230303038463034323030302E
:102664003837362A00000000000000000000000097
:102674000000000000000000000000000000000056
:102684000000000000000000000000000000000046
:102694000000000000000000000000003A31303467
:1026A40032363030303134343830303437464545C2
:1026B400373145463030343046304342464546464D
:1026C400333038383037302A000000000000000072
:1026D40000000000000000000000000000000000F6
:1026E40000000000000000000000000000000000E6
:1026F40000000000000000000000000000000000D6
:102704003A31303432373030304546463330393858
:102714003037313436313034413130343746454541
:1027240037464545373145463039332A00000000E5
:102734000000000000000000000000000000000095
:102744000000000000000000000000000000000085
:102754000000000000000000000000000000000075
:10276400000000003A313034323830303030343008
:10277400463043424645464633303838304546466F
:102784003330393830373134363042344136462AE2
:102794000000000000000000000000000000000035
:1027A4000000000000000000000000000000000025
:1027B4000000000000000000000000000000000015
:1027C40000000000000000003A313034323930306B
:1027D4003031303437464545373145463030343072
:1027E40046304342464546463330383830454646FF
:1027F4003341412A000000000000000000000000F6
:1028040000000000000000000000000000000000C4
:1028140000000000000000000000000000000000B4
:102824000000000000000000000000003A313034D5
:102834003241303030303938303731343630363454
:102844004131303437464545374645453746454599
:10285400374645453739332A0000000000000000A0
:102864000000000000000000000000000000000064
:102874000000000000000000000000000000000054
:102884000000000000000000000000000000000044
:102894003A313034324230303037303437303030FF
:1028A40030393534313030303837423432303030EA
:1028B40038393334323030303843372A000000009E
:1028C4000000000000000000000000000000000004
:1028D40000000000000000000000000000000000F4
:1028E40000000000000000000000000000000000E4
:1028F400000000003A30363432433030304139344D
:1029040032303030384645453732302A0000000036
:1029140000000000000000000000000000000000B3
:1029240000000000000000000000000000000000A3
:102934000000000000000000000000000000000093
:102944000000000000000000000000000000000083
:1029540000000000000000003A31303432433830C7
:102964003032383436303030383030303030303245
:10297400303043303030303230323834363030302A
:102984003841452A0000000000000000000000005B
:102994000000000000000000000000000000000033
:1029A4000000000000000000000000000000000023
:1029B4000000000000000000000000003A31303444
:1029C40032443830303030303030303130303030E4
:1029D40030303031303043303030303230313030DC
:1029E400303030323035412A000000000000000051
:1029F40000000000000000000000000000000000D3
:102A040000000000000000000000000000000000C2
:102A140000000000000000000000000000000000B2
:102A24003A3038343245383030303030303030316C
:102A340030303030303030313041452A0000000031
:102A44000000000000000000000000000000000082
:102A54000000000000000000000000000000000072
:102A64000000000000000000000000000000000062
:102A74000000000000000000000000000000000052
:102A8400000000003A3130343246303030303842C1
:102A940035303046303137463830303030303132EE
:102AA4003330333630303134423042363043342AD6
:102AB4000000000000000000000000000000000012
:102AC4000000000000000000000000000000000002
:102AD40000000000000000000000000000000000F2
:102AE40000000000000000003A3130343330303050
:102AF4003037303437303042463030303030303296
:102B04003030384235303046303144463830323453
:102B14004230382A000000000000000000000000DD
:102B240000000000000000000000000000000000A1
:102B34000000000000000000000000000000000091
:102B44000000000000000000000000003A313034B2
:102B5400333130303030323441394136303038421C
:102B640044303042463030454430304530303034E3
:102B7400303030303842452A0000000000000000A8
:102B84000000000000000000000000000000000041
:102B94000000000000000000000000000000000031
:102BA4000000000000000000000000000000000021
:102BB4003A313034333230303030304630333242D0
:102BC4003842464633344638463035343930363464
:102BD40042434136383032463435432A000000003F
:102BE40000000000000000000000000000000000E1
:102BF40000000000000000000000000000000000D1
:102C040000000000000000000000000000000000C0
:102C1400000000003A313034333330303045303640
:102C24003231333433434236304246463334463805
:102C34004630304246464445373030424643382ACF
:102C44000000000000000000000000000000000080
:102C54000000000000000000000000000000000070
:102C64000000000000000000000000000000000060
:102C740000000000000000003A31303433343030BA
:102C840030303045443030453030343030464130D7
:102C940035304334423141363830303231343246C3
:102CA4003037312A0000000000000000000000005E
:102CB4000000000000000000000000000000000010
:102CC4000000000000000000000000000000000000
:102CD4000000000000000000000000003A31303421
:102CE40033353030303031303231413630393936A5
:102CF4003031413638323246303834373232324667
:102D0400343830333239352A000000000000000026
:102D140000000000000000000000000000000000AF
:102D2400000000000000000000000000000000009F
:102D3400000000000000000000000000000000008F
:102D44003A31303433363030303141363030373444
:102D540041354136303141363832324634383032FA
:102D640032314136304439363044422A00000000C2
:102D7400000000000000000000000000000000004F
:102D8400000000000000000000000000000000003F
:102D9400000000000000000000000000000000002F
:102DA400000000003A3130343337303030303434BE
:102DB400423446463030303632394136303730349A
:102DC4003730304246303033383032343036332ABC
:102DD40000000000000000000000000000000000EF
:102DE40000000000000000000000000000000000DF
:102DF40000000000000000000000000000000000CF
:102E040000000000000000003A3130343338303024
:102E14003031303330303032343030454430304566
:102E24003031373441313834393933363830334638
:102E34003034432A000000000000000000000000BD
:102E4400000000000000000000000000000000007E
:102E5400000000000000000000000000000000006E
:102E64000000000000000000000000003A3130348F
:102E74003339303030304330333034324231304201
:102E840035304444303038324230444430313434C4
:102E9400423042363036332A000000000000000081
:102EA400000000000000000000000000000000001E
:102EB400000000000000000000000000000000000E
:102EC40000000000000000000000000000000000FE
:102ED4003A313034334130303031313442313434AA
:102EE4004139423638433346333033313344323553
:102EF40043304236384433343044302A0000000032
:102F040000000000000000000000000000000000BD
:102F140000000000000000000000000000000000AD
:102F2400000000000000000000000000000000009D
:102F3400000000003A313034334230303030423611
:102F440030313042443130344246324537353436FC
:102F54003835303638353236383633303246452A0D
:102F6400000000000000000000000000000000005D
:102F7400000000000000000000000000000000004D
:102F8400000000000000000000000000000000003D
:102F940000000000000000003A3130343343303088
:102FA40030433246333838313230304630334630AD
:102FB400303443424630423442303834424233465D
:102FC4004230442A0000000000000000000000001D
:102FD40000000000000000000000000000000000ED
:102FE40000000000000000000000000000000000DD
:102FF4000000000000000000000000003A313034FE
:10300400334430303046304633353334333034345F
:10301400413532363843324633303134323031334D
:10302400323532303044462A0000000000000000EF
:10303400000000000000000000000000000000008C
:10304400000000000000000000000000000000007C
:10305400000000000000000000000000000000006C
:103064003A313034334530303042334642463246CA
:1030740033444245373030424630303338303234CE
:1030840030303830303030323031372A00000000F0
:10309400000000000000000000000000000000002C
:1030A400000000000000000000000000000000001C
:1030B400000000000000000000000000000000000C
:1030C400000000003A313034334630303030303292
:1030D40034463430303138343630303038343037A8
:1030E4003837443031313042353230423936422A71
:1030F40000000000000000000000000000000000CC
:1031040000000000000000000000000000000000BB
:1031140000000000000000000000000000000000AB
:1031240000000000000000003A3130343430303008
:10313400304131463130443033303232423042440F
:103144003831304244303132383034443143423102
:103154004534362A00000000000000000000000092
:10316400000000000000000000000000000000005B
:10317400000000000000000000000000000000004B
:103184000000000000000000000000003A3130346C
:1031940034313030303031324246394439303934C8
:1031A40042303445303032323846354431303834A8
:1031B400423030453034332A000000000000000063
:1031C40000000000000000000000000000000000FB
:1031D40000000000000000000000000000000000EB
:1031E40000000000000000000000000000000000DB
:1031F4003A31303434323030303038344231383689
:103204003834393030303332343843343032304566
:1032140041303430303138363046372A000000002F
:10322400000000000000000000000000000000009A
:10323400000000000000000000000000000000008A
:10324400000000000000000000000000000000007A
:10325400000000003A313034343330303031383605
:1032640038303246413031463130313433313936F9
:103274003045354537303030343032343033462AF7
:10328400000000000000000000000000000000003A
:10329400000000000000000000000000000000002A
:1032A400000000000000000000000000000000001A
:1032B40000000000000000003A3130343434303073
:1032C40030303030383032343030303030303234E6
:1032D4003033304235323042394131463130443076
:1032E4003038332A00000000000000000000000015
:1032F40000000000000000000000000000000000CA
:1033040000000000000000000000000000000000B9
:103314000000000000000000000000003A313034DA
:10332400343530303030323238333444383330424C
:10333400443031323831394431434331453031320C
:10334400434639443933442A000000000000000099
:103354000000000000000000000000000000000069
:103364000000000000000000000000000000000059
:103374000000000000000000000000000000000049
:103384003A313034343630303032333443363536F3
:1033940038383834303235454130303030363036D4
:1033A40030363036383841343045372A0000000092
:1033B4000000000000000000000000000000000009
:1033C40000000000000000000000000000000000F9
:1033D40000000000000000000000000000000000E9
:1033E400000000003A313034343730303030323479
:1033F400333632363041303638344130303033327F
:103404003139313430323045413031303145322A6E
:1034140000000000000000000000000000000000A8
:103424000000000000000000000000000000000098
:103434000000000000000000000000000000000088
:1034440000000000000000003A31303434383030DD
:1034540030413136304130363830334641303246EF
:103464003130313433413136304532453730323200
:103474003846422A0000000000000000000000005E
:103484000000000000000000000000000000000038
:103494000000000000000000000000000000000028
:1034A4000000000000000000000000003A31303449
:1034B40034393030304530443131383438303132B9
:1034C400353434363838443430323445413035308C
:1034D400343434363042312A000000000000000049
:1034E40000000000000000000000000000000000D8
:1034F40000000000000000000000000000000000C8
:1035040000000000000000000000000000000000B7
:103514003A31303434413030303434363838413450
:10352400303232343334323630383236383439305B
:1035340030303332343843343036392A0000000016
:103544000000000000000000000000000000000077
:103554000000000000000000000000000000000067
:103564000000000000000000000000000000000057
:10357400000000003A3130343442303030323245C9
:1035840041303430323832363038323638303346DF
:103594004130314631313445303045343845352AAF
:1035A4000000000000000000000000000000000017
:1035B4000000000000000000000000000000000007
:1035C40000000000000000000000000000000000F7
:1035D40000000000000000003A3130343443303041
:1035E400303031323534343638384434303234457E
:1035F400413035303434343630343436383841346C
:103604003031432A000000000000000000000000E8
:1036140000000000000000000000000000000000A6
:103624000000000000000000000000000000000096
:103634000000000000000000000000003A313034B7
:103644003444303030323234333432363038323637
:103654003834433030303332314131343032324512
:10366400413031303238422A0000000000000000AE
:103674000000000000000000000000000000000046
:103684000000000000000000000000000000000036
:103694000000000000000000000000000000000026
:1036A4003A313034344530303038323630383236CE
:1036B40038303346413034463131313433383136A1
:1036C40030423245373030424638312A000000005B
:1036D40000000000000000000000000000000000E6
:1036E40000000000000000000000000000000000D6
:1036F40000000000000000000000000000000000C6
:10370400000000003A31303434463030303030304C
:10371400343032343030303038303234303030308D
:103724003030323430313042353230423934432A49
:103734000000000000000000000000000000000085
:103744000000000000000000000000000000000075
:103754000000000000000000000000000000000065
:1037640000000000000000003A31303435303030C1
:1037740030413146313044303330323242304644C5
:1037840038313042443031323830364431434231BA
:103794004533462A0000000000000000000000003D
:1037A4000000000000000000000000000000000015
:1037B4000000000000000000000000000000000005
:1037C4000000000000000000000000003A31303426
:1037D400353130303030313242463944393031328B
:1037E400413139443131333442303845303032326A
:1037F400384633443135342A00000000000000000C
:1038040000000000000000000000000000000000B4
:1038140000000000000000000000000000000000A4
:103824000000000000000000000000000000000094
:103834003A31303435323030303031324131444431
:103844003131313442303245303031324130354417
:1038540031313034423538363931372A00000000EE
:103864000000000000000000000000000000000054
:103874000000000000000000000000000000000044
:103884000000000000000000000000000000000034
:10389400000000003A3130343533303030384134B0
:1038A40030303234333541363145374537303032B4
:1038B4004145354431304334383433363930332A92
:1038C40000000000000000000000000000000000F4
:1038D40000000000000000000000000000000000E4
:1038E40000000000000000000000000000000000D4
:1038F40000000000000000003A313034353430302C
:103904003030313232384134303233454130323064
:103914003234323631444445373030324144424403
:103924003133302A000000000000000000000000D5
:103934000000000000000000000000000000000083
:103944000000000000000000000000000000000073
:103954000000000000000000000000003A31303494
:1039640035353030303035344336333639303046FF
:1039740041303146323233454130323032363236DC
:10398400314433453743332A00000000000000006F
:103994000000000000000000000000000000000023
:1039A4000000000000000000000000000000000013
:1039B4000000000000000000000000000000000003
:1039C4003A3130343536303030303032414431449D
:1039D4003130313438454145373030303430323489
:1039E40030303030383032343044352A0000000072
:1039F40000000000000000000000000000000000C3
:103A040000000000000000000000000000000000B2
:103A140000000000000000000000000000000000A2
:103A2400000000003A313034353730303030303037
:103A34003030323430303734423141363834324623
:103A44003030313032314136303141363846342A23
:103A54000000000000000000000000000000000062
:103A64000000000000000000000000000000000052
:103A74000000000000000000000000000000000042
:103A840000000000000000003A3130343538303096
:103A9400303932303746434435394136383232468C
:103AA40030303330323941363039413638394136A5
:103AB4003042322A00000000000000000000000034
:103AC40000000000000000000000000000000000F2
:103AD40000000000000000000000000000000000E2
:103AE4000000000000000000000000003A31303403
:103AF4003539303030373034373030424630303377
:103B04003830323430303332383232443844464537
:103B1400383030463034462A0000000000000000EF
:103B24000000000000000000000000000000000091
:103B34000000000000000000000000000000000081
:103B44000000000000000000000000000000000071
:103B54003A31303435413030303032304131323125
:103B640041304634413031323331303643303346DC
:103B740041303146313031343341372A00000000BE
:103B84000000000000000000000000000000000031
:103B94000000000000000000000000000000000021
:103BA4000000000000000000000000000000000011
:103BB400000000003A313034354230303031313693
:103BC40034373034373042344130313233353036A3
:103BD4004330334641303146313031343336372A7D
:103BE40000000000000000000000000000000000D1
:103BF40000000000000000000000000000000000C1
:103C040000000000000000000000000000000000B0
:103C140000000000000000003A31303435433030F9
:103C2400303531363437303437303734413031324F
:103C3400333130364230334641303146313031341D
:103C44003335432A0000000000000000000000009B
:103C54000000000000000000000000000000000060
:103C64000000000000000000000000000000000050
:103C74000000000000000000000000003A31303471
:103C840035443030303131363337303437303334F3
:103C940041303132333530364230334641303146AB
:103CA400313031343335312A000000000000000087
:103CB4000000000000000000000000000000000000
:103CC40000000000000000000000000000000000F0
:103CD40000000000000000000000000000000000E0
:103CE4003A3130343545303030353136333730348D
:103CF4003730303338303234303038423546464647
:103D040037433346463030323135302A0000000024
:103D1400000000000000000000000000000000009F
:103D2400000000000000000000000000000000008F
:103D3400000000000000000000000000000000007F
:103D4400000000003A313034354630303030323201
:103D540030464646374431464630303231303834C6
:103D64003630313232464646374645464534462A91
:103D7400000000000000000000000000000000003F
:103D8400000000000000000000000000000000002F
:103D9400000000000000000000000000000000001F
:103DA40000000000000000003A313034363030307A
:103DB40030303032323131343631303436303132E1
:103DC400334646463731454646303032313031325B
:103DD4003236302A0000000000000000000000001D
:103DE40000000000000000000000000000000000CF
:103DF40000000000000000000000000000000000BF
:103E04000000000000000000000000003A313034DF
:103E1400363130303030383436464646373733461C
:103E24004646454537303030303030303030303031
:103E3400303030303046462A0000000000000000D8
:103E4400000000000000000000000000000000006E
:103E5400000000000000000000000000000000005E
:103E6400000000000000000000000000000000004E
:103E74003A3038343632303030303130323033301A
:103E840034303630373038303936412A00000000BB
:103E9400000000000000000000000000000000001E
:103EA400000000000000000000000000000000000E
:103EB40000000000000000000000000000000000FE
:103EC40000000000000000000000000000000000EE
:103ED400000000003A30433436323830303043305A
:103EE40030303032303030303030303030303032CA
:103EF400344634303034322A000000000000000020
:103F040000000000000000000000000000000000AD
:103F1400000000000000000000000000000000009D
:103F2400000000000000000000000000000000008D
:103F340000000000000000003A30343030303030EF
:103F440035303830303431393531392A0000000009
:103F5400000000000000000000000000000000005D
:103F6400000000000000000000000000000000004D
:103F7400000000000000000000000000000000003D
:103F8400000000000000000000000000000000002D
:103F94000000000000000000000000003A30303053
:103FA4003030303031464600000000000000000090
:103FB40000000000000000000000000000000000FD
:103FC40000000000000000000000000000000000ED
:103FD40000000000000000000000000000000000DD
:103FE40000000000000000000000000000000000CD
:103FF40000000000000000000000000000000000BD
:10400400B4280020000000000000000000000000B0
:10401400000000000000000000000000000000009C
:10402400000000000000000000000000000000008C
:10403400000000000000000000000000000000007C
:10404400000000000000000000000000000000006C
:10405400000000000000000000000000000000005C
:084064000000000032547698C0
:040000050800019559
:00000001FF
