:020000040800F2
:1000000000000120C5020008CB020008CF02000852
:1000100041030008450300088D03000800000000AC
:10002000000000000000000000000000D5030008F0
:10003000D903000800000000DD030008E103000808
:10004000F1030008F1030008F1030008F1030008C0
:10005000F1030008F1030008FD0700081D0800086F
:10006000F1030008F1030008F1030008F1030008A0
:10007000F1030008F1030008F1030008F103000890
:10008000F1030008F1030008F1030008000000007C
:10009000000000000000000000000000F103000864
:1000A000F1030008F1030008F1030008F103000860
:1000B000F1030008F1030008F1030008F103000850
:1000C000F1030008F1030008F1030008F103000840
:1000D000F1030008C50B0008F10300080000000050
:1000E000F1030008F1030008F1030008000000001C
:1000F000000000000000000000000000F103000804
:1001000000000000F1030008F1030008F1030008FB
:1001100000000000000000000000000000000000DF
:1001200025070008F1030008F1030008F1030008A7
:10013000F1030008000000000000000000000000C3
:10014000000000000000000000000000F1030008B3
:10015000F1030008F1030008F1030008F1030008AF
:10016000F1030008F1030008000000000000000097
:10017000000000000000000000000000000000007F
:1001800000000000F1030008000000000000000073
:10019000F103000800B583B000F0BAF9384B394AD2
:1001A0001360394A1360394900E02146384B9942BF
:1001B0000BD20A684B6801F10C0488689842F4D9A4
:1001C0001168196004330432F8E72E4B1A68314B7A
:1001D0009A4200D0FEE72C4B1A682F4B9A42F9D175
:1001E000274B2E4A13602E4A13602E4B05E0002049
:1001F000106004329342FAD80B462B4A934204D241
:10020000194651F8082B5B68F4E7244B1B6813B9B7
:10021000234B1B6803B1FEE700F086F9694601A88D
:1002200000F022F9214C224BE41AA4100025AC4224
:1002300014DC204C204BE41AA4100025AC4213DC43
:100240000099019800F01CFD05461C4C1C4BE41A5B
:10025000A410002C0EDC284600F0E2F8144B53F8F2
:10026000253098470135E2E7134B53F8253098477E
:100270000135E3E7013C124B53F824309847E8E797
:10028000BABADECA00000020A42A0020F403000845
:100290000C0400087856341232547698A82A0020AC
:1002A000AC2B00200C0400081C0400081C040008EF
:1002B0001C0400081C0400081C0400081C0400089E
:1002C0001C04000808B5FFF765FF00BEFEE71EF03E
:1002D000040F0CBFEFF30880EFF309807146414A29
:1002E00010472DE9F04182B004468846124B5E6B00
:1002F0009F6B9D6A1B6B13F0020F03D00E4BDB6AE2
:10030000002B0CDB0D4800F0B7F8CDF800803B4621
:1003100032462946204600F00BF900BEFEE74BF6B8
:10032000AB6100F07FF90028ECD0034B4FF00042A6
:10033000DA6202B0BDE8F08100ED00E004170008C9
:1003400000BEFEE71EF0040F0CBFEFF30880EFF3D2
:1003500009807146244A10472DE9F04182B00446D5
:100360008846084B5E6B9F6B9D6A074800F084F8D7
:10037000CDF800803B4632462946204600F0D8F8AA
:1003800000BEFEE700ED00E0141700081EF0040FA9
:100390000CBFEFF30880EFF309807146134A104752
:1003A0002DE9F04182B004468846084B5E6B9F6B96
:1003B0009D6A074800F060F8CDF800803B46324661
:1003C0002946204600F0B4F800BEFEE700ED00E04C
:1003D0002017000800BEFEE700BEFEE700BEFEE7F5
:1003E00070470000E302000859030008A103000859
:0403F00000BEFEE766
:1003F4007C17000800000020A82A00207C170008B1
:100404000000001000000010A82A0020B02B0020DB
:080414000000001000000010C0
:10042000FEE7000008B503460C4A12685AB10B4AB1
:100430001068033323F003030344094A934206D8A8
:10044000064A136008BD054A06491160EFE700F04F
:1004500057FC0C2303604FF0FF30F3E7AC2A002079
:1004600000FC0020B02B002001230360014B0B6037
:10047000704700BF040000200FB400B583B004AB88
:1004800053F8042B01938021064800F06BFC0028F0
:1004900003DD0146034800F037F803B05DF804EBD4
:1004A00004B07047B42A00202DE9F04385B004461B
:1004B0000F4643560BB10E461EE004252846214642
:1004C000ABBE0446384605B0BDE8F08314F9011B05
:1004D00004AA1A4402F8101C0133AB42F6D304AA52
:1004E0001344002203F8102C4FF00408E94640465C
:1004F0004946ABBE8046761B002EE3D03546102E13
:1005000028BF10250023E8E708B5FFF7CDFF08BD99
:1005100008B500F097F8024A024B9A6008BD00BF88
:100520000000000800ED00E008B500F0ABF808BDE1
:10053000F8B504460D4617461E462748FFF79CFFB0
:1005400021682648FFF798FF61682548FFF794FF68
:10055000A1682448FFF790FFE1682348FFF78CFF6C
:1005600021692248FFF788FF61692148FFF784FF6E
:10057000A1692048FFF780FFE1691F48FFF77CFF72
:100580001E48FFF779FF29461D48FFF775FF1D4CF0
:10059000E16A1D48FFF770FF216B1C48FFF76CFFF5
:1005A000E16B1B48FFF768FF15F0800F0AD115F4C7
:1005B000004F0CD11748FFF75FFF06991648FFF769
:1005C0005BFFF8BD39461548FFF756FFEFE73146A8
:1005D0001348FFF751FFEDE7E8150008F81500088C
:1005E0000816000818160008281600083816000813
:1005F0004816000858160008681600087816000803
:100600008416000800ED00E094160008A416000807
:10061000B4160008E4160008EC160008C41600081A
:10062000D416000883691A888A4201D000207047D6
:100630000268033A012A03D802338361012070471C
:10064000002070470C4B1A6842F001021A6000212A
:1006500099601A6822F0847222F480321A60074A84
:100660005A601A6822F480221A60D960044B4FF055
:1006700000629A60704700BF0038024010300024CA
:1006800000ED00E0224B9B6803F00C03042B14D018
:10069000082B16D01BB11F4B1F4A1A6002E01D4BDE
:1006A0001D4A1A601A4B9B68C3F303131B4AD15CA3
:1006B000184A1368CB4013607047164B184A1A60EB
:1006C000F0E7134B5A685B6803F03F0312F4800FA6
:1006D00013D0134AB2FBF3F20D4B5B68C3F38813DC
:1006E00003FB02F30A4A5268C2F30142013252008C
:1006F000B3FBF2F3074A1360D4E7074AB2FBF3F205
:10070000034B5B68C3F3881303FB02F3EAE700BF04
:10071000003802400C0000200024F40030170008CC
:1007200040787D0108B5024B1B68984708BD00BFA3
:10073000342B002030B483080A4A023352F8234095
:1007400000F0030080000F25854024EA050442F8EC
:10075000234052F823408140214342F8231030BC0B
:10076000704700BF0038014011B1012908D070471F
:1007700008490B68012202FA00F01843086070472C
:1007800004490B68012202FA00F023EA0000086025
:10079000704700BF003C0140012903D071B102291C
:1007A00018D07047114BD968012202FA00F00143BA
:1007B000D9609A6822EA0000986070470B4B9968EC
:1007C000012202FA00F001439960DA6822EA00008F
:1007D000D8607047054A9168012303FA00F001438D
:1007E0009160D3681843D060704700BF003C01405F
:1007F00008B1014A10607047542B002008B5054B22
:100800001B682BB19847044A536943F001035361B5
:1008100008BD00BF542B0020003C014008B5054B2B
:100820005B682BB19847044A536943F00203536154
:1008300008BD00BF542B0020003C0140034620B9F6
:10084000A1F10D00C0B202280DD9012B07D010B4C0
:10085000012B17D043B1022B22D010BC7047C81E09
:10086000C0B20128F3D87047144B1C68480003211C
:10087000814024EA010119601C6802FA00F1214359
:100880001960EAE70E4B1C6848000321814024EA06
:10089000010119601C6802FA00F121431960DCE7CC
:1008A000084B1868490003248C4020EA04001860B3
:1008B000186802FA01F101431960CEE70000024016
:1008C0000004024000080240034620B9A1F10D00D7
:1008D000C0B202280DD9012B07D010B4012B17D0BC
:1008E00043B1022B22D010BC7047C81EC0B20128F1
:1008F000F3D87047144BDC6848000321814024EA98
:100900000101D960DC6802FA00F12143D960EAE70D
:100910000E4BDC6848000321814024EA0101D960C4
:10092000DC6802FA00F12143D960DCE7084BD868A3
:10093000490003248C4020EA0400D860D86802FAF9
:1009400001F10143D960CEE70000024000040240FB
:1009500000080240034620B9A1F10D00C0B20228F0
:100960000DD9012B07D010B4012B29D043B1022B94
:1009700046D010BC7047C81EC0B20128F3D87047DB
:1009800007290DD82E4C236A89000F20884023EABE
:1009900000032362236A02FA01F119432162E8E7A6
:1009A000274C636AA1F1080080000F21814023EAEF
:1009B00001036362636A02FA00F119436162D8E7D6
:1009C00007290DD81F4C236A89000F20884023EA8D
:1009D00000032362236A02FA01F119432162C8E786
:1009E0001848446AA1F108039B000F21994024EAAA
:1009F00001014162416A02FA03F30B434362B8E723
:100A000007290ED9104B586A083989000F248C40E9
:100A100020EA04005862586A02FA01F1014359625F
:100A2000A7E7094C236A89000F20884023EA0003C6
:100A30002362236A02FA01F11943216299E700BF98
:100A400000000240000402400008024010B44409C3
:100A5000064951F8243000F01F00012202FA00F08C
:100A6000184341F8240010BC704700BF00E100E0CB
:100A7000084A136843F001031360064B1B6813F028
:100A8000020FFAD0034B9A6822F003029A609A6828
:100A90009A60704700380240032822D8DFE800F04F
:100AA000020A121A0F48036C012202FA01F11943DB
:100AB000016470470B48436C012202FA01F11943AB
:100AC000416470470748036B012202FA01F11943A0
:100AD000016370470348436B012202FA01F1194395
:100AE0004163704700380240044B586000229A600E
:100AF0001A6842F001021A60704700BF10E000E07F
:100B0000024B1868C0F30040704700BF10E000E0DF
:100B100010B1012806D07047054A136843F002035C
:100B200013607047024A136823F002031360704792
:100B300010E000E010B504460120FFF7E9FF4FF494
:100B4000FA6000FB04F0FFF7CFFFFFF7D9FF0028A2
:100B5000FBD010BD124B40F283629A60DA686FF3EB
:100B6000CF32DA60DA686FF30C32DA60DA686FF38A
:100B70008A22DA601A6922F480521A611A6922F410
:100B800000521A61DA6842F00802DA60DA6842F06C
:100B90000402DA60DA6842F02002DA60704700BFCF
:100BA00000100140024AD36843F40053D3607047F9
:100BB00000100140024BDA686FF34D32DA60704783
:100BC0000010014008B5024B1B6803B1984708BDEF
:100BD000942B0020002208E006494B60054B1B685F
:100BE00013F0400FFAD00132D2B28356002BF3D16A
:100BF000704700BF0010014008B51B4B00221A705F
:100C000020E0FFF7E7FF184B1B78184A12781849C5
:100C1000642000FB0313985C0028F2D11548FFF70D
:100C2000D9FF154B1A78154B9A4213D00F4A1378F7
:100C3000013313700D4B1B782B2BE4D90A4A137820
:100C400001331370084B1B786B2BD6D8074B00224F
:100C50001A70EFE7FFF7AEFF4FF4FA70FFF76AFF85
:100C6000FFF7A0FFE2E700BFA92B0020A82B002080
:100C70001000002040170008982B0020441700089F
:100C800008B5FFF7F5FE00210220FFF705FF04215C
:100C90000120FFF701FF0620FFF7D8FE00210846DC
:100CA000FFF748FD02210020FFF776FD00210846EE
:100CB000FFF75AFD002211461046FFF7BFFD012243
:100CC00000210846FFF700FE022209210020FFF75D
:100CD000B5FD02220A210020FFF7B0FD07220921FD
:100CE0000020FFF737FE07220A210020FFF732FE1F
:100CF000FFF730FF0148FFF77BFDFEE7F90B000827
:100D0000014B1868704700BF402A002030B5141E00
:100D100005469BB0184605DA8B232B604FF0FF3059
:100D20001BB030BD4FF40273ADF80C3014BF04F1AA
:100D3000FF332346029305934FF6FF73009104910E
:100D4000ADF80E3002461E9B6946284600F072F848
:100D5000431CBCBF8B232B60002CE1D0009B0022E6
:100D60001A70DDE707B5009313460A4601460348AB
:100D70000068FFF7CBFF03B05DF804FB402A0020BA
:100D80002DE9F0478E689E4282460C469046994671
:100D900037D88A8912F4906F31D0256809696F1AA3
:100DA0006569022305EB450595FBF3F509F10103A0
:100DB0003B449D4238BF1D46530530D5294600F0BF
:100DC00079FB064650B90C23CAF80030A38943F0DA
:100DD0004003A3814FF0FF30BDE8F0873A46216918
:100DE00000F0F6FAA38923F4906343F08003A38113
:100DF000266165613E44ED1B2660A5604E464E456A
:100E000000D94E4632464146206800F0ECFAA3680D
:100E10009B1BA36023681E4426600020DCE72A4653
:100E200000F0A2FB06460028E2D12169504600F0FE
:100E3000F3FAC8E72DE9F04F9DB0804603938B8904
:100E40001D060C4616460FD50B696BB9402100F004
:100E500031FB2060206128B90C23C8F800304FF026
:100E6000FF30C7E0402363610023099320238DF8FE
:100E7000293030238DF82A304FF0010B37463D469C
:100E800015F8013B0BB1252B3ED1B7EB060A0BD071
:100E90005346324621464046FFF772FF013000F0CC
:100EA000A480099B534409933B78002B00F09D805C
:100EB00000234FF0FF32CDE90523049307938DF80B
:100EC00053301A932F46052217F8011B4F4800F0A4
:100ED0002FFA049BD0B9D90644BF20228DF85320A5
:100EE0001A0744BF2B228DF853202A782A2A15D0BE
:100EF000079A2F4600200A25394611F8013B303B5E
:100F0000092B4DD9B8B10FE02F46B8E73F4A801AF8
:100F10000BFA00F0184304903D46D3E7039A111DE5
:100F200012680391002A01DB079204E0524243F069
:100F30000203079204933B782E2B0CD17B782A2B4B
:100F400033D1039B1A1D1B680392002BB8BF4FF0CF
:100F5000FF33023705932E4D39780322284600F0DF
:100F6000E7F938B14023401B03FA00F0049B034328
:100F700001370493397827488DF8281006227E1C03
:100F800000F0D6F9002838D0234B13BB039B07335E
:100F900023F0070308330393099B4B4409936DE740
:100FA00005FB023201200F46A6E700230137059317
:100FB00019460A25384610F8012B303A092A03D978
:100FC000002BC8D00591C6E705FB01210123074688
:100FD000F0E703AB00932246104B04A94046AFF361
:100FE0000080B0F1FF3F8146D6D1A3895B063FF573
:100FF00036AF09981DB0BDE8F08F03AB00932246D1
:10100000064B04A9404600F081F8EAE748170008BB
:101010004E1700085217000800000000810D00085C
:101020002DE9F04791461F468A680B69DDF820805C
:101030009342B8BF1346C9F8003091F843200646E2
:101040000C4612B10133C9F800302368990642BF3B
:10105000D9F800300233C9F80030256815F00605CC
:1010600007D104F1190AE368D9F800209B1AAB42B2
:1010700028DC94F843302268003318BF012392061D
:101080002DD404F1430239463046C047013020D008
:101090002368E568D9F8002003F00603042B08BF95
:1010A000AD1AA36822690CBF25EAE57500259342B5
:1010B000C4BF9B1AED184FF000091A344D451AD1E0
:1010C000002008E00123524639463046C04701302F
:1010D00003D14FF0FF30BDE8F0870135C3E7E118D9
:1010E0005A1C302081F84300224494F8451082F8BD
:1010F00043100233C5E70123224639463046C04734
:101100000130E6D009F10109D8E700002DE9F043EC
:1011100001F1430C0C46097E85B06E291746064640
:1011200098460C9A00F0B38022D8632936D00AD8AA
:10113000002900F0B980582900F0838004F14205AD
:1011400084F8421032E0642901D06929F6D1206880
:101150001368050603F104012AD51B681160002BF2
:1011600003DA2D225B4284F843206F480A2239E0DB
:10117000732900F09D8008D86F2920D07029DDD117
:10118000236843F02003236003E0752917D07829F2
:10119000D4D1782384F84530644855E01368191D8C
:1011A0001B68116004F1420584F8423001238CE091
:1011B0001B68116010F0400F18BF1BB2CFE7136817
:1011C0002568181D1060280601D51B6802E0680616
:1011D000FBD51B8854486F2914BF0A22082200211E
:1011E00084F843106568A560002DC0F295802168E1
:1011F00021F004012160002B3DD1002D40F08E80B4
:101200006546082A0BD12368DB0708D52369626885
:101210009A42DEBF302305F8013C05F1FF35ACEB07
:1012200005032361CDF800803B4603AA21463046E2
:10123000FFF7F6FE01304DD14FF0FF3005B0BDE8AD
:10124000F083394884F84510136821681D1D1B6818
:1012500015600A060BD5CA0744BF41F02001216082
:101260001BB9226822F0200222601022B7E74D0647
:1012700048BF9BB2EFE76546B3FBF2F102FB1133C7
:10128000C35C05F8013D0B460029F5D1B9E71368A9
:1012900025686169181D106028061B6801D5196052
:1012A00002E06A06FBD51980002323616546B9E791
:1012B0001368191D11601D6862680021284600F03E
:1012C00037F808B1401B606063682361002384F82D
:1012D0004330A7E723692A4639463046C0470130E4
:1012E000AAD023689B0713D4E068039B9842B8BF39
:1012F0001846A3E701234A4639463046C047013025
:101300009AD00135E368039A9B1AAB42F2DCEBE713
:10131000002504F11909F5E7002BACD1037884F816
:10132000423004F142056CE7591700086A170008BB
:1013300001F0FF01102A2BDB10F0070F08D010F886
:10134000013B013A8B422DD010F0070F42B3F6D18A
:10135000F0B441EA012141EA014122F007047FF0A3
:1013600000070023F0E80256083C85EA010586EAFA
:10137000010685FA47F5A3FA87F586FA47F6A5FA36
:1013800087F68EB9EED1F0BC01F0FF0102F0070242
:1013900032B110F8013B013A83EA010313B1F8D1ED
:1013A0000020704701387047002D06BF35460338CE
:1013B000073815F0010F07D1013015F4807F02BF07
:1013C000013015F4C03F0130F0BC0138704700BF58
:1013D00010B5431E0A44914200D110BD11F8014BD3
:1013E00003F8014FF7E7884210B501EB020307D875
:1013F000421E99420AD011F8014B02F8014FF8E75A
:101400008342F5D98118D21AD34200D110BD13F806
:10141000014D01F8014DF7E738B50546002945D0E3
:1014200051F8043C0C1F002BB8BFE41800F0D2F8B0
:101430001F4A1368104633B9636014602846BDE83C
:10144000384000F0C8B8A3420CD921686218934212
:1014500004BF1A685B68636004BF521822600460AE
:10146000ECE713465A680AB1A242FAD9196858182B
:10147000A0420BD120680144581882421960DDD186
:10148000106852685A6001441960D7E702D90C23EA
:101490002B60D3E7206821188A4204BF1168526884
:1014A000626004BF091821605C60C7E738BD00BFF7
:1014B0009C2B002070B5CD1C25F0030508350C2DA4
:1014C00038BF0C25002D064601DBA94203D90C23A9
:1014D0003360002070BD00F07DF8214A1468214679
:1014E00091B9204C23681BB9304600F063F82060A6
:1014F0002946304600F05EF8431C24D10C233360AB
:10150000304600F068F8E4E70B685B1B18D40B2B3F
:101510000FD90B60CD50CC18304600F05CF804F1C8
:101520000B00231D20F00700C31AD3D05A42E2500B
:10153000D0E78C424B6816BF636013600C46EBE744
:101540000C464968CCE7C41C24F00304A04205D033
:10155000211A304600F02EF80130CFD02560DBE7AD
:101560009C2B0020A02B0020F8B5074614460E4601
:1015700021B91146BDE8F840FFF79CBF22B9FFF73B
:101580004BFF25462846F8BD00F026F8A0420FD2B2
:1015900021463846FFF78EFF05460028F2D0314637
:1015A0002246FFF715FF31463846FFF735FFE9E7DA
:1015B0003546E7E738B5064C002305460846236064
:1015C000FEF730FF431C02D1236803B12B6038BD06
:1015D000A42B00207047704751F8043C181F002BC3
:1015E000BCBF0B58C0187047537461636B206672A0
:1015F000616D653A0A000000205230203D20202510
:101600003038580A00000000205231203D202025AB
:101610003038580A00000000205232203D2020259A
:101620003038580A00000000205233203D20202589
:101630003038580A0000000020523132203D202569
:101640003038580A00000000204C52203D20202550
:101650003038580A00000000205043203D2020254B
:101660003038580A0000000020505352203D2025F9
:101670003038580A000000004653522F4641523A73
:101680000A0000002043465352203D2020253038D8
:10169000580A00002048465352203D20202530386B
:1016A000580A00002044465352203D20202530385F
:1016B000580A00002041465352203D202025303852
:1016C000580A0000204D4D464152203D202530381B
:1016D000580A00002042464152203D202025303843
:1016E000580A00004D6973630A000000204C522F15
:1016F0004558435F52455455524E3D202530385889
:101700000A0000005B486172644661756C745D0A92
:10171000000000005B4275734661756C745D0A00E1
:101720005B55736167654661756C745D0A00000006
:101730000000000000000000010203040607080981
:10174000454E44004F4B0000232D302B2000686C89
:101750004C006566674546470030313233343536D4
:10176000373839414243444546003031323334350D
:0B17700036373839616263646566003B
:10177C0078563412B02A0020000000000024F40037
:10178C003A3130303030303030303030303031323F
:10179C00303631303230303038363530323030301F
:1017AC0038363730323030303838342020000000B2
:1017BC00000000000000000000000000000000001D
:1017CC00000000000000000000000000000000000D
:1017DC0000000000000000000000000000000000FD
:1017EC00000000003A313030303130303037443086
:1017FC00323030303837463032303030383935309E
:10180C0032303030383030303030303030333120CE
:10181C00200000000000000000000000000000009C
:10182C0000000000000000000000000000000000AC
:10183C00000000000000000000000000000000009C
:10184C0000000000000000003A31303030323030FF
:10185C00303030303030303030303030303030307C
:10186C003030303030303030304142303230303047
:10187C003831422020000000000000000000000071
:10188C00000000000000000000000000000000004C
:10189C00000000000000000000000000000000003C
:1018AC000000000000000000000000003A31303061
:1018BC0030333030304144303230303038303030EA
:1018CC0030303030304146303230303038423130C8
:1018DC003230303038393520200000000000000054
:1018EC0000000000000000000000000000000000EC
:1018FC0000000000000000000000000000000000DC
:10190C0000000000000000000000000000000000CB
:10191C003A31303030343030304335303230303092
:10192C003843353032303030384335303230303067
:10193C003843353032303030383734202000000016
:10194C00000000000000000000000000000000008B
:10195C00000000000000000000000000000000007B
:10196C00000000000000000000000000000000006B
:10197C00000000003A3130303035303030433530F3
:10198C003230303038433530323030303830393016
:10199C00343030303832393034303030384238200E
:1019AC00200000000000000000000000000000000B
:1019BC00000000000000000000000000000000001B
:1019CC00000000000000000000000000000000000B
:1019DC0000000000000000003A313030303630306A
:1019EC0030433530323030303843353032303030AF
:1019FC003843353032303030384335303230303097
:101A0C0038353420200000000000000000000000E9
:101A1C0000000000000000000000000000000000BA
:101A2C0000000000000000000000000000000000AA
:101A3C000000000000000000000000003A313030CF
:101A4C003037303030433530323030303843353049
:101A5C003230303038433530323030303843353036
:101A6C0032303030383434202000000000000000C8
:101A7C00000000000000000000000000000000005A
:101A8C00000000000000000000000000000000004A
:101A9C00000000000000000000000000000000003A
:101AAC003A313030303830303043353032303030FD
:101ABC0038433530323030303843353032303030D6
:101ACC0038303030303030303030332020000000AF
:101ADC0000000000000000000000000000000000FA
:101AEC0000000000000000000000000000000000EA
:101AFC0000000000000000000000000000000000DA
:101B0C00000000003A313030303930303030303075
:101B1C0030303030303030303030303030303030B9
:101B2C00303030303043353032303030383931208D
:101B3C002000000000000000000000000000000079
:101B4C000000000000000000000000000000000089
:101B5C000000000000000000000000000000000079
:101B6C0000000000000000003A31303030413030CD
:101B7C00304335303230303038433530323030301D
:101B8C003843353032303030384335303230303005
:101B9C00383134202000000000000000000000005C
:101BAC000000000000000000000000000000000029
:101BBC000000000000000000000000000000000019
:101BCC000000000000000000000000003A3130303E
:101BDC0030423030304335303230303038433530AD
:101BEC0032303030384335303230303038433530A5
:101BFC00323030303830342020000000000000003B
:101C0C0000000000000000000000000000000000C8
:101C1C0000000000000000000000000000000000B8
:101C2C0000000000000000000000000000000000A8
:101C3C003A31303030433030304335303230303060
:101C4C003843353032303030384335303230303044
:101C5C0038433530323030303846342020000000E4
:101C6C000000000000000000000000000000000068
:101C7C000000000000000000000000000000000058
:101C8C000000000000000000000000000000000048
:101C9C00000000003A3130303044303030433530C1
:101CAC0032303030383335303630303038433530F0
:101CBC003230303038303030303030303033462005
:101CCC0020000000000000000000000000000000E8
:101CDC0000000000000000000000000000000000F8
:101CEC0000000000000000000000000000000000E8
:101CFC0000000000000000003A3130303045303038
:101D0C00304335303230303038433530323030308B
:101D1C00384335303230303038303030303030308D
:101D2C0030413320200000000000000000000000C3
:101D3C000000000000000000000000000000000097
:101D4C000000000000000000000000000000000087
:101D5C000000000000000000000000003A313030AC
:101D6C003046303030303030303030303030303051
:101D7C00303030303030303030303030304335303F
:101D8C0032303030383331202000000000000000A9
:101D9C000000000000000000000000000000000037
:101DAC000000000000000000000000000000000027
:101DBC000000000000000000000000000000000017
:101DCC003A313030313030303030303030303030FB
:101DDC0030433530323030303843353032303030BB
:101DEC003843353032303030383832202000000063
:101DFC0000000000000000000000000000000000D7
:101E0C0000000000000000000000000000000000C6
:101E1C0000000000000000000000000000000000B6
:101E2C00000000003A313030313130303030303059
:101E3C003030303030303030303030303030303096
:101E4C00303030303030303030303030304446206C
:101E5C002000000000000000000000000000000056
:101E6C000000000000000000000000000000000066
:101E7C000000000000000000000000000000000056
:101E8C0000000000000000003A31303031323030B8
:101E9C0030464430333030303843353032303030E7
:101EAC0038433530323030303843353032303030E2
:101EBC003835412020000000000000000000000028
:101ECC000000000000000000000000000000000006
:101EDC0000000000000000000000000000000000F6
:101EEC000000000000000000000000003A3130301B
:101EFC0031333030304335303230303038303030B0
:101F0C0030303030303030303030303030303030C5
:101F1C00303030303046302020000000000000000F
:101F2C0000000000000000000000000000000000A5
:101F3C000000000000000000000000000000000095
:101F4C000000000000000000000000000000000085
:101F5C003A31303031343030303030303030303065
:101F6C003030303030303030303030303030303065
:101F7C0030433530323030303845302020000000CE
:101F8C000000000000000000000000000000000045
:101F9C000000000000000000000000000000000035
:101FAC000000000000000000000000000000000025
:101FBC00000000003A3130303135303030433530AC
:101FCC0032303030384335303230303038433530C1
:101FDC0032303030384335303230303038363320D0
:101FEC0020000000000000000000000000000000C5
:101FFC0000000000000000000000000000000000D5
:10200C0000000000000000000000000000000000C4
:10201C0000000000000000003A3130303136303022
:10202C003043353032303030384335303230303068
:10203C00383030303030303030303030303030308C
:10204C00304631202000000000000000000000009D
:10205C000000000000000000000000000000000074
:10206C000000000000000000000000000000000064
:10207C000000000000000000000000003A31303089
:10208C00313730303030303030303030303030303C
:10209C003030303030303030303030303030303034
:1020AC003030303030374620200000000000000077
:1020BC000000000000000000000000000000000014
:1020CC000000000000000000000000000000000004
:1020DC0000000000000000000000000000000000F4
:1020EC003A313030313830303030303030303030D0
:1020FC0030433530323030303830303030303030B2
:10210C003030303030303030304130202000000062
:10211C0000000000000000000000000000000000B3
:10212C0000000000000000000000000000000000A3
:10213C000000000000000000000000000000000093
:10214C00000000003A313030313930303043353016
:10215C003230303038303742353030463042374606
:10216C003832373442323734383833343238462008
:10217C002000000000000000000000000000000033
:10218C000000000000000000000000000000000043
:10219C000000000000000000000000000000000033
:1021AC0000000000000000003A3130303141303086
:1021BC0030323644333237344232373439303032BD
:1021CC003038423432324444333030463042384670
:1021DC0038453720200000000000000000000000FF
:1021EC0000000000000000000000000000000000E3
:1021FC0000000000000000000000000000000000D3
:10220C000000000000000000000000003A313030F7
:10221C00314230303032353445323634433031414E
:10222C003936383436303046303945463841343119
:10223C0042413431303039202000000000000000D1
:10224C000000000000000000000000000000000082
:10225C000000000000000000000000000000000072
:10226C000000000000000000000000000000000062
:10227C003A31303031433030303030323541433404
:10228C0032323944433232344532323443413431C0
:10229C0042413431303030323541312020000000A1
:1022AC000000000000000000000000000000000022
:1022BC000000000000000000000000000000000012
:1022CC000000000000000000000000000000000002
:1022DC00000000003A31303031443030304143346A
:1022EC003232374443444445393030303130304653
:1022FC00303334464131453444314634433733204E
:10230C0020000000000000000000000000000000A1
:10231C0000000000000000000000000000000000B1
:10232C0000000000000000000000000000000000A1
:10233C0000000000000000003A31303031453030F0
:10234C00303634314230363436413431303030323C
:10235C0043323144433330343630304630383046F3
:10236C003838392020000000000000000000000078
:10237C000000000000000000000000000000000051
:10238C000000000000000000000000000000000041
:10239C000000000000000000000000003A31303066
:1023AC0031463030304433453930303132304333BC
:1023BC003335334638303434433839314139343499
:1023CC003243454439333720200000000000000020
:1023DC0000000000000000000000000000000000F1
:1023EC0000000000000000000000000000000000E1
:1023FC0000000000000000000000000000000000D1
:10240C003A31303032303030303535353831353690
:10241C00303034333246394537353346383038323C
:10242C0042353346383034344339442020000000E0
:10243C000000000000000000000000000000000090
:10244C000000000000000000000000000000000080
:10245C000000000000000000000000000000000070
:10246C00000000003A313030323130303039343401
:10247C0032433944393130363030343332464145C9
:10248C0037353646383235333039383437354420E1
:10249C002000000000000000000000000000000010
:1024AC000000000000000000000000000000000020
:1024BC000000000000000000000000000000000010
:1024CC0000000000000000003A3130303232303071
:1024DC003030313335434545373536463832353370
:1024EC003039383437303133354430453730313387
:1024FC0043333720200000000000000000000000E3
:10250C0000000000000000000000000000000000BF
:10251C0000000000000000000000000000000000AF
:10252C000000000000000000000000003A313030D4
:10253C003233303030353546383234333039383444
:10254C003744364537433830323030303845303008
:10255C0032303030384335202000000000000000BD
:10256C00000000000000000000000000000000005F
:10257C00000000000000000000000000000000004F
:10258C00000000000000000000000000000000003F
:10259C003A31303032343030304530303230303007
:1025AC0038463030323030303846303032303030DF
:1025BC00384630303230303038443620200000007D
:1025CC0000000000000000000000000000000000FF
:1025DC0000000000000000000000000000000000EF
:1025EC0000000000000000000000000000000000DF
:1025FC00000000003A313030323530303046303067
:10260C00323030303846303032303030384630307E
:10261C00323030303846303032303030384236207C
:10262C00200000000000000000000000000000007E
:10263C00000000000000000000000000000000008E
:10264C00000000000000000000000000000000007E
:10265C0000000000000000003A31303032363030DB
:10266C0030313434383030343746454537314546CF
:10267C0030303430463043424645464633303838A5
:10268C00304230202000000000000000000000005C
:10269C00000000000000000000000000000000002E
:1026AC00000000000000000000000000000000001E
:1026BC000000000000000000000000003A31303043
:1026CC003237303030454646333039383037313494
:1026DC00363130344131303437464545374645453F
:1026EC003731454630443320200000000000000004
:1026FC0000000000000000000000000000000000CE
:10270C0000000000000000000000000000000000BD
:10271C0000000000000000000000000000000000AD
:10272C003A31303032383030303034304630434249
:10273C0046454646333038383045464633303938CE
:10274C0030373134363042344141462020000000CD
:10275C00000000000000000000000000000000006D
:10276C00000000000000000000000000000000005D
:10277C00000000000000000000000000000000004D
:10278C00000000003A3130303239303030313034E2
:10279C003746454537314546303034304630434274
:1027AC004645464633303838304546463345412059
:1027BC0020000000000000000000000000000000ED
:1027CC0000000000000000000000000000000000FD
:1027DC0000000000000000000000000000000000ED
:1027EC0000000000000000003A313030324130303F
:1027FC00303039383037313436303634413130348A
:10280C0037464545374645453746454537464545A0
:10281C0037443320200000000000000000000000BE
:10282C00000000000000000000000000000000009C
:10283C00000000000000000000000000000000008C
:10284C000000000000000000000000003A313030B1
:10285C003242303030373034373030303039353038
:10286C003130303038374230323030303839333024
:10287C003230303038433720200000000000000098
:10288C00000000000000000000000000000000003C
:10289C00000000000000000000000000000000002C
:1028AC00000000000000000000000000000000001C
:1028BC003A303630324330303041393032303030CB
:1028CC00384645453741302020202020202020202C
:1028DC00202020202020202020202020200000004C
:1028EC0000000000000000000000000000000000DC
:1028FC0000000000000000000000000000000000CC
:10290C0000000000000000000000000000000000BB
:10291C00000000003A313030324338303038343037
:10292C003630303038303030303030323030433078
:10293C003030303230383430363030303842362067
:10294C00200000000000000000000000000000005B
:10295C00000000000000000000000000000000006B
:10296C00000000000000000000000000000000005B
:10297C0000000000000000003A31303032443830A2
:10298C003030303030303031303030303030303139
:10299C003030433030303032303734303030303209
:1029AC003033362020000000000000000000000042
:1029BC00000000000000000000000000000000000B
:1029CC0000000000000000000000000000000000FB
:1029DC000000000000000000000000003A30383019
:1029EC0032453830303030303030303130303030BB
:1029FC003030303130454520202020202020202030
:102A0C00202020202020202020000000000000009A
:102A1C0000000000000000000000000000000000AA
:102A2C00000000000000000000000000000000009A
:102A3C00000000000000000000000000000000008A
:102A4C003A31303032463030303038423530304622
:102A5C003031374638303030303031323330333635
:102A6C0030303134423042363030342020000000D7
:102A7C00000000000000000000000000000000004A
:102A8C00000000000000000000000000000000003A
:102A9C00000000000000000000000000000000002A
:102AAC00000000003A3130303330303030373034C1
:102ABC0037303042463030303030303230303842BF
:102ACC003530304630314446383032344234382098
:102ADC0020000000000000000000000000000000CA
:102AEC0000000000000000000000000000000000DA
:102AFC0000000000000000000000000000000000CA
:102B0C0000000000000000003A313030333130302A
:102B1C003030323441394136303038424430304232
:102B2C004630304544303045303030303030303045
:102B3C003833452020000000000000000000000099
:102B4C000000000000000000000000000000000079
:102B5C000000000000000000000000000000000069
:102B6C000000000000000000000000003A3130308E
:102B7C0033323030303030463033324238424646D1
:102B8C0033344638463035343930363442434136A6
:102B9C003830324634394320200000000000000059
:102BAC000000000000000000000000000000000019
:102BBC000000000000000000000000000000000009
:102BCC0000000000000000000000000000000000F9
:102BDC003A313030333330303045303632313334B3
:102BEC003343423630424646333446384630304220
:102BFC0046464445373030424630382020000000ED
:102C0C0000000000000000000000000000000000B8
:102C1C0000000000000000000000000000000000A8
:102C2C000000000000000000000000000000000098
:102C3C00000000003A313030333430303030304521
:102C4C004430304530303430304641303530433408
:102C5C004231413638303032313432463042312014
:102C6C002000000000000000000000000000000038
:102C7C000000000000000000000000000000000048
:102C8C000000000000000000000000000000000038
:102C9C0000000000000000003A3130303335303095
:102CAC0030303130323141363039393630314136CD
:102CBC0038323246303834373232324634383033A8
:102CCC00324435202000000000000000000000000D
:102CDC0000000000000000000000000000000000E8
:102CEC0000000000000000000000000000000000D8
:102CFC000000000000000000000000003A313030FD
:102D0C00333630303031413630303734413541365E
:102D1C003031413638323246343830323231413645
:102D2C0030443936303142202000000000000000D1
:102D3C000000000000000000000000000000000087
:102D4C000000000000000000000000000000000077
:102D5C000000000000000000000000000000000067
:102D6C003A313030333730303030343442344646F8
:102D7C0030303036323941363037303437303042FB
:102D8C0046303033383032343041332020000000AC
:102D9C000000000000000000000000000000000027
:102DAC000000000000000000000000000000000017
:102DBC000000000000000000000000000000000007
:102DCC00000000003A31303033383030303130339D
:102DDC003030303234303045443030453031373497
:102DEC004131383439393336383033463038432072
:102DFC0020000000000000000000000000000000A7
:102E0C0000000000000000000000000000000000B6
:102E1C0000000000000000000000000000000000A6
:102E2C0000000000000000003A31303033393030FF
:102E3C003030433033303432423130423530444418
:102E4C0030303832423044443031343442304236FF
:102E5C003041332020000000000000000000000082
:102E6C000000000000000000000000000000000056
:102E7C000000000000000000000000000000000046
:102E8C000000000000000000000000003A3130306B
:102E9C0033413030303131344231343441394236BF
:102EAC003843334633303331334432354330423692
:102EBC003844333430313020200000000000000052
:102ECC0000000000000000000000000000000000F6
:102EDC0000000000000000000000000000000000E6
:102EEC0000000000000000000000000000000000D6
:102EFC003A3130303342303030304236303130427B
:102F0C004431303442463245373534363835303634
:102F1C003835323638363330323345202000000015
:102F2C000000000000000000000000000000000095
:102F3C000000000000000000000000000000000085
:102F4C000000000000000000000000000000000075
:102F5C00000000003A3130303343303030433246D9
:102F6C0033383831323030463033463030344342E7
:102F7C0046304234423038344242334642344420A4
:102F8C002000000000000000000000000000000015
:102F9C000000000000000000000000000000000025
:102FAC000000000000000000000000000000000015
:102FBC0000000000000000003A3130303344303063
:102FCC003046304633353334333034344135323691
:102FDC00384332463330313432303133323532309B
:102FEC0030314620200000000000000000000000EE
:102FFC0000000000000000000000000000000000C5
:10300C0000000000000000000000000000000000B4
:10301C000000000000000000000000003A313030D9
:10302C0033453030304233464246324633444245D3
:10303C00373030424630303338303234303038303C
:10304C0030303032303537202000000000000000D6
:10305C000000000000000000000000000000000064
:10306C000000000000000000000000000000000054
:10307C000000000000000000000000000000000044
:10308C003A313030334630303030303234463430F0
:10309C0030373430363030303834303738374430DD
:1030AC003130313442314236383545202000000071
:1030BC000000000000000000000000000000000004
:1030CC0000000000000000000000000000000000F4
:1030DC0000000000000000000000000000000000E4
:1030EC00000000003A313030343030303031383478
:1030FC003730304246313030303030323030384278
:10310C003530353442314236383242423133322056
:10311C002000000000000000000000000000000083
:10312C000000000000000000000000000000000093
:10313C000000000000000000000000000000000083
:10314C0000000000000000003A31303034313030E3
:10315C0030393834373034344135333639343346FA
:10316C003030313033353336313038424430304200
:10317C004638342020000000000000000000000051
:10318C000000000000000000000000000000000033
:10319C000000000000000000000000000000000023
:1031AC000000000000000000000000003A31303048
:1031BC0034323030303330303030303230303033F5
:1031CC004330313430303842353035344235423684
:1031DC00383242423135332020000000000000001C
:1031EC0000000000000000000000000000000000D3
:1031FC0000000000000000000000000000000000C3
:10320C0000000000000000000000000000000000B2
:10321C003A3130303433303030393834373034346C
:10322C00413533363934334630303230333533363A
:10323C0031303842443030424636332020000000D2
:10324C000000000000000000000000000000000072
:10325C000000000000000000000000000000000062
:10326C000000000000000000000000000000000052
:10327C00000000003A3130303434303030333030EC
:10328C003030303230303033433031343031304202
:10329C0035323042394131463130443033394620B1
:1032AC0020000000000000000000000000000000F2
:1032BC000000000000000000000000000000000002
:1032CC0000000000000000000000000000000000F2
:1032DC0000000000000000003A313030343530304E
:1032EC003030323242304244383130424430313264
:1032FC00383034443143423145303132424639441E
:10330C0039444120200000000000000000000000B3
:10331C0000000000000000000000000000000000A1
:10332C000000000000000000000000000000000091
:10333C000000000000000000000000003A313030B6
:10334C00343630303030393442303445303032322B
:10335C0038463544313038344230304530303834EA
:10336C00423138363835452020000000000000007E
:10337C000000000000000000000000000000000041
:10338C000000000000000000000000000000000031
:10339C000000000000000000000000000000000021
:1033AC003A313030343730303034393030303332E9
:1033BC0034384334303230454130343030313836A3
:1033CC003031383638303246413345202000000049
:1033DC0000000000000000000000000000000000E1
:1033EC0000000000000000000000000000000000D1
:1033FC0000000000000000000000000000000000C1
:10340C00000000003A313030343830303030314642
:10341C003130313433313936304535453730303051
:10342C003430323430303030383032343036312081
:10343C002000000000000000000000000000000060
:10344C000000000000000000000000000000000070
:10345C000000000000000000000000000000000060
:10346C0000000000000000003A31303034393030B8
:10347C00303030303030323430333042353230420C
:10348C0039413146313044303030323238333444C3
:10349C003838372020000000000000000000000039
:1034AC000000000000000000000000000000000010
:1034BC000000000000000000000000000000000000
:1034CC000000000000000000000000003A31303025
:1034DC003441303030333042443031323831394479
:1034EC003143433145303132434639443932333438
:1034FC0043363536383237202000000000000000FB
:10350C0000000000000000000000000000000000AF
:10351C00000000000000000000000000000000009F
:10352C00000000000000000000000000000000008F
:10353C003A3130303442303030383834303235452E
:10354C004130303030363036303630363838413421
:10355C0030303234333632363030432020000000E5
:10356C00000000000000000000000000000000004F
:10357C00000000000000000000000000000000003F
:10358C00000000000000000000000000000000002F
:10359C00000000003A3130303443303030413036A6
:1035AC0038344130303033323139313430323045C7
:1035BC0041303130314131363041303638443020B1
:1035CC0020000000000000000000000000000000CF
:1035DC0000000000000000000000000000000000DF
:1035EC0000000000000000000000000000000000CF
:1035FC0000000000000000003A313030344430301C
:10360C00303033464130324631303134334131364B
:10361C003045324537303232384530443131383428
:10362C00384533202000000000000000000000009E
:10363C00000000000000000000000000000000007E
:10364C00000000000000000000000000000000006E
:10365C000000000000000000000000003A31303093
:10366C0034453030303031323534343638384434F7
:10367C0030323445413035303434343630343436ED
:10368C003838413430334320200000000000000063
:10369C00000000000000000000000000000000001E
:1036AC00000000000000000000000000000000000E
:1036BC0000000000000000000000000000000000FE
:1036CC003A313030344630303032323433343236B2
:1036DC003038323638343930303033323438433491
:1036EC003032324541303430324244202000000028
:1036FC0000000000000000000000000000000000BE
:10370C0000000000000000000000000000000000AD
:10371C00000000000000000000000000000000009D
:10372C00000000003A31303035303030303832362D
:10373C003038323638303346413031463131344509
:10374C003030453438303132353434363831342039
:10375C00200000000000000000000000000000003D
:10376C00000000000000000000000000000000004D
:10377C00000000000000000000000000000000003D
:10378C0000000000000000003A313030353130309C
:10379C0030384434303234454130353034343436BA
:1037AC0030343436383841343032323433343236C3
:1037BC003044362020000000000000000000000013
:1037CC0000000000000000000000000000000000ED
:1037DC0000000000000000000000000000000000DD
:1037EC000000000000000000000000003A31303002
:1037FC003532303030383236383443303030333282
:10380C003141313430323245413031303238323658
:10381C0030383236384235202000000000000000DD
:10382C00000000000000000000000000000000008C
:10383C00000000000000000000000000000000007C
:10384C00000000000000000000000000000000006C
:10385C003A31303035333030303033464130344605
:10386C0031313134333831363042324537303042F1
:10387C0046303030343032343046362020000000B0
:10388C00000000000000000000000000000000002C
:10389C00000000000000000000000000000000001C
:1038AC00000000000000000000000000000000000C
:1038BC00000000003A3130303534303030303030A8
:1038CC0038303234303030303030323430313042C5
:1038DC003532304239413146313044303344462060
:1038EC0020000000000000000000000000000000AC
:1038FC0000000000000000000000000000000000BC
:10390C0000000000000000000000000000000000AB
:10391C0000000000000000003A3130303535303006
:10392C003030323242304644383130424430313219
:10393C0038303644314342314530313242463944D5
:10394C00394433202000000000000000000000007B
:10395C00000000000000000000000000000000005B
:10396C00000000000000000000000000000000004B
:10397C000000000000000000000000003A31303070
:10398C0035363030303031324131394431313334E5
:10399C0042303845303032323846334431303132AF
:1039AC004131444431323920200000000000000035
:1039BC0000000000000000000000000000000000FB
:1039CC0000000000000000000000000000000000EB
:1039DC0000000000000000000000000000000000DB
:1039EC003A31303035373030303131344230324585
:1039FC003030313241303544313130344235383663
:103A0C003938413430303234333131202000000029
:103A1C00000000000000000000000000000000009A
:103A2C00000000000000000000000000000000008A
:103A3C00000000000000000000000000000000007A
:103A4C00000000003A3130303538303030354136F6
:103A5C0031453745373030324145354431304334C8
:103A6C003834333639303132323841343031352014
:103A7C00200000000000000000000000000000001A
:103A8C00000000000000000000000000000000002A
:103A9C00000000000000000000000000000000001A
:103AAC0000000000000000003A3130303539303071
:103ABC003032334541303230323432363144444581
:103ACC00373030324144424431303534433633366A
:103ADC0039463020200000000000000000000000EB
:103AEC0000000000000000000000000000000000CA
:103AFC0000000000000000000000000000000000BA
:103B0C000000000000000000000000003A313030DE
:103B1C003541303030303046413031463232334529
:103B2C004130323032363236314433453730303230
:103B3C0041443144313034202000000000000000AA
:103B4C000000000000000000000000000000000069
:103B5C000000000000000000000000000000000059
:103B6C000000000000000000000000000000000049
:103B7C003A313030354230303030313438454145CF
:103B8C00373030303430323430303030383032340A
:103B9C0030303030303032343034462020000000A9
:103BAC000000000000000000000000000000000009
:103BBC0000000000000000000000000000000000F9
:103BCC0000000000000000000000000000000000E9
:103BDC00000000003A31303035433030303037346B
:103BEC004231413638343246303031303231413660
:103BFC003031413638393230374643443542432030
:103C0C002000000000000000000000000000000088
:103C1C000000000000000000000000000000000098
:103C2C000000000000000000000000000000000088
:103C3C0000000000000000003A31303035443030D4
:103C4C003039413638323246303033303239413601
:103C5C0030394136383941363037303437303042EC
:103C6C004639362020000000000000000000000053
:103C7C000000000000000000000000000000000038
:103C8C000000000000000000000000000000000028
:103C9C000000000000000000000000003A3130304D
:103CAC0035453030303030333830323430303332D8
:103CBC003832324438444645383030463030323071
:103CCC004131323141374420200000000000000017
:103CDC0000000000000000000000000000000000D8
:103CEC0000000000000000000000000000000000C8
:103CFC0000000000000000000000000000000000B8
:103D0C003A31303035463030303046344130313253
:103D1C003331303643303346413031463130313433
:103D2C003331313634373034374133202000000002
:103D3C000000000000000000000000000000000077
:103D4C000000000000000000000000000000000067
:103D5C000000000000000000000000000000000057
:103D6C00000000003A3130303630303030304234E0
:103D7C0041303132333530364330334641303146C1
:103D8C003130313433353136343730343731362005
:103D9C0020000000000000000000000000000000F7
:103DAC000000000000000000000000000000000007
:103DBC0000000000000000000000000000000000F7
:103DCC0000000000000000003A3130303631303055
:103DDC003030373441303132333130364230334683
:103DEC004130314631303134333131363337303480
:103DFC0037384320200000000000000000000000C5
:103E0C0000000000000000000000000000000000A6
:103E1C000000000000000000000000000000000096
:103E2C000000000000000000000000003A313030BB
:103E3C003632303030303334413031323335303645
:103E4C0042303346413031463130313433353136FE
:103E5C0033373034373030202000000000000000B1
:103E6C000000000000000000000000000000000046
:103E7C000000000000000000000000000000000036
:103E8C000000000000000000000000000000000026
:103E9C003A313030363330303030303338303234F1
:103EAC0030303234423142363830334231313834AA
:103EBC003737303437303042464537202000000049
:103ECC0000000000000000000000000000000000E6
:103EDC0000000000000000000000000000000000D6
:103EEC0000000000000000000000000000000000C6
:103EFC00000000003A31303036343030303730305A
:103F0C003030303230303842354646463742424601
:103F1C004630303231303232304646463737342034
:103F2C002000000000000000000000000000000065
:103F3C000000000000000000000000000000000075
:103F4C000000000000000000000000000000000065
:103F5C0000000000000000003A31303036353030BF
:103F6C0030433946463030323130383436303132E5
:103F7C003246464637463646453030323331413488
:103F8C003644332020000000000000000000000038
:103F9C000000000000000000000000000000000015
:103FAC000000000000000000000000000000000005
:103FBC000000000000000000000000003A3130302A
:103FCC003636303030313934363138343646464670
:103FDC003731364646303032313032323230383486
:103FEC0036464646373339202000000000000000DA
:103FFC0000000000000000000000000000000000B5
:10400C0000000000000000000000000000000000A4
:10401C000000000000000000000000000000000094
:10402C003A313030363730303036424646463945F4
:10403C00373030303030303030303030303030306D
:10404C003030313032303330343236202000000002
:10405C000000000000000000000000000000000054
:10406C000000000000000000000000000000000044
:10407C000000000000000000000000000000000034
:10408C00000000003A3034303638303030303630C2
:10409C00373038303935382020202020202020207F
:1040AC002020202020202020202020202020202004
:1040BC0020000000000000000000000000000000D4
:1040CC0000000000000000000000000000000000E4
:1040DC0000000000000000000000000000000000D4
:1040EC0000000000000000003A3043303638343015
:1040FC00303043303030303230303030303030309F
:10410C0030303032344634303032362020202020CB
:10411C0020202020200000000000000000000000F3
:10412C000000000000000000000000000000000083
:10413C000000000000000000000000000000000073
:10414C000000000000000000000000003A30343095
:10415C003030303035303830303031393535392039
:10416C002020202020202020202020202020202043
:10417C002020202020202020200000000000000013
:10418C000000000000000000000000000000000023
:10419C000000000000000000000000000000000013
:1041AC000000000000000000000000000000000003
:1041BC00442A002000000000000000000000000065
:1041CC0000000000000000000000000000000000E3
:1041DC0000000000000000000000000000000000D3
:1041EC0000000000000000000000000000000000C3
:1041FC0000000000000000000000000000000000B3
:10420C0000000000000000000000000000000000A2
:08421C00000000003254769806
:040000050800019559
:00000001FF
