:020000040800F2
:1000000000000120C5020008CB020008CF02000852
:1000100041030008450300088D03000800000000AC
:10002000000000000000000000000000D5030008F0
:10003000D903000800000000DD030008E103000808
:10004000F1030008F1030008F1030008F1030008C0
:10005000F1030008F10300083D0800085D080008EE
:10006000F1030008F1030008F1030008F1030008A0
:10007000F1030008F1030008F1030008F103000890
:10008000F1030008F1030008F1030008000000007C
:10009000000000000000000000000000F103000864
:1000A000F1030008F1030008F1030008F103000860
:1000B000F1030008F1030008F1030008F103000850
:1000C000F1030008F1030008F1030008F103000840
:1000D000F1030008F90C0008F1030008000000001B
:1000E000F1030008F1030008F1030008000000001C
:1000F000000000000000000000000000F103000804
:1001000000000000F1030008F1030008F1030008FB
:1001100000000000000000000000000000000000DF
:100120002D080008F1030008F1030008F10300089E
:10013000F1030008000000000000000000000000C3
:10014000000000000000000000000000F1030008B3
:10015000F1030008F1030008F1030008F1030008AF
:10016000F1030008F1030008000000000000000097
:10017000000000000000000000000000000000007F
:1001800000000000F1030008000000000000000073
:10019000F103000800B583B000F0BAF9384B394AD2
:1001A0001360394A1360394900E02146384B9942BF
:1001B0000BD20A684B6801F10C0488689842F4D9A4
:1001C0001168196004330432F8E72E4B1A68314B7A
:1001D0009A4200D0FEE72C4B1A682F4B9A42F9D175
:1001E000274B2E4A13602E4A13602E4B05E0002049
:1001F000106004329342FAD80B462B4A934204D241
:10020000194651F8082B5B68F4E7244B1B6813B9B7
:10021000234B1B6803B1FEE700F086F9694601A88D
:1002200000F022F9214C224BE41AA4100025AC4224
:1002300014DC204C204BE41AA4100025AC4213DC43
:100240000099019800F060FD05461C4C1C4BE41A17
:10025000A410002C0EDC284600F0E2F8144B53F8F2
:10026000253098470135E2E7134B53F8253098477E
:100270000135E3E7013C124B53F824309847E8E797
:10028000BABADECA0000002074000020F40300089F
:100290000C04000878563412325476987800002006
:1002A000740100200C0400081C0400081C04000851
:1002B0001C0400081C0400081C0400081C0400089E
:1002C0001C04000808B5FFF765FF00BEFEE71EF03E
:1002D000040F0CBFEFF30880EFF309807146414A29
:1002E00010472DE9F04182B004468846124B5E6B00
:1002F0009F6B9D6A1B6B13F0020F03D00E4BDB6AE2
:10030000002B0CDB0D4800F0B7F8CDF800803B4621
:1003100032462946204600F00BF900BEFEE74BF6B8
:10032000AB6100F07FF90028ECD0034B4FF00042A6
:10033000DA6202B0BDE8F08100ED00E0C417000809
:1003400000BEFEE71EF0040F0CBFEFF30880EFF3D2
:1003500009807146244A10472DE9F04182B00446D5
:100360008846084B5E6B9F6B9D6A074800F084F8D7
:10037000CDF800803B4632462946204600F0D8F8AA
:1003800000BEFEE700ED00E0D41700081EF0040FE9
:100390000CBFEFF30880EFF309807146134A104752
:1003A0002DE9F04182B004468846084B5E6B9F6B96
:1003B0009D6A074800F060F8CDF800803B46324661
:1003C0002946204600F0B4F800BEFEE700ED00E04C
:1003D000E017000800BEFEE700BEFEE700BEFEE735
:1003E00070470000E302000859030008A103000859
:0403F00000BEFEE766
:1003F40034B80008000000207800002034B8000859
:100404000000001000000010780000207801002097
:080414000000001000000010C0
:10042000FEE7000008B503460C4A12685AB10B4AB1
:100430001068033323F003030344094A934206D8A8
:10044000064A136008BD054A06491160EFE700F04F
:10045000B1FC0C2303604FF0FF30F3E77C00002079
:1004600000FC00207801002001230360014B0B6099
:10047000704700BF040000200FB400B583B004AB88
:1004800053F8042B01938021064800F0C5FC002896
:1004900003DD0146034800F037F803B05DF804EBD4
:1004A00004B07047840000202DE9F04385B0044675
:1004B0000F4643560BB10E461EE004252846214642
:1004C000ABBE0446384605B0BDE8F08314F9011B05
:1004D00004AA1A4402F8101C0133AB42F6D304AA52
:1004E0001344002203F8102C4FF00408E94640465C
:1004F0004946ABBE8046761B002EE3D03546102E13
:1005000028BF10250023E8E708B5FFF7CDFF08BD99
:1005100008B500F097F8024A024B9A6008BD00BF88
:100520000000000800ED00E008B500F0ABF808BDE1
:10053000F8B504460D4617461E462748FFF79CFFB0
:1005400021682648FFF798FF61682548FFF794FF68
:10055000A1682448FFF790FFE1682348FFF78CFF6C
:1005600021692248FFF788FF61692148FFF784FF6E
:10057000A1692048FFF780FFE1691F48FFF77CFF72
:100580001E48FFF779FF29461D48FFF775FF1D4CF0
:10059000E16A1D48FFF770FF216B1C48FFF76CFFF5
:1005A000E16B1B48FFF768FF15F0800F0AD115F4C7
:1005B000004F0CD11748FFF75FFF06991648FFF769
:1005C0005BFFF8BD39461548FFF756FFEFE73146A8
:1005D0001348FFF751FFEDE7A8160008B81600080A
:1005E000C8160008D8160008E8160008F816000813
:1005F00008170008181700082817000838170008FF
:100600004417000800ED00E05417000864170008C4
:1006100074170008A4170008AC1700088417000816
:100620009417000883691A888A4201D00020704715
:100630000268033A012A03D802338361012070471C
:10064000002070470C4B1A6842F001021A6000212A
:1006500099601A6822F0847222F480321A60074A84
:100660005A601A6822F480221A60D960044B4FF055
:1006700000629A60704700BF0038024010300024CA
:1006800000ED00E0224B9B6803F00C03042B14D018
:10069000082B16D01BB11F4B1F4A1A6002E01D4BDE
:1006A0001D4A1A601A4B9B68C3F303131B4AD15CA3
:1006B000184A1368CB4013607047164B184A1A60EB
:1006C000F0E7134B5A685B6803F03F0312F4800FA6
:1006D00013D0134AB2FBF3F20D4B5B68C3F38813DC
:1006E00003FB02F30A4A5268C2F30142013252008C
:1006F000B3FBF2F3074A1360D4E7074AB2FBF3F205
:10070000034B5B68C3F3881303FB02F3EAE700BF04
:10071000003802400C0000200024F400F01700080C
:1007200040787D0110B5044600221146104600F0C5
:100730004FF9204600F086FA10BD10B5044601229C
:100740000021084600F044F9204600F07BFA10BD75
:1007500008B501221146002000F03AF9642000F0AB
:10076000ADFA00220121104600F032F90A2000F013
:10077000A5FA01221146002000F02AF9642000F0B9
:100780009DFA00220121104600F022F9642000F0B9
:1007900095FA01221146002000F01AF9782000F0A5
:1007A0009AFA1120FFF7BEFF962000F094FA3A2043
:1007B000FFF7B8FF0520FFF7C0FF2920FFF7B2FFC2
:1007C00008BD38B505462A20FFF7ACFF0020FFF72B
:1007D000B4FF0020FFF7B1FF0020FFF7AEFF7F203E
:1007E000FFF7ABFF2B20FFF79DFF0020FFF7A5FFD2
:1007F0000020FFF7A2FF0020FFF79FFF9F20FFF7D9
:100800009CFF2C20FFF78EFF00240AE035F814002F
:10081000000AFFF792FF15F81400FFF78EFF01346E
:10082000A4B2B4F5A04FF1D338BD000008B5024B17
:100830001B68984708BD00BF0401002008B5054BA0
:100840001B682BB19847044A536943F00103536175
:1008500008BD00BF24010020003C014008B5054B45
:100860005B682BB19847044A536943F00203536114
:1008700008BD00BF24010020003C0140034620B910
:10088000A1F10D00C0B202280DD9012B07D010B480
:10089000012B17D043B1022B22D010BC7047C81EC9
:1008A000C0B20128F3D87047144B1C6848000321DC
:1008B000814024EA010119601C6802FA00F1214319
:1008C0001960EAE70E4B1C6848000321814024EAC6
:1008D000010119601C6802FA00F121431960DCE78C
:1008E000084B1868490003248C4020EA0400186073
:1008F000186802FA01F101431960CEE700000240D6
:10090000000402400008024030B4044620B9A1F1BE
:100910000D00C0B2022806D9012C06D0012C21D02E
:1009200044B1022C36D030BC7047C81EC0B201287A
:10093000F4D8F8E72348446801258D4024EA0504EB
:10094000446044688A40224342608268490003242C
:100950008C4022EA04028260826803FA01F11143AA
:100960008160E0E71848446801258D4024EA0504C9
:10097000446044688A4022434260826849000324FC
:100980008C4022EA04028260826803FA01F111437A
:100990008160C8E70D48446801258D4024EA0504BC
:1009A000446044688A4022434260826849000324CC
:1009B0008C4022EA04028260826803FA01F111434A
:1009C0008160B0E7000002400004024000080240DD
:1009D000034620B9A1F10D00C0B202280BD9012BAA
:1009E00005D0012B1CD03BB1022B2DD07047C81E67
:1009F000C0B20128F5D87047012A0AD0002AFAD1DE
:100A00001B484369012202FA01F123EA0101416115
:100A100070471748436902FA01F119434161704771
:100A2000012A0AD0002AE6D112484369012202FABB
:100A300001F123EA0101416170470E48436902FA5E
:100A400001F1194341617047012A0AD0002AD2D12D
:100A500009484369012202FA01F123EA01014161D7
:100A6000C9E70548436902FA01F11943416170473A
:100A7000000002400004024000080240034620B982
:100A8000A1F10D00C0B202280DD9012B07D010B47E
:100A9000012B29D043B1022B46D010BC7047C81E91
:100AA000C0B20128F3D8704707290DD82E4C236A0D
:100AB00089000F20884023EA00032362236A02FA98
:100AC00001F119432162E8E7274C636AA1F10800AC
:100AD00080000F21814023EA01036362636A02FA06
:100AE00000F119436162D8E707290DD81F4C236A2A
:100AF00089000F20884023EA00032362236A02FA58
:100B000001F119432162C8E71848446AA1F10803BA
:100B10009B000F21994024EA01014162416A02FAD7
:100B200003F30B434362B8E707290ED9104B586A09
:100B3000083989000F248C4020EA04005862586A62
:100B400002FA01F101435962A7E7094C236A8900BF
:100B50000F20884023EA00032362236A02FA01F18E
:100B60001943216299E700BF0000024000040240DF
:100B700000080240084A136843F001031360064B63
:100B80001B6813F0020FFAD0034B9A6822F003029D
:100B90009A609A689A60704700380240032822D809
:100BA000DFE800F0020A121A0F48036C012202FA71
:100BB00001F11943016470470B48436C012202FAAA
:100BC00001F11943416470470748036B012202FA9F
:100BD00001F11943016370470348436B012202FA94
:100BE00001F119434163704700380240144B1A6801
:100BF00042F004021A601A6842F480721A601A689D
:100C000042F400721A601A6822F400621A601A68CC
:100C100042F001021A601A6842F002021A601A6871
:100C200022F038021A601A6842F008021A601A6844
:100C300022F080021A601A6842F040021A6070477F
:100C400000300140054BD860044B9B6813F0800FC7
:100C5000FAD1024BD868C0B2704700BF00300140E3
:100C6000024A136823F004031360704710E000E0A9
:100C7000044B586000229A601A6842F001021A6020
:100C8000704700BF10E000E0024B1868C0F300405E
:100C9000704700BF10E000E010B1012806D0704797
:100CA000054A136843F0020313607047024A136851
:100CB00023F002031360704710E000E010B5044613
:100CC0000120FFF7E9FF6000FFF7D2FFFFF7DCFF2D
:100CD0000028FBD010BD10B504460120FFF7DCFF53
:100CE0004FF4FA6000FB04F0FFF7C2FFFFF7CCFF00
:100CF0000028FBD010BD000008B5024B1B6803B1F3
:100D0000984708BD6401002008B5FFF733FFFFF7DF
:100D1000A7FF00210220FFF741FF0C210120FFF770
:100D20003DFF012200210846FFF7A8FD01221146E0
:100D30000020FFF7A3FD0123002211461046FFF714
:100D4000E3FD0123002219461046FFF7DDFD0222D4
:100D500004210020FFF792FD022205210020FFF769
:100D60008DFD022206210020FFF788FD02220721C7
:100D70000020FFF783FD052204210020FFF77EFEFF
:100D8000052211460020FFF779FE052206210020EA
:100D9000FFF774FE052207210020FFF76FFEFFF723
:100DA00025FFFFF7D5FC0248FFF70BFDFEE700BF6C
:100DB00000180008014B1868704700BF10000020A1
:100DC00030B5141E05469BB0184605DA8B232B6000
:100DD0004FF0FF301BB030BD4FF40273ADF80C3054
:100DE00014BF04F1FF332346029305934FF6FF73BC
:100DF00000910491ADF80E3002461E9B69462846CC
:100E000000F072F8431CBCBF8B232B60002CE1D098
:100E1000009B00221A70DDE707B5009313460A46CF
:100E2000014603480068FFF7CBFF03B05DF804FB01
:100E3000100000202DE9F0478E689E4282460C4645
:100E40009046994637D88A8912F4906F31D0256838
:100E500009696F1A6569022305EB450595FBF3F5F2
:100E600009F101033B449D4238BF1D46530530D56F
:100E7000294600F07FFB064650B90C23CAF8003023
:100E8000A38943F04003A3814FF0FF30BDE8F08712
:100E90003A46216900F0FCFAA38923F4906343F0F9
:100EA0008003A381266165613E44ED1B2660A56039
:100EB0004E464E4500D94E4632464146206800F027
:100EC000F2FAA3689B1BA36023681E4426600020DF
:100ED000DCE72A4600F0A8FB06460028E2D121699B
:100EE000504600F0F9FAC8E72DE9F04F9DB0804672
:100EF00003938B891D060C4616460FD50B696BB9FB
:100F0000402100F037FB2060206128B90C23C8F88D
:100F100000304FF0FF30C7E04023636100230993A6
:100F200020238DF8293030238DF82A304FF0010B23
:100F300037463D4615F8013B0BB1252B3ED1B7EBAB
:100F4000060A0BD05346324621464046FFF772FF51
:100F5000013000F0A480099B534409933B78002B97
:100F600000F09D8000234FF0FF32CDE9052304936C
:100F700007938DF853301A932F46052217F8011B5B
:100F80004F4800F035FA049BD0B9D90644BF20225F
:100F90008DF853201A0744BF2B228DF853202A784E
:100FA0002A2A15D0079A2F4600200A25394611F81B
:100FB000013B303B092B4DD9B8B10FE02F46B8E7C4
:100FC0003F4A801A0BFA00F0184304903D46D3E7DD
:100FD000039A111D12680391002A01DB079204E0B5
:100FE000524243F00203079204933B782E2B0CD11C
:100FF0007B782A2B33D1039B1A1D1B680392002B8D
:10100000B8BF4FF0FF33023705932E4D39780322D6
:10101000284600F0EDF938B14023401B03FA00F0F8
:10102000049B034301370493397827488DF828102F
:1010300006227E1C00F0DCF9002838D0234B13BBBD
:10104000039B073323F0070308330393099B4B44A7
:1010500009936DE705FB023201200F46A6E7002346
:101060000137059319460A25384610F8012B303A06
:10107000092A03D9002BC8D00591C6E705FB012139
:1010800001230746F0E703AB00932246104B04A967
:101090004046AFF30080B0F1FF3F8146D6D1A3892F
:1010A0005B063FF536AF09981DB0BDE8F08F03AB86
:1010B00000932246064B04A9404600F081F8EAE777
:1010C00000B8000806B800080AB8000800000000D0
:1010D000350E00082DE9F04791461F468A680B69D6
:1010E000DDF820809342B8BF1346C9F8003091F86C
:1010F000432006460C4612B10133C9F8003023687C
:10110000990642BFD9F800300233C9F8003025688B
:1011100015F0060507D104F1190AE368D9F8002093
:101120009B1AAB4228DC94F843302268003318BF86
:10113000012392062DD404F1430239463046C047BC
:10114000013020D02368E568D9F8002003F00603B9
:10115000042B08BFAD1AA36822690CBF25EAE57508
:1011600000259342C4BF9B1AED184FF000091A34B2
:101170004D451AD1002008E0012352463946304639
:10118000C047013003D14FF0FF30BDE8F087013593
:10119000C3E7E1185A1C302081F84300224494F838
:1011A000451082F843100233C5E701232246394631
:1011B0003046C0470130E6D009F10109D8E7000008
:1011C0002DE9F04301F1430C0C46097E85B06E29F0
:1011D0001746064698460C9A00F0B38022D8632939
:1011E00036D00AD8002900F0B980582900F0838051
:1011F00004F1420584F8421032E0642901D06929E3
:10120000F6D120681368050603F104012AD51B688E
:101210001160002B03DA2D225B4284F843206F48D3
:101220000A2239E0732900F09D8008D86F2920D068
:101230007029DDD1236843F02003236003E0752982
:1012400017D07829D4D1782384F84530644855E004
:101250001368191D1B68116004F1420584F84230BF
:1012600001238CE01B68116010F0400F18BF1BB207
:10127000CFE713682568181D1060280601D51B6884
:1012800002E06806FBD51B8854486F2914BF0A2268
:101290000822002184F843106568A560002DC0F283
:1012A0009580216821F004012160002B3DD1002DA3
:1012B00040F08E806546082A0BD12368DB0708D5ED
:1012C000236962689A42DEBF302305F8013C05F1CC
:1012D000FF35ACEB05032361CDF800803B4603AA44
:1012E00021463046FFF7F6FE01304DD14FF0FF307A
:1012F00005B0BDE8F083394884F8451013682168CB
:101300001D1D1B6815600A060BD5CA0744BF41F0B6
:10131000200121601BB9226822F0200222601022E5
:10132000B7E74D0648BF9BB2EFE76546B3FBF2F166
:1013300002FB1133C35C05F8013D0B460029F5D1D2
:10134000B9E7136825686169181D106028061B68D5
:1013500001D5196002E06A06FBD5198000232361DC
:101360006546B9E71368191D11601D6862680021A0
:10137000284600F03DF808B1401B606063682361B7
:10138000002384F84330A7E723692A4639463046CC
:10139000C0470130AAD023689B0713D4E068039BA1
:1013A0009842B8BF1846A3E701234A46394630465B
:1013B000C04701309AD00135E368039A9B1AAB42CB
:1013C000F2DCEBE7002504F11909F5E7002BACD1BD
:1013D000037884F8423004F142056CE711B8000844
:1013E00022B800080000000000000000000000001B
:1013F00001F0FF01102A2BDB10F0070F08D010F8C6
:10140000013B013A8B422DD010F0070F42B3F6D1C9
:10141000F0B441EA012141EA014122F007047FF0E2
:1014200000070023F0E80256083C85EA010586EA39
:10143000010685FA47F5A3FA87F586FA47F6A5FA75
:1014400087F68EB9EED1F0BC01F0FF0102F0070281
:1014500032B110F8013B013A83EA010313B1F8D12C
:101460000020704701387047002D06BF354603380D
:10147000073815F0010F07D1013015F4807F02BF46
:10148000013015F4C03F0130F0BC0138704700BF97
:1014900010B5431E0A44914200D110BD11F8014B12
:1014A00003F8014FF7E7884210B501EB020307D8B4
:1014B000421E99420AD011F8014B02F8014FF8E799
:1014C0008342F5D98118D21AD34200D110BD13F846
:1014D000014D01F8014DF7E738B50546002945D023
:1014E00051F8043C0C1F002BB8BFE41800F0D2F8F0
:1014F0001F4A1368104633B9636014602846BDE87C
:10150000384000F0C8B8A3420CD921686218934251
:1015100004BF1A685B68636004BF521822600460ED
:10152000ECE713465A680AB1A242FAD9196858186A
:10153000A0420BD120680144581882421960DDD1C5
:10154000106852685A6001441960D7E702D90C2329
:101550002B60D3E7206821188A4204BF11685268C3
:10156000626004BF091821605C60C7E738BD00BF36
:101570006801002070B5CD1C25F0030508350C2D41
:1015800038BF0C25002D064601DBA94203D90C23E8
:101590003360002070BD00F07DF8214A14682146B8
:1015A00091B9204C23681BB9304600F063F82060E5
:1015B0002946304600F05EF8431C24D10C233360EA
:1015C000304600F068F8E4E70B685B1B18D40B2B7F
:1015D0000FD90B60CD50CC18304600F05CF804F108
:1015E0000B00231D20F00700C31AD3D05A42E2504B
:1015F000D0E78C424B6816BF636013600C46EBE784
:101600000C464968CCE7C41C24F00304A04205D072
:10161000211A304600F02EF80130CFD02560DBE7EC
:10162000680100206C010020F8B5074614460E46FC
:1016300021B91146BDE8F840FFF79CBF22B9FFF77A
:101640004BFF25462846F8BD00F026F8A0420FD2F1
:1016500021463846FFF78EFF05460028F2D0314676
:101660002246FFF715FF31463846FFF735FFE9E719
:101670003546E7E738B5064C0023054608462360A3
:10168000FEF7D0FE431C02D1236803B12B6038BDA6
:10169000700100207047704751F8043C181F002B60
:1016A000BCBF0B58C0187047537461636B206672DF
:1016B000616D653A0A000000205230203D2020254F
:1016C0003038580A00000000205231203D202025EB
:1016D0003038580A00000000205232203D202025DA
:1016E0003038580A00000000205233203D202025C9
:1016F0003038580A0000000020523132203D2025A9
:101700003038580A00000000204C52203D2020258F
:101710003038580A00000000205043203D2020258A
:101720003038580A0000000020505352203D202538
:101730003038580A000000004653522F4641523AB2
:101740000A0000002043465352203D202025303817
:10175000580A00002048465352203D2020253038AA
:10176000580A00002044465352203D20202530389E
:10177000580A00002041465352203D202025303891
:10178000580A0000204D4D464152203D202530385A
:10179000580A00002042464152203D202025303882
:1017A000580A00004D6973630A000000204C522F54
:1017B0004558435F52455455524E3D2025303858C8
:1017C0000A0000005B486172644661756C745D0AD2
:1017D000000000005B4275734661756C745D0A0021
:1017E0005B55736167654661756C745D0A00000046
:1017F00000000000000000000102030406070809C1
:1018000047298829E4100411051905216410492984
:1018100028196400C318C86A688B88830021632173
:1018200045390321AA4A8629C731E839A7318B5A9D
:10183000AC724859A540E42844116501106C906BC6
:101840008400C40883088208620820084010401001
:101850002008A4204931A9182C29AB316621A421E4
:101860002741C43889720141A038A1404130A438D1
:10187000A438454944412239C028E22845318739F6
:101880002442043A4542CB83C349C551664167416E
:10189000A6498349E361835949722962C330813083
:1018A000A110A6216A32CC42706B8628C83809394B
:1018B0002A418A514859A76110A4D0933494537B8C
:1018C000AB39E620A418811840188120E42842187A
:1018D0000639A9496B5225192419A218A2302130C2
:1018E000C270088A0D9B67612659E548C540854846
:1018F000446067A10BD383798020C539EB6AF7ED8B
:101900002629E51805194621261967290619C51043
:10191000E60863000000C128E87A6EACE872802017
:10192000A1200329E218242166316731E520C42073
:10193000ED724B72A8590431483A45112B3AEB41EC
:10194000E52063108318621042102110411020100E
:101950002010011049394B3968184610A410C210E4
:10196000A328E7512B7B055A835122492351045167
:1019700045514449023983410129033144316639D3
:10198000C549064A675A8862676AA55185498649EA
:1019900084498672C682A7820B83696A4449C1382A
:1019A0006539C731F06BED4A06216839894148290C
:1019B000EB396C4AC831CA52F2946D5B337CCF4A22
:1019C00087292521821000084018C3288220A420DE
:1019D00026310631A7396629E420A3282128634847
:1019E0008579CB922651423005490972C550845001
:1019F000E6704BB28AAA00388120084A2A7212D4B3
:101A00008731052167290619472188290611C4084D
:101A1000A300C4086208201004414C9BB5EDA569E1
:101A20006120E330C320C328A42844200731841850
:101A3000A7414862E659275AC5394629A5186A3987
:101A400026390110421822180218011041182010DE
:101A500081208220684187280510A728A5282531E4
:101A600085396431D19CC95A012942418259215199
:101A7000625983514341A5416010E22844394441F1
:101A800085590862085AE7594872E661A5518449A8
:101A900083490783857A098B6C93486284490039AE
:101AA000C3304631C931B58CEA414731262947193F
:101AB0002A22C909C8019154378691542D3BC9196E
:101AC0006419C10840008218E430622022180529F8
:101AD00045294529E7394431C32882300130276937
:101AE0006982696A6218453924414559C358E460DE
:101AF0002A920DAB835001184731CA596DA2EEE20C
:101B00008729C729C4102719C60827110611E40818
:101B1000A308A310E418010801188761F0C3089214
:101B2000443823308330C5388430A63086280731C6
:101B300004214A6B6973044A63394431A4180629A5
:101B400045412120011801180218021821182018F7
:101B5000E230E230A428283925200418E638622033
:101B600023218529283AA94AE639633982496472D2
:101B7000E78AE46163414852A220C2284341A45944
:101B80008661C861A8590A62C759476A05528241ED
:101B900061392C9C498BE97AAA72275A0552614116
:101BA000A7494631AD520B3A883126312629AC4A35
:101BB000E9210B12AE1A9023D4446E23ED2A88112A
:101BC000421981086110621822204228C430C420C2
:101BD0006629283A48422331C138C24882480982DE
:101BE000EA7AE6498421263A634123592361278210
:101BF0000B9B6559633044184D5A49610BB267C954
:101C00006B32A72187216721C508C608E710A50800
:101C1000A31062106210C41802080220C981E99959
:101C2000EA606648C54862306328C6382420C52863
:101C30002429095B91A510A5675A6120E328C318E0
:101C40004439E330000801102218021842184118E4
:101C500060180329C4282731852043180429A120AE
:101C6000042905212A3AA8298621E641E449245A73
:101C7000A56A465AE64948524110812043494351DA
:101C8000A6598751C951095AE759265A4652A231D5
:101C900045426E940A73EA72EB72695A064AA3418E
:101CA0002431A8394C428D4A48318841E428C84142
:101CB00048294B21F3427122B11ACF226909071139
:101CC000A21000006218842801208759054146317E
:101CD00066218A3AAD6B212921416038E569898204
:101CE0004339A84AA319295B876201490672EDAB03
:101CF000E97AE23883300741CB6169712AB224B1B5
:101D00006B224A2AA71925110611E610C610C6181B
:101D10006318C420A3188210A410231802300EAB3D
:101D20000E8A0440A240E030E1286218C530A53098
:101D300004218742AB5B908C495A063963204210DC
:101D40002229A4392008000801080108211061187F
:101D500061186952C420A418E520410843210019E4
:101D60008418E6202721C9312619A6318431296B30
:101D7000F0A46B732742494AC32061204349A45908
:101D8000C541C641C849E8590862065A254AE429AE
:101D900084212F846D7BCB6A8A62695A074A853910
:101DA00085314942E9390B4288398741C74966394B
:101DB00007312B39AC20D1318F19CE21C8108618AC
:101DC00062104210221862302451E3484549A32092
:101DD0002719E921C62142290039498B2A8B8551CF
:101DE0000429C9522219C7526241E6612B83A549D1
:101DF0000229C23061302B7A4861EA81A7910289B9
:101E0000AC221575C819092A2619C610A610861005
:101E10006418A3286118C310C4084308021026518F
:101E200093B3A869434107630332E11883208428F0
:101E3000253184218832CF6B0F7309494528441816
:101E4000E010E531E21840080000000821084210C7
:101E5000621884186410A410E410C1084011C0195D
:101E600084200629E520C52046294629A631694A4D
:101E7000CB5A8A524942284A0329401843394341E0
:101E8000E431063AC641075AE6610662064AE6317F
:101E900086212E638B62AB72EB726862E649A649BB
:101EA000A531E7398731A839C8414331053A83293B
:101EB0000429E8300C39AC20EB18E9186518021831
:101EC00020108220C330C2402249E9824349E949B7
:101ED0008931AA294619432941398B93086202188E
:101EE0002839EA4965316439A6510D83EA51CD5A42
:101EF0004529A228A6690882C881E9816671A68160
:101F0000C809125C8D3269190711E618C610A510B0
:101F1000C41883208218A310A408A50883100010F9
:101F2000CB694F93A96AE439621903118420843084
:101F3000E330E531882A6A3A9283AC594530432030
:101F4000A000E529A42981082008000820102210FB
:101F500022108418A5180200C3082109400142225A
:101F6000E320E32024312329243125314631C9419E
:101F70008C524B4A494A2842442920084429A63910
:101F800025320532064A065AC561E5612752863177
:101F900046210E634B628972C872255A0552E5517B
:101FA000063A0321242987418641E9626542A2213C
:101FB000621904190721A710E71043004110812876
:101FC0004008A12003398449045A045A4341674117
:101FD00049390821262164310652696AA630262033
:101FE0006A308830E638E5406B724D6AC828CB39D4
:101FF000E518C2282772688A8992C879A879687119
:10200000C61967098B194B19E818E618E510C308BB
:10201000041983208328C52827294300A3104108D9
:102020000418EF8A2E8BE4302629C6206528433019
:10203000C230E42908332F64AD5A8D6AE538612037
:10204000A110E2186529C2184010000800102118DC
:10205000431802086410010061006319000902229C
:1020600063218329A2316231223103310431884155
:102070008941E949E841A6394321C210C2084519FE
:10208000A421A429064206522662C559E549853194
:10209000C418AC62E859886AE76AC562076B2552C2
:1020A000E6296108863146398649685AC752C221F5
:1020B00061190211C310E410820020006018C138B9
:1020C0002119432944390431909CA85AC549264115
:1020D000E738C6300529C641EA6A25410420EB40AD
:1020E0002A3848384430C861ED8245286718C8202E
:1020F0000629E651E882857AE88A65692B8A0D927D
:102100006411A8192B11CE29E9188831E3100411A4
:10211000E418C428633084306418C518A3108108FB
:102120000318A63851A3AA618630462825304338C3
:10213000C230A321CB4B3064E618AD6A87418018CA
:102140004010A220A328C4284118201800102018ED
:1021500021182110421082102000C21023196B6335
:10216000463A82210332A1310029634104410541ED
:102170006749A85186394429432181086100E30851
:10218000C2182319A529063A47522652264A23295E
:1021900061100952495AA862C65A8763E64A8542C5
:1021A0008619C30886292631A849295AE749643186
:1021B0002221C118A110820841006108A1286138BC
:1021C0008742E739473127316B4A083AA53904413C
:1021D0000649A43865414B73675A8228E740A938FD
:1021E000284805380551EB82A330A52829318618E7
:1021F00006294B7B4DA42683889B057AA889699183
:10220000030927110A092B19C8202629C31004190C
:10221000A418E53883408340E530C4188308620879
:1022200082100010A971CFA26648053803384238E1
:10223000023184218D4B6C3AAB41E8382A5A03298C
:1022400021204220222084284220411820104010C2
:1022500040106110400820082008A318E4200A4A12
:10226000273AC529C84A253A6329A441C2380449F6
:102270004651A6514431E21823196000410862100A
:102280004220A3180319A621283A47422642C01823
:1022900040100852495ACA5A0953E8426632673A0E
:1022A000C300A2008619C729C841E951E951C851A4
:1022B000043941206118831021000100A428C54081
:1022C0002421A52087286B39EB31AB4AC639C338A6
:1022D000A34005490C7BD1A4C12824412541A43049
:1022E000034800382B93C4592020C428A520651822
:1022F0008841109C6A836CAC6FD5448A47A2E8A9D8
:102300002411E5000911A710C620C420E520E6200D
:10231000A6280649C77104510431E418A4088308AB
:10232000C100611800288C92A97902402240213016
:10233000C22824194719ED410B49274068596541C6
:102340006230012023200318632061106010A01068
:10235000C110A010C110200040088318C620E82832
:10236000683127210D53AA4A6521A5392339E34055
:102370008551C65144310321C11060106120612094
:1023800023308328A31825198629E7390642A01887
:10239000802086494B628C5A8A428519851986218C
:1023A000A218C208A4196311273209428741095AA9
:1023B000E43841282118010802004308884185308B
:1023C0002629A6286728A828492109324429C2308D
:1023D000E44825498A620B6B07520239E238C54945
:1023E0006048067A877A001847522529841885188C
:1023F0008E6AAD722E8B16F62BBCC59A259AA599BE
:102400002411E50807112721A320E428E520C7208F
:10241000E730E548EA92676A64298621C508A4186E
:10242000C200E3100010A340AB8AA3484140213012
:10243000A228C41808290A49AA602A790559C55949
:10244000E4402120222002106318A218C110221992
:1024500068428000600040006008C318A518A720EB
:10246000C82849310B3AA929A72986310329644193
:10247000A549E649A539642960086018A230813869
:102480004340A340C3280429052946318539C0208B
:10249000012945418C72CA49E620C518C518A518FE
:1024A000812822298219A211462AC6292C63C641F5
:1024B000E328812041180108420083084A4A831812
:1024C000631844206630652026216521242125419A
:1024D0002649E959CC62C320E75965514341E130AF
:1024E00002512A93A030C128A641252922108A49E9
:1024F00032834F7AF4B3D4D4E9A249B3A79A2369BB
:10250000E318C410C51005218218042906190719FB
:10251000C628A759466A454AA832C7112619631822
:1025200083008308421800188759697A41382028A7
:102530006218C318C5288648A6686BA2E671A2492E
:1025400044498230221822182110A2188110231920
:10255000E7318208A208A10820000321E518A51888
:10256000A62007296829472925214529643184396E
:10257000C541E649E64164314010A120C238A13886
:10258000A440034123414441E438E538043121218A
:1025900004424B734962C5384220E530E530C63805
:1025A0000341064AEC6B042205220632C631A531EE
:1025B0000221A0188118821082008200683AE10886
:1025C000A320422042288228A3180419052927396C
:1025D0006841E949A639EB6A076AC6692B93023953
:1025E000CA82854944392C6BA318C4280220509311
:1025F0004E72EF71B5B38C9AEAAA8BB3A469044901
:10260000A218A320C520A420243144216611A819B2
:1026100067218439C2394D749475C7090511A430F6
:10262000432063206320421801186A720551412833
:10263000E3288210A3280551E568EBA2F0BC023A1A
:1026400084490339212062204118611081108310D0
:10265000A4106408420061006000C5316521620871
:10266000A218452965312429442923292329A54174
:10267000A541C541C541C2206018E2282331233954
:1026800044398341C249A35924510541243145327B
:10269000C95BEE94E5490239434964498651665164
:1026A000253108424F74262A8521873966396531DC
:1026B0000219E1188118611041008421E73A4009AC
:1026C000C31881204020C228C218E418C620662002
:1026D00069392942A43146626BAB48922461287261
:1026E000CC7A42186629EC5AE52821206661ED9AD9
:1026F000AA71D092F09AD1BB0AA3A88A0449E63005
:102700000018A328C528C428A639C6296609E811D7
:1027100065116229233ACB4B4B23290A6721833069
:1027200023388438C430A32800106230AB7AA33039
:102730004110E2188120C24024690A9355D62643ED
:102740008349434161208220C2282010C3204310C6
:1027500044102508030042086000A008C110C21000
:102760000119022163314331223122314331A4392D
:10277000A539853985392010A12043316431C53907
:10278000E531E3390252036AA5618651C6398A4BA5
:102790004E752A6C2342445A456A046205626559A3
:1027A0008831E831282AE408473127390639C42816
:1027B000E22080188118E4284108E5290743C33244
:1027C000C3100329A128A120E318C510A818A82028
:1027D000AA396521CA73A993AAC30ABB8579EC9269
:1027E000474106296729462125316130AA9A499235
:1027F000CC9A50A30E93EB92C8920672C43829313A
:1028000020008310C4282329442A420AEA33671A85
:1028100085194421A7294E2A111A312A0819E328BB
:10282000C038C5496218052105210010055187717E
:1028300000382028C128E028E451A96A59D64F73EE
:102840008941C528A4286320043141186118621801
:10285000421042080100420062088208A21061088A
:102860002221A5314319442145210521873186299B
:1028700065216421A5394018A0286339A431253287
:10288000E749C649E651E5594862C741ED52CD4A8C
:102890008C424B4A495A686A8872476AC651E75166
:1028A000C839A731A729C30844216531E228E33894
:1028B000813061288220A318A408E5080B2AAD42C4
:1028C00004190339A248A24004290511C520C538BE
:1028D0002639A7298C43528531A5266ACA8A8B825C
:1028E000C11044212421E420E520A739CB6ACF9BE5
:1028F00051C40CAB299A8AA2A771C54068492831F6
:1029000021002108C320C4392322A933D054280A26
:102910008711451946196911CE194C11693145398C
:10292000E128E228294A8829E518C42021200972D3
:10293000E45041288020E128A441685AB7B5D173FA
:102940006939C62884206220822041184118411824
:1029500041104208210021000000200061104110B8
:1029600043296429273A2842452925296639042123
:10297000C210843164312010E22823294B5B6B5351
:102980000642064A465AE559475A08526B4AA9294F
:10299000A8294A42895A886A676A2762E651A54986
:1029A000A63965318531610824214531032981200B
:1029B000A128A1288120A218A310E41047214721B3
:1029C000A531C55183610249233104198318E538C3
:1029D000C428AC42EB2A337DCD734862CF9B464975
:1029E0000419A310A83947314318CD720E8BCD922C
:1029F000F0C3CCAA08920882A3486741C9412621A6
:102A000062082100A118C431031AAF544D23EB0111
:102A10008A112611251906096A11C9104939674911
:102A2000E31825212A422719671986290008A330AF
:102A3000C7612028A2280229A539C639D06B126C9B
:102A40006831E6286318632041186120411821107D
:102A500021102110420862104108200861108118DD
:102A60000319E210483A2842242904310431A220F3
:102A70002329633143318120C22885318C5BD27494
:102A8000A74266424552E451055A0752C841E5182B
:102A900046212942685A6762466A2562065AA54954
:102AA00083418441E6518120E32824292429E3201D
:102AB000C118C1186010E220A2188210A31046218C
:102AC00084296B8308832141254A6429E4208320DB
:102AD0008C522E4BAC22526409420D7BED72631076
:102AE000E618C518683164180B62319BAB792C9AD3
:102AF0006FC3ACAA49924659A4304629082A2C43F0
:102B0000A3084000A0106119C73250540C02701A7B
:102B10006C11E71006190511E610E720C628474991
:102B20008B3A4711C610A9298719E408C310001071
:102B3000A659E34081300331C741C8314B3A0E43B7
:102B40004731C5206318832041186120612041105E
:102B5000201000082108A210811020006008C11870
:102B60008108A21045292429042904318128C2287A
:102B70006439E12023316118611886294932EF5305
:102B8000083BC742864A655A2662065AA649C420AF
:102B900086310742264A8662866A045A0552C5492A
:102BA0008349C45184514028C3302431E318E210D2
:102BB000C110A1106010C22082182008821086293E
:102BC000293A95B50A6B6339A5318631A318841863
:102BD0006C42EA194C22CE4A88414F8BC528A40882
:102BE000E718EA39C51843183093ED81A97052D31C
:102BF000CA9909926669633027312721C819D36CB5
:102C0000C40881008000E008093B6B222F1AD0190C
:102C10000C11A710A410E410A3080619A42047392A
:102C20000A1A070907110B32A819E400C40800109A
:102C30000020C6698138C3380531473148292C3214
:102C40002729841863186318411820186118401048
:102C50006118200820006108600020008008A0089A
:102C60006210C318C318A218E328E330A128022970
:102C70004331222923296118C32046214A32AB322D
:102C800009336A4B864A665A055AC559A6496118DE
:102C90008539E641054A8662A76A255AE551A5416C
:102CA00064494762076240280339E328A118C2102B
:102CB000A110A1186118411862182108A308051174
:102CC0008F42D68C093A66292521E5204410C6207A
:102CD000281929096A19E8282B6A2A720110C310D9
:102CE000E7182619A20848524F936658CDA16EBA2C
:102CF0006889C881A4484428C72829290611EC42BC
:102D0000C400C20080008000A6218A19AE21CC0830
:102D1000AA10A7188410C418C410A410E518051927
:102D200047096819E618A508E608C5006200822070
:102D300000204361C569E348E6400841E8284D5258
:102D4000272984188318421061180010411841186F
:102D5000611861102008200820006008A010600899
:102D60006118A2188218C220C320C22003290221A0
:102D7000E2180219811861184210E418093A8B3AD6
:102D8000D16C6F6CC84A875A4662C559E659812092
:102D90006439054A2552665A8762265A0752A64167
:102DA0006641CB6A0C73C2288539C120A1208118E5
:102DB000611841184218421063102100C40025090F
:102DC000AE29ED3189216719062185184520862015
:102DD00007192819C7186528AD8AA3402018C21002
:102DE0008408862102110963E761E768AFBA288980
:102DF000A881C350423086386830EA38283126210D
:102E00008300A2006000600083008A210A19EA188A
:102E1000A810A618A518C518E518C4080509E400E7
:102E20006719E5188310E518E51084008410212047
:102E300080386038E88AC6612649E740452028394D
:102E40000629A4188318211062182118412041185E
:102E50004118411800100010000820108118601857
:102E6000A218A2188110A218A218A218E320E21832
:102E70000319C210A218C3200008C3186629AB4A60
:102E8000B36C1064894A4852275AA551C551A128EC
:102E90008441E5492552465A475A2752C74967395E
:102EA0004731094A084AC21885392329C128201800
:102EB000412021102110631063086200E4104519BD
:102EC000E928C718061945214210832823206420C9
:102ED000641085108520A9510A7200206118C21063
:102EE000E518A208053272BDE248C989EA99277936
:102EF000866940308328A63847384730A63063209B
:102F00006408010041006208220065080719C61024
:102F1000C5108410C61885108510E618C400240951
:102F2000C5200529C320A318A410640864104220FA
:102F3000A03081496D9C2F9C2641E638A62884202C
:102F400084188318631821106218612062204120C0
:102F5000E43082282118211800100008A22023291B
:102F60002319031181106110A218A318A310C31014
:102F700082108210E320821800000000C210852118
:102F80002A2AAC42AB52695A275AE651C649A128AF
:102F90008441C5490652475A686228524631C520C5
:102FA000C310E418C210C21823294431C228A22831
:102FB00062208218410082008100E318E32081181A
:102FC00063288220C2180221A12841284230833080
:102FD000A428832001108B72E44000184529A21018
:102FE0006310E3206B738B8B4461CCAA46816671BE
:102FF000603081208220A5308640C7402220C3282F
:10300000230801002100420842082200E510E410D4
:10301000C308051985108618A618C618E4100409F7
:1030200064200431A5392321A210841044106320A8
:10303000E128E331109594AD2A4A2731A42082205B
:10304000832062182218411862184118211841186B
:10305000C849C32000086208200082080311683AAA
:1030600006220309E21041086210A3184108621009
:103070008218E42082180008201060088108A10846
:10308000C5184729294A8A5A2852C6490752E228B0
:103090008539C649C649485A485AE4282110831838
:1030A000E110E218232180106010A641E751C328E7
:1030B000A218610881086000C118023181302351D3
:1030C0008130A0282231054AA02060284130833079
:1030D00021204220A3308A6A41186318A420841852
:1030E000E638A8512D8B8248E889E8990579A250E5
:1030F000A128A11844312541633062288120C118DC
:103100002308631021002100A21041006100231157
:10311000E310C41085188620A728C620A410041127
:103120008528C328E539463A431983088518421093
:103130002321A3116B431064AD4AC620A320A12014
:1031400042206220222021184118411841106110AC
:1031500020008108A200A200C20002014301CD4B61
:103160006C4B2409C3086108000082104108A218B2
:10317000C320A220001000104010C21802216329B1
:103180004639E428C32885394852284AE741C220F5
:103190006539C649485AC651612040100321C218FA
:1031A00001210121C1180329211086396A5AA21868
:1031B000A21080086008601006526451488207829D
:1031C000C128C120022923298018A228A330443015
:1031D00023300128865186490008A52003182520A0
:1031E00065388E8A486985602AA24789E468002884
:1031F000A1184319C631285AA2308120C11842199A
:103200006300620800002000A110400000000311CC
:10321000E410C418E528A6306528C6280521C3088F
:10322000A620A318A421A63AA41982008410431052
:10323000C4104409E711EA190C3AE63062288028E4
:103240002228622841200018001041104110610816
:10325000A210610040008100E20002014401D16C33
:10326000CB42C308A310C32000080000A110C2185D
:10327000E22061180008611861180329032944310C
:1032800023416449023180202331074A07426110FB
:103290004531A741E3306020C22802290229422992
:1032A00001294331E328A32022108418C418A31055
:1032B0006010A02000184249E6692872EC928769E4
:1032C000E328E3200529C420C320A420A528242026
:1032D00044300230E7618220000863182420032074
:1032E0004971CB8104502881CA99C5700138812861
:1032F000E210E7298521621882286018C110C008F1
:1033000062006200810040082008C018610842087D
:10331000C520E530A430A438C530E5284621C308CF
:10332000A610C4102209E419E419C300430864106C
:10333000630005014701A600A82008412130203084
:103340004120622841200118001000102010411077
:103350004110000820102008000082102421EB5AA0
:103360006629262942180118201880182000A00874
:10337000E11820082010C220C2280331E3300339AD
:1033800062514249A44943394010A21845292108F5
:10339000C420C3284118A128633983398239823176
:1033A000E230C3304539632043102208831082186D
:1033B00040202028C571E679E8798B8233AC2B5AFE
:1033C0004429E4280631E528052983188418442077
:1033D0002328A440444120088110420802184430A8
:1033E000EB89C6680350CA9148812248012804210C
:1033F0006411C721830821106328622062104421D0
:103400002C4304090000400820086010200802082E
:10341000A4200539E340034146412631E51025113A
:10342000A608E508E2084209E52165194308641089
:1034300044088400C60886080510863802382038FB
:10344000622062204220411821180010001000184C
:10345000002000200028003000308340E44805515F
:10346000464126494651213000204018600860003E
:10347000C11020008118C228E330E33024414551B7
:10348000C3592562C451A449643960100000621810
:1034900021106118E33064396439A441E449623988
:1034A000C4300539A428221084184208A32021180A
:1034B00082406992C7896679C9710B6AF2832C3A96
:1034C0008431E330A430A330C328811863188428E2
:1034D0000320254980202000810882100008C95956
:1034E000677100386779098A0240223025398208DD
:1034F0008619C30883108420442043204210A3105F
:103500008511A3080208001080200129A2180108D3
:1035100084200439676A686A664187312619251153
:10352000E608C408E310C20844116619A51044084F
:10353000431063086300851004100420A438412858
:1035400062206220411862186218211800100020C1
:10355000C340A34841406250C4600569E568C46047
:10356000E448C450E458C8796138001060108010F5
:1035700081100008A220A220E32803316449855964
:103580002562055A265A4762A54123318120001041
:103590004018E32803294439E651C6498441634170
:1035A0002531A320621062106110411000186238AA
:1035B000AB926B9AC989677167594631A8296B32FA
:1035C00083310331823062388130A1208218632038
:1035D0006328E43020108010400800080439286275
:1035E0002138A24828828248413884308420C41877
:1035F00025216108831802100310010841086100A9
:103600002000431024202220402080180219252168
:1036100062102231E7724D9CAA62E941A829261165
:103620000509C410A31083108308E510C6104308D1
:10363000220862106108620863102310C4288218EF
:103640004220622041186218822062182118001856
:10365000412844516561E35803592461E460E3580B
:10366000C250A2508260A3606A8A21304120411872
:103670002110001082206118C22043396341834920
:10368000C551A551E651475AE6516441A128201879
:103690008120C2282431C749E751864965494549F7
:1036A0000321E318E2188010E120A13000208A8A6B
:1036B0004B92887970AB47512631C3108D5B682AD5
:1036C000A5294531E440A340A130A120A220431800
:1036D000642821182018802000100120086AE3487F
:1036E0004128E76944516038A338022085288420A6
:1036F000821861182018221802082100E2002522F1
:10370000C3184318042003206128E120A429441988
:1037100060086231C24910B5D2A46C52892988214F
:10372000E308E4188320842084108508C6088408F0
:103730004110601080088108C31083084200E4181B
:1037400021204220422042188218A220611820180D
:1037500000184020E240E24002490249E248645930
:1037600023590261A2688268A360297A01200118A6
:10377000022001182220001081188339A341A241A0
:103780008549E651E751E751E651E65102316020A3
:10379000602002298539E749E851674946492649A9
:1037A00022196321C429E018C020C13824590DAB67
:1037B000E660CA798959E530E3186419662A862AD1
:1037C0002832A73967510549C2388018A3186420E8
:1037D00024200118001820200020265945610030BF
:1037E000254107620241C138A338442824204320E0
:1037F000212000180018000821008100C411A10137
:10380000A118421064186320A2308351C130E3280C
:10381000C320A22087398D52D46B903AAE4226192C
:10382000E618C510A410A410A410840883088310FF
:1038300063084208420862086208210041088210B9
:1038400062206118622042202118C32862202118BA
:103850006220001000106220822062288328A328A2
:10386000C438E5502669E5784268878925610020DB
:10387000612000106220822861208120E641832996
:103880006449C651E659C651C651C55143398020D5
:10389000A1200331A541C649E7518641664145391A
:1038A000C5010E54C6192319033182406A9AC8898A
:1038B0008779E9710549A328421025192401AE4BE7
:1038C0000D5CA83A50848A628330423842384120E5
:1038D00020086108C21020106228E9612230633894
:1038E000454AE0388069237A60384528061864180C
:1038F000400060080008041063100109031AC000AA
:10390000A110A410E62001106028A4510652C63967
:10391000C31082084521A9290D2AED210C2A67210F
:10392000E618C510A410A510A410840883088310FD
:1039300063084208420862086208410841084208D8
:1039400061206118411841182118832862206220E3
:103950004118622000100010622082284220622854
:103960006228013083500571A468625829820028BA
:103970000018822082202018E330C228C220C539D6
:1039800085498549C551275AC549C549A549C12811
:103990006018A541A649A641A641A6494539E32894
:1039A0006509706C0A4B0319A22824512DAB0569D7
:1039B00066694659623042204210C4102511492AD6
:1039C000883AA5216C63C7418330A3380128C328F6
:1039D0004010810881106118E859833062304649EF
:1039E00025210752EDA3C461C23844200510020806
:1039F000400020002210251823084419431181009B
:103A0000AB42E510240883200231A0206C73AA4247
:103A1000A719A200A300A8218A194A11E7082611B4
:103A2000C518C510A410A510A41084086308830845
:103A3000630842084208420862084208210821003F
:103A4000611862204118411841184220422062202A
:103A500041184118411800100010412062284220EE
:103A600041204230003021400569E45866618659A2
:103A70000018612041184118443103318118E228AF
:103A8000A120A541C549E651854184418541C2280F
:103A9000812085416439E649C641E328811803291C
:103AA0004419CA42EA4AC2182020E8714A8AE458F6
:103AB0008A820441822801186320A318E418E410C4
:103AC0000319652924216631043142202539611802
:103AD0004010A2184110454145494120043124318C
:103AE000E8084D524E83033982202410040802084E
:103AF00060086008221044108510C310252903189F
:103B00000932C5108510A32080182121E9524932BD
:103B10004A2A65094000E40807190819E710E5106A
:103B2000C510A510A410A510A41084108308630864
:103B300063086208420842084208620841082100FE
:103B40002110822041184118412021184120622073
:103B500041182118621862200010001042206228CB
:103B6000622841204128213061384561A348A7617E
:103B700020200018A220E320E2206118C228402063
:103B8000A1188539E649E649C64984416441E330D4
:103B9000812885418541A641853940108110032146
:103BA0002531C3188529A11820286A8A46698661AB
:103BB000AA72A220E43021188328A3288320A31806
:103BC000C428E428A31866310429C320863961106B
:103BD000821861108220C75962286120443103197C
:103BE0000B116B29E620A318200822084310410876
:103BF00080088008A3106308E408E308052905305D
:103C000001000200A41861104121401906324D5BE9
:103C10006A42A62180004000E518C618C510E510CC
:103C2000C510A510A510A510A41084108308630862
:103C300063086208620842084208420842084108D4
:103C400000108220621841184220211841202118BA
:103C5000211841184118411841180010001062281D
:103C600041202120822841202020C3402451865910
:103C7000E34000108118A210C2184010A228A23000
:103C8000C539E220A539C641C64164416441E330EB
:103C9000812864416541C64144294008C218032176
:103CA000A3288118E218812082406B920569A761E0
:103CB00065396110253142204220222022186220DD
:103CC00063202218C420A3184210A318821862107F
:103CD000E318032145390439A330C32864290209B4
:103CE000880086086410821081104108831020002B
:103CF0006000E318620025096301A309652965389E
:103D0000832042186210C218E43100112221CB62D4
:103D10006A5A443121212008A320A5206308E41019
:103D2000C510C510C510A510A410A4108308630801
:103D300063086308620842084208420842084208D1
:103D40000008411062184118422021184220211811
:103D5000211841182118211841182118011800189C
:103D60004220A22861182010A22841288238A340AE
:103D7000C761001020082000A110A2208228044161
:103D80008429A1102321E220233144392439233905
:103D9000A22865414431A641E220A1108110C11042
:103DA0000018611864290018E458C991E568665143
:103DB000A218A218C32821202120211883282120FD
:103DC0002220632043184210631883188210821047
:103DD00085290742C7394539C32885394321600001
:103DE00023004308A3186008A1186110210882105D
:103DF000E3106100C40844016602CA33A421E43818
:103E0000001862208218021901116642233187517D
:103E1000E961E651665280100000C520C518C41043
:103E2000C510A510A510A510A410A4108310830818
:103E30006308620862086208620842084208620871
:103E40000008000862184118421821184120211862
:103E50004118011841184118211842206220001011
:103E6000411861188118A21881184020C338002811
:103E70004549612840106008400841104120C3387E
:103E80008110E21803218110A220643944392439B9
:103E90006118A649653903296010C21881104008CD
:103EA00041204010A5310018C8814789A5700551EF
:103EB00061188210421801184220822004394120E2
:103EC0002220221822180110421883206210620852
:103ED000E73107328A4A2C63C320442981086000F5
:103EE0006208610882106010A1188118010805217C
:103EF000E4106308A50866014A13CE3C86226431AB
:103F000040180429A318E3106419E2182541C96177
:103F10004B722C730D74A94221006410C618A410B2
:103F2000A510C510A510A510A410A4108410830816
:103F30006308620842086208620842084108620891
:103F40004110000862184118411821182118211841
:103F500021184220411821184220412021184220D6
:103F6000001061188218611082186120EC7A086ACA
:103F70004128654120106110811040100018001880
:103F80006010A218C220E320811865396539A2208B
:103F9000611865396539E320811861104010E2200D
:103FA000C228A010222120206B9AA580E6806340C1
:103FB000611800088220212021182010822020185A
:103FC000421821184218422022202218A420410021
:103FD0004411A619D284CE6B042182106108A20874
:103FE0008208A210E318E21824296218A3182521D8
:103FF00062088410A610AA11CB0AD13C881A063A8E
:10400000610841008308620081000429E438C5404A
:104010000E7B293AD274926CE6080400A618C518E3
:10402000A510A510C510C518C510A410A4108310A4
:104030008310620842086208620842084108410889
:104040004108210821104218411841184120211827
:104050002118411841182118211821182118211858
:10406000001000108220822082204118296211A4B1
:10407000E3384541201020108118A21882206120C9
:10408000201000084118821881180329443181103A
:1040900020084431C220000820104118A220E32843
:1040A000233180100221A2306BA28580E678013096
:1040B0002110211082200118411841104010401891
:1040C000211821184220011801204220421882089C
:1040D0008519682A506CA621C310E418A310A20801
:1040E000A200A62164194421A210A218652903196F
:1040F000A108C42065186A214C0A3134EB2AA52195
:104100002519293A2200C4088208E320085AE951F7
:104110004621AB2A09020E2B0C2204006508C410AC
:10412000A510A510C510C510C410A41084108308D4
:104130008310630862086208620841084108620847
:10414000410821082108411041184118411821183F
:104150002118411841182118211821182118211857
:10416000411800100010A32862204120E4308A6A20
:104170002439A228243900100010C220A220C32014
:104180008220612020100008200820080008200854
:10419000C218601000084010C220A2288228E33014
:1041A0004331A118E22024490A92A580856801289C
:1041B000411041080110421862186110401020108F
:1041C0002018611820182118422801180110C31066
:1041D000A2008A32492A25114621E4186308C41036
:1041E000E40069328519C2088521E31884298321F6
:1041F0000119C22027418718EC19EE224D3BA41962
:104200002619C929A4084200A2106010C5396D6B97
:10421000692A090A2B0A8A014A1945008408E30819
:10422000A510A510A510A510A410A4108410830833
:104230008310630862086208420841084208620865
:10424000420841082108211041184218211821185C
:104250004118411841184118211821182118211816
:104260004118211800106220422062202118C32822
:10427000001082284541001881200008A21804215E
:10428000E438C330C328A220411020084008400869
:10429000A21800086110A220A228E330C33003391D
:1042A000E228A1186018A7618881E67822482120B9
:1042B000200882104218C42862182010401841209B
:1042C0002018612000104118422000102108A30886
:1042D000A200861166112619A410E518C410A300C7
:1042E00046096A32040925112511852967420532DC
:1042F00062218439874989414911EB11491AA4196E
:1043000084102200E418A21060080121E010A41912
:10431000A92AC8018901E808A710A518610043115E
:10432000A510A510A410A410A410A410A410830814
:104330008310630862086208620842084208620843
:104340004208420821082108421842182118211861
:104350004118411841184118211821182118211815
:1043600021184120012000184228622041184118DC
:10437000A220A228444161280010A2208218E3183C
:10438000A330E33844390431A220A218A2186008EF
:1043900061106110C220C220A22804390439A23061
:1043A000A12060180020087A46790671013841186A
:1043B000400881106210A3208218411820180018AC
:1043C0002018201841184118000801088210210007
:1043D000410066190519A41067310521E410292A46
:1043E0000609E508A408E510C5106729CB52E73196
:1043F0006419CA5AE851C528E71049096601A41191
:1044000023188318A2108008432980104119C41969
:104410008C436922C5008610A52063182000E100A6
:10442000A518C518A518A410A410A418A4108310CA
:104430008308830862086208620862086208410013
:104440004208620821082108421841180118211861
:104450002118211841182118211821182118211874
:104460004118001821180118622841188220A22042
:104470008120E33044418230001882208110C2182C
:104480008228454145412431453903298118A21824
:1044900000088118A220C228C328C328E33081283D
:1044A000A2202018213009822671E56000284018DA
:1044B00040086110C320822062184118201800189B
:1044C0002020001061182010000041106208000038
:1044D0000411041162088318C5204208C7296A32F2
:1044E0008508650885086508A608E618472906199D
:1044F000681946190421E420E61828094609030131
:104500008430832003194321643148520321C5219B
:104510002B43C619051942106320C320A210A10025
:10452000A518C518C518A510A410A41084108310D0
:1045300083088308620862088208820862084100D2
:104540006208620841082108411041182118211809
:104550002118211821182118211821182118211893
:1045600021182118011801182118621882208220B0
:1045700061180018E3384441001800084110410850
:104580008120E2300331643985410431A220C22008
:1045900000088218A220C3280329C328C22881202A
:1045A000811800188340E9812671A350202840100B
:1045B00040108218253183204218211821184120EB
:1045C0002018201820100008410842100000420066
:1045D0000411A3086308831884206310E310C20049
:1045E00084108510440865086500C6108410E71023
:1045F0004911A81923118531E410A500E6088F5B45
:104600000118E841A5290319E4202641A849E73902
:10461000A621E62903212429A2202429E418010047
:10462000A510C518C518A510A410A410A4108310B7
:1046300083088308620862086208820882086208A8
:1046400062084208420821102110411842204120EE
:104650002118211821182118211821182118211892
:1046600020182118211821100008821882204118D2
:10467000C228696A202024418128000820080000FF
:10468000201000086018C228C220A220A2206118B1
:1046900041186118A220A220E328E328A2200008E4
:1046A00040080010E458C88126714140402020187D
:1046B0004118411862184118421842182118001078
:1046C0002118411000080000621021080000830832
:1046D0000419C41083104210A420C318A308C200F8
:1046E0006210010863084300A408C3104629481952
:1046F0002801C809A732A221021905192721EA3980
:104700000218E418E6212832C520C638CA59ED62DD
:104710006A42C621E6310642A5392429883165104E
:104720008410A510C518A510A410A418A4108310F7
:1047300083088308620862086208620882088208A7
:1047400062084200420821080110211862206220FC
:1047500000182118211821182118211821182118B2
:104760004120001041186218211021108218612088
:104770004020EF9B696A40202439001061104110ED
:104780004010601820100008401881208220A228C4
:1047900020102010E328E328401000080000000843
:1047A000400000104661C989066900304020201091
:1047B00000104118001062202118211041184118E2
:1047C00041184110000821082108010842108308FF
:1047D0008200A30883108739E8494108C310A1006B
:1047E000400881106108A200A100E1080319E50852
:1047F0004801691AAD6CA33A6121E41827294308DE
:1048000066284518E620882967214529695A8D8B35
:10481000CA7A8972055A25520542253A873A841187
:104820002200A410A410C518A510C518A410841047
:10483000630863086308620842086208620882101D
:1048400062006208410842100108421842184218EA
:104850004220411821182118411821182118211827
:10486000411021182120212021180118212062281F
:1048700021184952AE7B2120054900206110A1007A
:104880008110812082288228612841188118C2184D
:104890004008611082186118000841184118612011
:1048A000A108002888894781E45061204118211817
:1048B0002118421842104118211821184118411896
:1048C00021100008000062080000A3084200A308AD
:1048D000462967312310C52043104308830862002E
:1048E0004108420883104100C21081108320A6189D
:1048F0002909CF22B4548822431923210511AA1172
:104900006318A3188731041986216529274AAE83C5
:104910006D8BB2AC519C6E735184EC528E63293214
:104920006308A410A510A410A410C410A410A4100F
:104930008308630863086208620862086208620804
:10494000620062084108421000082118411841180D
:10495000421821182118211841184118211821182E
:104960004110211801202120211821182120622026
:104970004118C320453100186651A3300000800063
:104980006110811882208228622841184010400856
:10499000A118811081184118411882206220411805
:1049A000A1080028A9912781A34841202018211897
:1049B00021184218421041182118211820104010C7
:1049C000211021084108210861084100A310620854
:1049D00087312A4A431063186310831083086208E2
:1049E000621083108308293A8208C218A320C520C8
:1049F00007114C22E809851164210419260917754D
:104A00006321C1104421273A031123196429074265
:104A10004952ED6ACF62AF52B46B0D3269210B3A45
:104A2000A4108410C5188410A410C510841084101C
:104A300083088310630863086208620862084208FA
:104A40006200620841084210000821102118211854
:104A5000411821182118411842184118211821180D
:104A6000411821180118212021182118211841204E
:104A70006220A21820108228A338E4406110800030
:104A80004008611081208228A228822061184008F5
:104A9000C218A11861184010A2208220822021187B
:104AA00080084130C991E678424041182010011831
:104AB00021184118421041182118211820102010E7
:104AC0000010001000082008A210C318610882100E
:104AD000C3188210A3186210621062084108A31064
:104AE000A3102200051945190411E310821805319D
:104AF00066296619E821E8312521C410A81153540C
:104B00004109A42103198629662124112832E7319D
:104B10000C63B17B8F4A2F32AE198C196A210721A1
:104B200084106308E518A410C510C51884108410FB
:104B300083108310630863086208620862084108F2
:104B40006200620841084210000821102118211853
:104B5000211821182118411842182118211821184C
:104B6000411821180118211841182118211821185D
:104B700082202008C220E438A3404551201080083C
:104B80004008611081208228A228C328A220811811
:104B90008110A21861186118A22861208220611872
:104BA00060088240C991C5680130411800100118A1
:104BB0002118411041182118211821182010201007
:104BC0002018201020108110C218C2188110C32094
:104BD00082186210610861088208E3182429A2186B
:104BE00083180421A308A300E4006619EC5A0429E1
:104BF0000329E320A6310521E620A5108811E8014C
:104C00000301C621E4102A422B32C5008719A721CF
:104C1000C831F283105BAC190E1A0D222719C41883
:104C200083084200E518C410C418C4108410A410EE
:104C300083108310620862086208620862086208D2
:104C40006200620841084210000821102118211852
:104C5000211821182118411842202118211821203B
:104C6000411821180118211841184118211820183D
:104C70006118811861184120C340044903390008B4
:104C80006010811882208228A228A228A2208118E0
:104C90006010A2206118A228A228822881208220E8
:104CA0002008E448C98984600028412000102118A8
:104CB00021184118411821182118211821102010FD
:104CC00000102010C218E2180321032124298218A1
:104CD00041106108A208C208C208442161082429C1
:104CE0006639A2182321031145098B3AEA3187312D
:104CF00069524752E328E428651824086719E81127
:104D000047116B422721682989212809E7004719A3
:104D1000A731A6392A42C9214801270983008210F8
:104D200063084200C410C410A410A410A410A4105E
:104D300083108310620862086208620862086208D1
:104D40006200620841084208000821102118211859
:104D5000211821182118411841182118212022203A
:104D6000411821182118211821184118211820183C
:104D7000822081186120822800280449654900109A
:104D800060108118A220A228C328C328C220A22014
:104D9000601081186118A2288230A2288120822008
:104DA0002010666188814350002861202018211856
:104DB00021184118411801180118411841102010FC
:104DC00000082010C318A2104942AF7BE4208318CA
:104DD0006210A308C200230144094511AB526E734F
:104DE0002952E220012102196511060907114C42DE
:104DF000F07BC641232904296418C6200519C72958
:104E000085084308E518E5182811C7000809A50812
:104E100004298541064A8A42A819E500E408620887
:104E2000630842008308E510A410A410A4108310A6
:104E30008308831063086208420842086208620817
:104E40006200620841084108000821102118211859
:104E50002118211821184118411821182118222041
:104E6000211821182118211821184118211821185A
:104E70004118811800108A6A286A0028855920285C
:104E800040106110A218E328E330E330C228C220AA
:104E9000601040108120A230823082306120811861
:104EA0002018E8714779224801286220211821182A
:104EB000211841182118011801184118211000105B
:104EC00001088210A308E310EC5256ADC418E52087
:104ED0008310A30065096501860986114A3A67298E
:104EE00005290329264A664A031906116A21292140
:104EF000062165290321032183104310E941A839C4
:104F0000641026292421C310E5100711E810E620BB
:104F10008541876ACC838952A7292711E610A510FD
:104F20006200420062000519C410C410A410830876
:104F300083088310831063084208420862086208ED
:104F40008200620841084108000821102118211838
:104F50002118211821182118211821182118222080
:104F60002118211821182118211841184118411819
:104F7000201082202018486234C5002886596138E4
:104F8000401040108118E328E330C330A228A2204B
:104F900061182010C228A230A2386228612081182E
:104FA0004020297A46710240012062200118211810
:104FB000011841182118001821184110201000086C
:104FC0000100A41063002511E8294E630521C518CE
:104FD000630805092401AE434D3BC811461926213B
:104FE00047216529EE83875A232105198608C710B2
:104FF00027292529C531021182086B4A2F6B894167
:105000008410C418073AAA4A66192719A618E52871
:105010000652AB8B56DE508CED528929C6088508A6
:10502000C40863004200C410A410A410A41084108B
:1050300083088310630862086208620862086208D5
:105040006100610041082108210821102118211860
:105050002118211821182118211821202120212070
:105060002118211821182118211821184118411838
:10507000201061204018C23091B465510351045989
:1050800020106118A220C22804310439A228C228A5
:1050900081186010A228E338C34082306120601874
:1050A00081306A8AC46001384228422021182118C0
:1050B000211820102118001820184110000800089D
:1050C000220863088300E5086619E510262184108C
:1050D0008408E5006601F36C9264A711A821C93128
:1050E000CA2146214529274A64318218A410851017
:1050F0006731E8418531C208030909320B42693939
:10510000A518830845210732293A88310629A328A2
:1051100063392973CD8335A5D1730B3AC92906119B
:10512000830083008300E510C410C410A41083081A
:1051300083088310630862086208620862086208D4
:10514000610062084208410821102110211821182D
:10515000211821182118211821182120212021206F
:105160002118211821182118211821182118411857
:1051700041180010822861206549A2380451256138
:10518000001861208118C32803312441E330A22094
:1051900060104010C2280441E348A238612840183A
:1051A00061382982C4600130622841182118211811
:1051B000211820102118001820184110000800089C
:1051C000631063086300A308C408E5188310A418DB
:1051D000A410051166090812E81166116B3AC9316D
:1051E0004811061967314952C3288118A210C41802
:1051F0000529C84166316100E30004096408A6205E
:10520000C610E610C40867212621A4184639485A5A
:10521000E54146425084B16B2C3A2819E931283ACD
:105220000511C40842008308C410C4108408A410E7
:1052300083088310630862086208620862086208D3
:10524000620862084108410821102118211821181C
:105250002118211821182118211821182118211886
:10526000211821184118211821182118211841103E
:1052700021180010612061202018C238245986713D
:10528000212841206120E328E33024410339A22072
:1052900060106010033125490451C3406128401853
:1052A0008148E881C4580130622842182118211829
:1052B0004118201021182118201841082000210829
:1052C00021084210A3106200C310C4188318C42020
:1052D000E420C310451165092401861925194208E7
:1052E0000619C5106831094A8218A110C210E310CE
:1052F000E520683963104100E308C621C41063103B
:105300006819071163002619462187318639A539A6
:10531000674AAA4A1274967CED294919C408642187
:10532000E929C829E5108300C510C5108410840838
:1053300083088310630862086208620862086208D2
:10534000620862084108210801102118211821185B
:105350002118211821182118211821182118211885
:10536000212041184118411821182118211821180D
:1053700021182120212061208120E2382559467101
:10538000834000208128C228E33004390339C22039
:105390008010601003312449E450A3406128401874
:1053A000E360A779A3500128422042182118211850
:1053B0004118201020182120201020002100621008
:1053C0006218621062086108410882102529A32032
:1053D00025290521041124112411C30862086A4AF1
:1053E000E4208318262926298310A2100309E30844
:1053F000051985182310A410C629C200A210621036
:10540000A4000511A829261905194521C6316429CA
:1054100065214A320C2A6B118C116919E931083A5D
:105420002611C92947198400C508E510C51083084D
:1054300084086310630862086208620862086208F0
:1054400062084208210801080010211821182118BB
:105450002118211821182118211821182118211884
:105460002120411841184118211821182118211014
:1054700021182120412081206018A1282451467143
:105480006661002861288120E3300439E330E22896
:10549000A1106008E228E340C348A3404028401020
:1054A00066718679835000286220422022182118D4
:1054B0004118201020182120201000004100621007
:1054C0006218C741620882088210C318C318EC6AC8
:1054D0008A5A0429E318C310C3108208E318452927
:1054E000A2206218A4186310A410E4100309040990
:1054F0002619E620A520E4200319A10881108118AF
:10550000C308C3104521252104118519CA424D5BEA
:1055100087212711CB21CC196A09E708A82967310F
:1055200063000611C5088400E510A510A510A4109D
:1055300084086310630862086208620862086208EF
:10554000620861082108210801102118211821187A
:105550002118211821182118211821182118411863
:105560002120411841184218212001182118211822
:105570002118012021208220811860184138E46020
:10558000097A01302028612004392441C230C22820
:1055900080104008E228E340A350C3484028601828
:1055A000C789667983500128622042202220211871
:1055B000411040100018202020100000410062100F
:1055C000E420C3186108A2102000A210E3180C63A5
:1055D00059CE4952C318252183104100A3106200FF
:1055E0004118821062088308A4100519E4084611C6
:1055F000293A8310663903290221A110A218411803
:1056000007426631E420C7390732C619071A292A2A
:1056100089212C424919C7004709A400C410C52894
:1056200027114711E608A508061984088408841084
:1056300084086310630862086208620862086208EE
:105640004108410821082110211041182118211872
:105650002118211821182118211821184118411842
:105660002118411841184218212001202118211821
:105670002218212021208218A118C2282551214852
:10568000E98163400020A22803390439C230C220D6
:1056900080104008E228E340A348C3486128A120C5
:1056A000E789257183502128622042202220211879
:1056B0002010401800182018201000006100620817
:1056C0006631620862088208C308E310E310862985
:1056D00086316631A3188318420883104100820086
:1056E000421083088200E310C418C418E518461954
:1056F00082088539065263394221273A4629852096
:10570000C741E749C749CB5A30740B3B8A22A811DD
:105710004819C7180719C500C400A300E51884205C
:105720002711C9216821A508A508A508C510640886
:1057300084086310630862086208620862086208ED
:1057400021002108210821102118411821180118D1
:105750002118211821182118211841184118411821
:105760002118411841184118212001200218211840
:10577000011822206228611840082752B2C4C46070
:10578000A879C4500020E338C330C330C230C220EF
:1057900080084000E228C340624882486128C1284E
:1057A000C789E470A35041306220421801182118C3
:1057B00020104018001820182010200062006208F5
:1057C00042008308C410E4104100820024116521C6
:1057D0000419C418C4204210420842008300820009
:1057E00084106300A200E308E3186210E520E518C6
:1057F000863112AD2A7B8239A752884A0521E728D3
:105800000010A328C420A7298A32315CD36C091266
:1058100087096709E500E51006196310A4186310ED
:105820000511E5086721C4086300C508C40883089A
:10583000A4088308620862086208620861084108D7
:1058400000102010211821182118211801200018FB
:105850000120011821182118411842184218421835
:1058600021186118410861108210211021180120AF
:1058700000204120411861184010C649D5CD48622A
:10588000057986692020C228E328E328A220A220E7
:1058900061180010C3280329E22003310030A45806
:1058A000A799E478E4680038623041202018411854
:1058B000411820104118A320000841104108410060
:1058C0004210420805214629630883080519C410BF
:1058D000E418C31082106208410821006208C3184E
:1058E00062188200E3082519C43023286731A30019
:1058F000358559BE4B622751063988312619AC4A85
:1059000021202118000841006200C3004609A400BC
:10591000A400A4000619E518C518841083100942D4
:105920000611A8291174CD4A6300C410C410A4083C
:105930006308630883108210821061082108000048
:10594000211021104118211821182118212021206F
:10595000212021182118211821182110211021108F
:105960000010210820084108611021102118212071
:105970000018011841188118401003312C83E338B6
:105980002571A76900180229C220A2208220A22026
:1059900082206118A228E3280329A228002846694A
:1059A000A89183686679C45000288228201820189E
:1059B00021102010411882180008410841084100B8
:1059C00062104108621063082200420083086308E5
:1059D0008310820862084108410862086208410891
:1059E000420025114509293AC52027390519E71133
:1059F00050540C4BC841C5302A52EC5A0832862903
:105A00002118211842106210620842002200630827
:105A1000230802080208010802088310A318EC5AA0
:105A2000E931E5106B4AAC4AC510A4106308831035
:105A30008310831063106210410821082008200899
:105A4000411841184118211821182118212021201E
:105A5000211821182118211821102110211021109E
:105A600041102108410861086208411001102220FC
:105A7000222021204118822041186120A2300020DC
:105A8000E468C7692020E22881188120A220A22092
:105A90004118A3286120C220A218A2280028C8719A
:105AA0004681A36825694561623821284120211873
:105AB00021182118211041104110420842084108C4
:105AC0004210621042084208830863084200420004
:105AD00041004108410841084108620862088310FA
