:020000040800F2
:100000000000012061020008650200086702000884
:100010007D0200087F020008950200080000000031
:10002000000000000000000000000000AB0200081B
:10003000AD02000800000000AF020008B102000895
:10004000C5020008C5020008C5020008C502000874
:10005000C5020008C5020008FD0300081D040008D1
:10006000C5020008C5020008C5020008C502000854
:10007000C5020008C5020008C5020008C502000844
:10008000C5020008C5020008C50200080000000003
:10009000000000000000000000000000C502000891
:1000A000C5020008C5020008C5020008C502000814
:1000B000C5020008C5020008C5020008C502000804
:1000C000C5020008C5020008C5020008C5020008F4
:1000D000C5020008C5020008C502000800000000B3
:1000E000C5020008C5020008C502000800000000A3
:1000F000000000000000000000000000C502000831
:1001000000000000C5020008C5020008C502000882
:1001100000000000000000000000000000000000DF
:10012000C5020008C5020008C5020008C502000893
:10013000C5020008000000000000000000000000F0
:10014000000000000000000000000000C5020008E0
:10015000C5020008C5020008C5020008C502000863
:10016000C5020008C50200080000000000000000F1
:10017000000000000000000000000000000000007F
:1001800000000000C50200080000000000000000A0
:10019000C502000807B500F0B7F8274B274883428F
:1001A00026D3274B274900208B422DD300F0B8F8E7
:1001B000254E264C01A9684600F09EF8A41BA41009
:1001C0000025AC4229DC224E224CA41BA4100025A1
:1001D000AC4227DCDDE9000100F0E0FA1E4D1F4CC7
:1001E000641B0646A410002C21DC304600F080F889
:1001F000D3E900120C3353F8044C891A9442CED937
:10020000555815600432F9E753F8082B53F8044C9D
:100210009442C9D910600432FAE756F8253098475D
:100220000135CEE756F8253098470135D0E7013C37
:1002300055F824309847D6E7C8020008E0020008C5
:10024000E0020008F0020008F0020008F0020008D6
:10025000F0020008F0020008F0020008F0020008B6
:1002600014480047FEE71EF0040F0CBFEFF30880B0
:10027000EFF309807146104A1047FEE7FEE71EF0D3
:10028000040F0CBFEFF30880EFF3098071460B4AAF
:100290001047FEE71EF0040F0CBFEFF30880EFF3EA
:1002A00009807146064A1047FEE7FEE7FEE7FEE7D3
:1002B00070470000950100087B02000893020008C7
:0602C000A9020008FEE7A0
:1002C800B008000800000020AC280020B008000892
:1002D8000000001000000010AC280020F8280020C2
:0802E8000000001000000010EE
:1002F00008B500F017F8000001230360014B0B6004
:10030000704700BF0000002008B500F01DF8024B48
:10031000024A9A6008BD00BF00ED00E0000000083E
:1003200000F032B8BFF34F8F0549064BCA6802F49C
:10033000E0621343CB60BFF34F8F00BFFDE700BF08
:1003400000ED00E00400FA050C4B1A68002142F0B1
:1003500001021A6099601A6822F0847222F48032D5
:100360001A60074A5A601A6822F480221A60D9601B
:10037000044B4FF000629A60704700BF00380240A3
:100380001030002400ED00E0174A1849936803F08C
:100390000C03042B10B50DD0082B0DD0144B0B60A3
:1003A000114B144A9B68C3F30313D25C0B68D34010
:1003B0000B6010BD104BF2E754685068526863023E
:1003C000C2F3881200F03F004CBF0B4B084BB3FB4D
:1003D000F0F35343044A5268C2F30142013252001F
:1003E000B3FBF2F3DBE700BF003802400800002057
:1003F0000024F400A008000840787D0108B5054BF2
:100400001B682BB19847044A536943F001035361B9
:1004100008BD00BFB0280020003C014008B5054BD6
:100420005B682BB19847044A536943F00203536158
:1004300008BD00BFB0280020003C014010B520B925
:10044000A1F10D03022B0BD810BD012804D1CB1E46
:10045000012BF9D9094B04E00228F5D1084B00E043
:10046000084B1868490003248C4020EA04001860F7
:10047000186802FA01F101431960E5E7000402403F
:10048000000802400000024030B520B9A1F10D0083
:10049000022834D830BD012819D1CC1E012CF9D93D
:1004A000234C6568884025EA0000606060688A40E7
:1004B00002436260A0684A000321914020EA0101E2
:1004C000A160A06803FA02F10143A160E2E70228FB
:1004D000E0D11848012544688D4024EA05044460B1
:1004E00044688A40224342608268490003248C4069
:1004F00022EA04028260826803FA01F114E00E48E5
:10050000012544688D4024EA0504446044688A401B
:100510002243426082684C000321A14022EA01028A
:100520008260826803FA04F111438160B2E700BF80
:1005300000040240000802400000024010B520B94B
:10054000A1F10D03022B0BD810BD012804D1CB1E45
:10055000012BF9D9094B04E00228F5D1084B00E042
:10056000084BD868490003248C4020EA0400D86076
:10057000D86802FA01F10143D960E5E700040240BE
:10058000000802400000024010B520B9A1F10D039F
:10059000022B0FD810BD012806D1CB1E012BF9D993
:1005A000012A19D1134B08E00228F3D1012A1DD1E9
:1005B000114B02E0012A05D1104B58698A400243D1
:1005C0005A61E7E7002AE5D10C48436901228A40D5
:1005D00023EA02024261DDE7002ADBD1054C6369B0
:1005E00000FA01F223EA02026261D3E7002AD1D1C4
:1005F0000148EAE70004024000080240000002400F
:1006000010B520B9A1F10D03022B2AD810BD012885
:1006100014D1CB1E012BF9D90729214C24D9A1F1E2
:100620000803606A9B000F21994020EA0101616282
:10063000616A02FA03F30B436362E7E70228E5D13C
:100640000729184C10D90839636A89000F2088409F
:1006500023EA00036362636A02FA01F119436162EB
:10066000D4E70729104C0CD8236A88000F21814059
:1006700023EA01032362216A02FA00F008432062A0
:10068000C4E7A1F10800636A80000F21814023EADA
:1006900001036362616A02FA00F008436062B5E731
:1006A000000402400008024000000240074B1A68A4
:1006B00042F001021A601A689207FCD59A6822F08B
:1006C00003029A609A689A60704700BF003802403F
:1006D000032822D8DFE800F0020A121A0F4A012389
:1006E000106C03FA01F10143116470470B4A0123B6
:1006F000506C03FA01F1014351647047074A01232A
:10070000106B03FA01F1014311637047034A01239F
:10071000506B03FA01F10143516370470038024006
:10072000104BDA6822F40052DA60DA6822F4805260
:10073000DA60DA6822F48062DA60DA6842F0040291
:10074000DA60DA6842F00802DA601A6922F480524C
:100750001A611A6922F400521A6140F283629A60A7
:10076000704700BF00100140024B58601A68120623
:10077000FCD5704700100140034B1A689206FCD567
:100780005868C0B2704700BF00100140024AD368E9
:1007900043F40053D3607047001001402DE9F0414D
:1007A000FFF784FF00210220FFF792FF0E210120B6
:1007B000FFF78EFF04210120FFF78AFF0022114678
:1007C0001046FFF73BFE002108460122FFF7B6FE68
:1007D000022209210020FFF731FE02220A21002017
:1007E000FFF72CFE072209210020FFF709FF07224F
:1007F0000A210020FFF704FF012211460020FFF725
:100800001DFE00231A4618460121214C214D224F7E
:10081000FFF73AFEFFF784FFFFF7B8FF00232380BE
:1008200023886B2B00D9FEE700262E804FF064084A
:1008300023882A8808FB03739A5C5AB9DFF85C8026
:1008400098F800304B2B1DD1002EECD123880133BA
:100850002380E5E71B7A352B07D12420FFF784FF9F
:1008600001262B8801332B80E2E70122114600206C
:10087000FFF78AFE23882A8808FB0373985CFFF73A
:1008800073FFEEE7FFF778FF88F80000D8E700BFB6
:10089000F4280020F02800200C000020F22800207E
:1008A0000000000000000000010203040607080920
:1008B000AC280020000000000024F4003A30323060
:1008C00030303030343038303046322A00000000CA
:1008D0000000000000000000000000000000000018
:1008E0000000000000000000000000000000000008
:1008F00000000000000000000000000000000000F8
:1009000000000000000000000000000000000000E7
:1009100000000000000000000000000000000000D7
:100920003A313034303030303030303030303132B5
:100930003036313432303030383635343230303091
:1009400038363734323030303838342A000000003E
:100950000000000000000000000000000000000097
:100960000000000000000000000000000000000087
:100970000000000000000000000000000000000077
:10098000000000003A3130343031303030374434F8
:100990003230303038374634323030303839353410
:1009A0003230303038303030303030303033312A3F
:1009B0000000000000000000000000000000000037
:1009C0000000000000000000000000000000000027
:1009D0000000000000000000000000000000000017
:1009E00000000000000000003A3130343032303076
:1009F00030303030303030303030303030303030F7
:100A000030303030303030303041423432303030BD
:100A10003839422A000000000000000000000000F9
:100A200000000000000000000000000000000000C6
:100A300000000000000000000000000000000000B6
:100A40000000000000000000000000003A313034D7
:100A50003033303030414434323030303830303060
:100A6000303030303041463432303030384231343A
:100A7000323030303839352A0000000000000000E4
:100A80000000000000000000000000000000000066
:100A90000000000000000000000000000000000056
:100AA0000000000000000000000000000000000046
:100AB0003A31303430343030304335343230303005
:100AC00038433534323030303843353432303030DA
:100AD00038433534323030303833342A00000000A7
:100AE0000000000000000000000000000000000006
:100AF00000000000000000000000000000000000F6
:100B000000000000000000000000000000000000E5
:100B1000000000003A313034303530303043353465
:100B20003230303038433534323030303843353479
:100B30003230303038433534323030303832342A85
:100B400000000000000000000000000000000000A5
:100B50000000000000000000000000000000000095
:100B60000000000000000000000000000000000085
:100B700000000000000000003A31303430363030E0
:100B80003043353432303030384335343230303021
:100B90003843353432303030384335343230303009
:100BA0003831342A0000000000000000000000007E
:100BB0000000000000000000000000000000000035
:100BC0000000000000000000000000000000000025
:100BD0000000000000000000000000003A31303446
:100BE00030373030304335343230303038433534BC
:100BF00032303030384335343230303038433534A9
:100C0000323030303830342A00000000000000005C
:100C100000000000000000000000000000000000D4
:100C200000000000000000000000000000000000C4
:100C300000000000000000000000000000000000B4
:100C40003A3130343038303030433534323030306F
:100C50003843353432303030384335343230303048
:100C600038303030303030303030332A000000003F
:100C70000000000000000000000000000000000074
:100C80000000000000000000000000000000000064
:100C90000000000000000000000000000000000054
:100CA000000000003A3130343039303030303030EC
:100CB0003030303030303030303030303030303034
:100CC0003030303030433534323030303831312A02
:100CD0000000000000000000000000000000000014
:100CE0000000000000000000000000000000000004
:100CF00000000000000000000000000000000000F4
:100D000000000000000000003A3130343041303043
:100D1000304335343230303038433534323030308F
:100D20003843353432303030384335343230303077
:100D30003844342A000000000000000000000000D9
:100D400000000000000000000000000000000000A3
:100D50000000000000000000000000000000000093
:100D60000000000000000000000000003A313034B4
:100D7000304230303043353432303030384335341F
:100D80003230303038433534323030303843353417
:100D9000323030303843342A0000000000000000B8
:100DA0000000000000000000000000000000000043
:100DB0000000000000000000000000000000000033
:100DC0000000000000000000000000000000000023
:100DD0003A313034304330303043353432303030D3
:100DE00038433534323030303843353432303030B7
:100DF00038433534323030303842342A0000000075
:100E000000000000000000000000000000000000E2
:100E100000000000000000000000000000000000D2
:100E200000000000000000000000000000000000C2
:100E3000000000003A313034304430303043353433
:100E40003230303038433534323030303843353456
:100E50003230303038303030303030303042332A79
:100E60000000000000000000000000000000000082
:100E70000000000000000000000000000000000072
:100E80000000000000000000000000000000000062
:100E900000000000000000003A31303430453030AE
:100EA00030433534323030303843353432303030FE
:100EB0003843353432303030383030303030303004
:100EC0003041332A00000000000000000000000054
:100ED0000000000000000000000000000000000012
:100EE0000000000000000000000000000000000002
:100EF0000000000000000000000000003A31303423
:100F000030463030303030303030303030303030CB
:100F100030303030303030303030303030433534B5
:100F2000323030303842312A00000000000000002A
:100F300000000000000000000000000000000000B1
:100F400000000000000000000000000000000000A1
:100F50000000000000000000000000000000000091
:100F60003A31303431303030303030303030303071
:100F7000304335343230303038433534323030302D
:100F800038433534323030303838322A00000000EF
:100F90000000000000000000000000000000000051
:100FA0000000000000000000000000000000000041
:100FB0000000000000000000000000000000000031
:100FC000000000003A3130343131303030303030D0
:100FD0003030303030303030303030303030303011
:100FE0003030303030303030303030303039462AE8
:100FF00000000000000000000000000000000000F1
:1010000000000000000000000000000000000000E0
:1010100000000000000000000000000000000000D0
:1010200000000000000000003A313034313230302E
:10103000304335343230303038433534323030306C
:101040003843353432303030384335343230303054
:101050003835332A000000000000000000000000C6
:101060000000000000000000000000000000000080
:101070000000000000000000000000000000000070
:101080000000000000000000000000003A31303491
:101090003133303030433534323030303830303026
:1010A0003030303030303030303030303030303040
:1010B000303030303037302A0000000000000000AF
:1010C0000000000000000000000000000000000020
:1010D0000000000000000000000000000000000010
:1010E0000000000000000000000000000000000000
:1010F0003A313034313430303030303030303030DC
:1011000030303030303030303030303030303030DF
:1011100030433534323030303836302A0000000069
:1011200000000000000000000000000000000000BF
:1011300000000000000000000000000000000000AF
:10114000000000000000000000000000000000009F
:10115000000000003A31303431353030304335341E
:101160003230303038433534323030303843353433
:101170003230303038433534323030303832332A40
:10118000000000000000000000000000000000005F
:10119000000000000000000000000000000000004F
:1011A000000000000000000000000000000000003F
:1011B00000000000000000003A3130343136303099
:1011C00030433534323030303843353432303030DB
:1011D0003830303030303030303030303030303007
:1011E0003033312A00000000000000000000000041
:1011F00000000000000000000000000000000000EF
:1012000000000000000000000000000000000000DE
:101210000000000000000000000000003A313034FF
:1012200031373030303030303030303030303030B6
:1012300030303030303030303030303030303030AE
:10124000303030303033462A00000000000000000B
:10125000000000000000000000000000000000008E
:10126000000000000000000000000000000000007E
:10127000000000000000000000000000000000006E
:101280003A31303431383030303030303030303046
:101290003043353432303030383030303030303028
:1012A00030303030303030303032302A0000000002
:1012B000000000000000000000000000000000002E
:1012C000000000000000000000000000000000001E
:1012D000000000000000000000000000000000000E
:1012E000000000003A313034313930303043353489
:1012F0003230303038303742353030463042374681
:101300003832373442323734383833343230462A80
:1013100000000000000000000000000000000000CD
:1013200000000000000000000000000000000000BD
:1013300000000000000000000000000000000000AD
:1013400000000000000000003A31303431413030FC
:101350003032364433323734423237343930303237
:1013600030384234323244443330304630423846EA
:101370003841372A00000000000000000000000093
:10138000000000000000000000000000000000005D
:10139000000000000000000000000000000000004D
:1013A0000000000000000000000000003A3130346E
:1013B00031423030303235344532363443303141C9
:1013C0003936383436303046303945463841343194
:1013D000424134313043392A00000000000000004F
:1013E00000000000000000000000000000000000FD
:1013F00000000000000000000000000000000000ED
:1014000000000000000000000000000000000000DC
:101410003A3130343143303030303032354143347A
:10142000323239444332323445323234434134313A
:1014300042413431303030323536312A000000003C
:10144000000000000000000000000000000000009C
:10145000000000000000000000000000000000008C
:10146000000000000000000000000000000000007C
:10147000000000003A3130343144303030414334E0
:1014800032323744434444453930303031303046CD
:101490003030364641314534443146344336312AC2
:1014A000000000000000000000000000000000003C
:1014B000000000000000000000000000000000002C
:1014C000000000000000000000000000000000001C
:1014D00000000000000000003A3130343145303067
:1014E00030363431423036343641343130303032B7
:1014F000433231444333303436303046303830466E
:101500003834392A0000000000000000000000000C
:1015100000000000000000000000000000000000CB
:1015200000000000000000000000000000000000BB
:101530000000000000000000000000003A313034DC
:101540003146303030443345393030313230433336
:101550003335334638303434433839314139343413
:10156000324345443946372A00000000000000009D
:10157000000000000000000000000000000000006B
:10158000000000000000000000000000000000005B
:10159000000000000000000000000000000000004B
:1015A0003A31303432303030303535353831353607
:1015B00030303433324639453735334638303832B7
:1015C00042353346383034344335442A0000000075
:1015D000000000000000000000000000000000000B
:1015E00000000000000000000000000000000000FB
:1015F00000000000000000000000000000000000EB
:10160000000000003A313034323130303039343477
:101610003243394439313036303034333246414543
:101620003735364638323533303938343731442A55
:1016300000000000000000000000000000000000AA
:10164000000000000000000000000000000000009A
:10165000000000000000000000000000000000008A
:1016600000000000000000003A31303432323030E7
:1016700030303133354345453735364638323533EA
:101680003039383437303133354430453730313301
:101690004346372A00000000000000000000000060
:1016A000000000000000000000000000000000003A
:1016B000000000000000000000000000000000002A
:1016C0000000000000000000000000003A3130344B
:1016D00032333030303535463832343330393834BF
:1016E000374436453743383432303030384530347B
:1016F000323030303830352A000000000000000061
:1017000000000000000000000000000000000000D9
:1017100000000000000000000000000000000000C9
:1017200000000000000000000000000000000000B9
:101730003A31303432343030304530343230303079
:101740003846303432303030384630343230303051
:1017500038463034323030303839362A0000000014
:101760000000000000000000000000000000000079
:101770000000000000000000000000000000000069
:101780000000000000000000000000000000000059
:10179000000000003A3130343235303030463034D9
:1017A00032303030384630343230303038463034F1
:1017B0003230303038463034323030303837362AF4
:1017C0000000000000000000000000000000000019
:1017D0000000000000000000000000000000000009
:1017E00000000000000000000000000000000000F9
:1017F00000000000000000003A3130343236303052
:101800003031343438303034374645453731454649
:10181000303034304630434246454646333038381F
:101820003037302A000000000000000000000000F7
:1018300000000000000000000000000000000000A8
:101840000000000000000000000000000000000098
:101850000000000000000000000000003A313034B9
:10186000323730303045464633303938303731340E
:1018700036313034413130343746454537464545B9
:10188000373145463039332A00000000000000009F
:101890000000000000000000000000000000000048
:1018A0000000000000000000000000000000000038
:1018B0000000000000000000000000000000000028
:1018C0003A313034323830303030343046304342C0
:1018D0004645464633303838304546463330393849
:1018E00030373134363042344136462A0000000069
:1018F00000000000000000000000000000000000E8
:1019000000000000000000000000000000000000D7
:1019100000000000000000000000000000000000C7
:10192000000000003A313034323930303031303458
:1019300037464545373145463030343046304342EE
:101940004645464633303838304546463341412ACD
:101950000000000000000000000000000000000087
:101960000000000000000000000000000000000077
:101970000000000000000000000000000000000067
:1019800000000000000000003A31303432413030B5
:101990003030393830373134363036344131303404
:1019A000374645453746454537464545374645451B
:1019B0003739332A0000000000000000000000005A
:1019C0000000000000000000000000000000000017
:1019D0000000000000000000000000000000000007
:1019E0000000000000000000000000003A31303428
:1019F00032423030303730343730303030393534AF
:101A00003130303038374234323030303839333496
:101A1000323030303843372A000000000000000028
:101A200000000000000000000000000000000000B6
:101A300000000000000000000000000000000000A6
:101A40000000000000000000000000000000000096
:101A50003A3036343243303030413934323030303D
:101A6000384645453732302A0000000000000000AB
:101A70000000000000000000000000000000000066
:101A80000000000000000000000000000000000056
:101A90000000000000000000000000000000000046
:101AA0000000000000000000000000000000000036
:101AB000000000003A3130343243383030323834AC
:101AC00036303030383030303030303230304330F3
:101AD0003030303230323834363030303841452AC8
:101AE00000000000000000000000000000000000F6
:101AF00000000000000000000000000000000000E6
:101B000000000000000000000000000000000000D5
:101B100000000000000000003A3130343244383018
:101B200030303030303030313030303030303031B3
:101B3000303043303030303230313030303030328D
:101B40003035412A000000000000000000000000C5
:101B50000000000000000000000000000000000085
:101B60000000000000000000000000000000000075
:101B70000000000000000000000000003A3038348F
:101B80003245383030303030303030313030303035
:101B9000303030313041452A0000000000000000A4
:101BA0000000000000000000000000000000000035
:101BB0000000000000000000000000000000000025
:101BC0000000000000000000000000000000000015
:101BD0000000000000000000000000000000000005
:101BE0003A31303432463030303038423530304699
:101BF00030313746383030303030313233303336B0
:101C000030303134423042363043342A0000000054
:101C100000000000000000000000000000000000C4
:101C200000000000000000000000000000000000B4
:101C300000000000000000000000000000000000A4
:101C4000000000003A313034333030303037303437
:101C50003730304246303030303030323030384239
:101C60003530304630314446383032344230382A0C
:101C70000000000000000000000000000000000064
:101C80000000000000000000000000000000000054
:101C90000000000000000000000000000000000044
:101CA00000000000000000003A31303433313030A1
:101CB00030303234413941363030384244303042AD
:101CC00046303045443030453030303430303030BC
:101CD0003842452A0000000000000000000000001B
:101CE00000000000000000000000000000000000F4
:101CF00000000000000000000000000000000000E4
:101D00000000000000000000000000003A31303404
:101D1000333230303030304630333242384246464B
:101D20003334463846303534393036344243413620
:101D3000383032463435432A0000000000000000ED
:101D40000000000000000000000000000000000093
:101D50000000000000000000000000000000000083
:101D60000000000000000000000000000000000073
:101D70003A31303433333030304530363231333429
:101D8000334342363042464633344638463030429A
:101D900046464445373030424643382A000000006A
:101DA0000000000000000000000000000000000033
:101DB0000000000000000000000000000000000023
:101DC0000000000000000000000000000000000013
:101DD000000000003A313034333430303030304598
:101DE0004430304530303430304641303530433483
:101DF0004231413638303032313432463037312A90
:101E000000000000000000000000000000000000D2
:101E100000000000000000000000000000000000C2
:101E200000000000000000000000000000000000B2
:101E300000000000000000003A313034333530300B
:101E40003030313032314136303939363031413647
:101E50003832324630383437323232463438303322
:101E60003239352A000000000000000000000000A8
:101E70000000000000000000000000000000000062
:101E80000000000000000000000000000000000052
:101E90000000000000000000000000003A31303473
:101EA00033363030303141363030373441354136D9
:101EB00030314136383232463438303232314136C0
:101EC000304439363044422A00000000000000004F
:101ED0000000000000000000000000000000000002
:101EE00000000000000000000000000000000000F2
:101EF00000000000000000000000000000000000E2
:101F00003A3130343337303030303434423446466E
:101F10003030303632394136303730343730304275
:101F200046303033383032343036332A0000000047
:101F300000000000000000000000000000000000A1
:101F40000000000000000000000000000000000091
:101F50000000000000000000000000000000000081
:101F6000000000003A313034333830303031303313
:101F70003030303234303045443030453031373411
:101F80004131383439393336383033463034432AE6
:101F90000000000000000000000000000000000041
:101FA0000000000000000000000000000000000031
:101FB0000000000000000000000000000000000021
:101FC00000000000000000003A3130343339303076
:101FD0003030433033303432423130423530444493
:101FE000303038324230444430313434423042367A
:101FF0003036332A0000000000000000000000001E
:1020000000000000000000000000000000000000D0
:1020100000000000000000000000000000000000C0
:102020000000000000000000000000003A313034E1
:102030003341303030313134423134344139423639
:10204000384333463330333133443235433042360C
:10205000384433343044302A0000000000000000CF
:102060000000000000000000000000000000000070
:102070000000000000000000000000000000000060
:102080000000000000000000000000000000000050
:102090003A313034334230303030423630313042F1
:1020A00044313034424632453735343638353036AF
:1020B00038353236383633303246452A0000000093
:1020C0000000000000000000000000000000000010
:1020D0000000000000000000000000000000000000
:1020E00000000000000000000000000000000000F0
:1020F000000000003A313034334330303043324650
:102100003338383132303046303346303034434261
:102110004630423442303834424233464230442A18
:1021200000000000000000000000000000000000AF
:10213000000000000000000000000000000000009F
:10214000000000000000000000000000000000008F
:1021500000000000000000003A31303433443030D9
:10216000304630463335333433303434413532360B
:102170003843324633303134323031333235323015
:102180003044462A0000000000000000000000006B
:10219000000000000000000000000000000000003F
:1021A000000000000000000000000000000000002F
:1021B0000000000000000000000000003A31303450
:1021C000334530303042334642463246334442454E
:1021D00037303042463030333830323430303830B7
:1021E000303030323031372A00000000000000006B
:1021F00000000000000000000000000000000000DF
:1022000000000000000000000000000000000000CE
:1022100000000000000000000000000000000000BE
:102220003A31303433463030303030323446343066
:102230003031383436303030383430373837443055
:1022400031313042353230423936422A0000000006
:10225000000000000000000000000000000000007E
:10226000000000000000000000000000000000006E
:10227000000000000000000000000000000000005E
:10228000000000003A3130343430303030413146D3
:1022900031304430333032324230424438313042CF
:1022A0004430313238303444314342314534362AB7
:1022B000000000000000000000000000000000001E
:1022C000000000000000000000000000000000000E
:1022D00000000000000000000000000000000000FE
:1022E00000000000000000003A313034343130305A
:1022F0003030313242463944393039344230344555
:10230000303032323846354431303834423030455E
:102310003034332A000000000000000000000000FC
:1023200000000000000000000000000000000000AD
:10233000000000000000000000000000000000009D
:102340000000000000000000000000003A313034BE
:102350003432303030303834423138363834393035
:102360003030333234384334303230454130343019
:10237000303138363046372A0000000000000000B7
:10238000000000000000000000000000000000004D
:10239000000000000000000000000000000000003D
:1023A000000000000000000000000000000000002D
:1023B0003A313034343330303031383638303246D8
:1023C000413031463130313433313936304535459D
:1023D00037303030343032343033462A0000000099
:1023E00000000000000000000000000000000000ED
:1023F00000000000000000000000000000000000DD
:1024000000000000000000000000000000000000CC
:10241000000000003A313034343430303030303065
:102420003830323430303030303032343033304283
:102430003532304239413146313044303038332A38
:10244000000000000000000000000000000000008C
:10245000000000000000000000000000000000007C
:10246000000000000000000000000000000000006C
:1024700000000000000000003A31303434353030C4
:1024800030303232383334443833304244303132F1
:102490003831394431434331453031324346394490
:1024A0003933442A00000000000000000000000052
:1024B000000000000000000000000000000000001C
:1024C000000000000000000000000000000000000C
:1024D0000000000000000000000000003A3130342D
:1024E0003436303030323334433635363838383499
:1024F0003032354541303030303630363036303697
:10250000383841343045372A000000000000000010
:1025100000000000000000000000000000000000BB
:1025200000000000000000000000000000000000AB
:10253000000000000000000000000000000000009B
:102540003A3130343437303030303234333632365A
:102550003041303638344130303033323139313433
:1025600030323045413031303145322A00000000F0
:10257000000000000000000000000000000000005B
:10258000000000000000000000000000000000004B
:10259000000000000000000000000000000000003B
:1025A000000000003A3130343438303030413136B8
:1025B00030413036383033464130324631303134B4
:1025C0003341313630453245373032323846422A8F
:1025D00000000000000000000000000000000000FB
:1025E00000000000000000000000000000000000EB
:1025F00000000000000000000000000000000000DB
:1026000000000000000000003A313034343930302E
:102610003045304431313834383031323534343665
:10262000383844343032344541303530343434363F
:102630003042312A000000000000000000000000CD
:10264000000000000000000000000000000000008A
:10265000000000000000000000000000000000007A
:102660000000000000000000000000003A3130349B
:10267000344130303034343638384134303232340A
:102680003334323630383236383439303030333211
:10269000343843343036392A00000000000000008E
:1026A000000000000000000000000000000000002A
:1026B000000000000000000000000000000000001A
:1026C000000000000000000000000000000000000A
:1026D0003A313034344230303032324541303430A7
:1026E000323832363038323638303346413031467F
:1026F00031313445303045343845352A000000004A
:1027000000000000000000000000000000000000C9
:1027100000000000000000000000000000000000B9
:1027200000000000000000000000000000000000A9
:10273000000000003A313034344330303030313230
:10274000353434363838443430323445413035301D
:102750003434343630343436383841343031432A26
:102760000000000000000000000000000000000069
:102770000000000000000000000000000000000059
:102780000000000000000000000000000000000049
:1027900000000000000000003A3130343444303092
:1027A00030323234333432363038323638344330E3
:1027B00030303332314131343032324541303130D2
:1027C0003238422A00000000000000000000000033
:1027D00000000000000000000000000000000000F9
:1027E00000000000000000000000000000000000E9
:1027F0000000000000000000000000003A3130340A
:10280000344530303038323630383236383033466E
:10281000413034463131313433383136304232454B
:10282000373030424638312A0000000000000000F6
:102830000000000000000000000000000000000098
:102840000000000000000000000000000000000088
:102850000000000000000000000000000000000078
:102860003A31303434463030303030303430323435
:102870003030303038303234303030303030323444
:1028800030313042353230423934432A00000000C2
:102890000000000000000000000000000000000038
:1028A0000000000000000000000000000000000028
:1028B0000000000000000000000000000000000018
:1028C000000000003A31303435303030304131468C
:1028D0003130443033303232423046443831304285
:1028E0004430313238303644314342314533462A60
:1028F00000000000000000000000000000000000D8
:1029000000000000000000000000000000000000C7
:1029100000000000000000000000000000000000B7
:1029200000000000000000003A3130343531303012
:102930003030313242463944393031324131394414
:102940003131333442303845303032323846334416
:102950003135342A000000000000000000000000B3
:102960000000000000000000000000000000000067
:102970000000000000000000000000000000000057
:102980000000000000000000000000003A31303478
:1029900035323030303031324131444431313134EC
:1029A00042303245303031324130354431313034CB
:1029B000423538363931372A000000000000000067
:1029C0000000000000000000000000000000000007
:1029D00000000000000000000000000000000000F7
:1029E00000000000000000000000000000000000E7
:1029F0003A3130343533303030384134303032349D
:102A0000333541363145374537303032414535442D
:102A100031304334383433363930332A0000000043
:102A200000000000000000000000000000000000A6
:102A30000000000000000000000000000000000096
:102A40000000000000000000000000000000000086
:102A5000000000003A31303435343030303031321B
:102A6000323841343032334541303230323432360C
:102A70003144444537303032414442443133302AC6
:102A80000000000000000000000000000000000046
:102A90000000000000000000000000000000000036
:102AA0000000000000000000000000000000000026
:102AB00000000000000000003A313034353530307D
:102AC0003030353443363336393030464130314694
:102AD000323233454130323032363236314433458A
:102AE0003743332A0000000000000000000000000F
:102AF00000000000000000000000000000000000D6
:102B000000000000000000000000000000000000C5
:102B10000000000000000000000000003A313034E6
:102B20003536303030303032414431443130313458
:102B30003845414537303030343032343030303041
:102B4000383032343044352A0000000000000000E4
:102B50000000000000000000000000000000000075
:102B60000000000000000000000000000000000065
:102B70000000000000000000000000000000000055
:102B80003A31303435373030303030303030323424
:102B900030303734423141363834324630303130DB
:102BA00032314136303141363846342A0000000097
:102BB0000000000000000000000000000000000015
:102BC0000000000000000000000000000000000005
:102BD00000000000000000000000000000000000F5
:102BE000000000003A31303435383030303932307E
:102BF0003746434435394136383232463030333047
:102C00003239413630394136383941363042322A4C
:102C100000000000000000000000000000000000B4
:102C200000000000000000000000000000000000A4
:102C30000000000000000000000000000000000094
:102C400000000000000000003A31303435393030E7
:102C50003037303437303042463030333830323429
:102C600030303332383232443844464538303046DA
:102C70003034462A00000000000000000000000080
:102C80000000000000000000000000000000000044
:102C90000000000000000000000000000000000034
:102CA0000000000000000000000000003A31303455
:102CB00035413030303032304131323141304634BC
:102CC0004130313233313036433033464130314692
:102CD000313031343341372A000000000000000059
:102CE00000000000000000000000000000000000E4
:102CF00000000000000000000000000000000000D4
:102D000000000000000000000000000000000000C3
:102D10003A31303435423030303131363437303476
:102D20003730423441303132333530364330334638
:102D300041303146313031343336372A000000001B
:102D40000000000000000000000000000000000083
:102D50000000000000000000000000000000000073
:102D60000000000000000000000000000000000063
:102D7000000000003A3130343543303030353136E0
:102D80003437303437303734413031323331303604
:102D90004230334641303146313031343335432AC5
:102DA0000000000000000000000000000000000023
:102DB0000000000000000000000000000000000013
:102DC0000000000000000000000000000000000003
:102DD00000000000000000003A313034354430304B
:102DE00030313136333730343730333441303132AB
:102DF000333530364230334641303146313031346C
:102E00003335312A000000000000000000000000FF
:102E100000000000000000000000000000000000B2
:102E200000000000000000000000000000000000A2
:102E30000000000000000000000000003A313034C3
:102E40003545303030353136333730343730303344
:102E500038303234303038423546464637433346D0
:102E6000463030323135302A0000000000000000CA
:102E70000000000000000000000000000000000052
:102E80000000000000000000000000000000000042
:102E90000000000000000000000000000000000032
:102EA0003A313034354630303030323230464646B2
:102EB00037443146463030323130383436303132B2
:102EC00032464646374645464534462A000000000D
:102ED00000000000000000000000000000000000F2
:102EE00000000000000000000000000000000000E2
:102EF00000000000000000000000000000000000D2
:102F0000000000003A31303436303030303030326A
:102F10003231313436313034363031323346464650
:102F20003731454646303032313031323236302A50
:102F30000000000000000000000000000000000091
:102F40000000000000000000000000000000000081
:102F50000000000000000000000000000000000071
:102F600000000000000000003A31303436313030CB
:102F70003030383436464646373733464646454580
:102F8000373030303030303030303030303030303A
:102F90003046462A0000000000000000000000004B
:102FA0000000000000000000000000000000000021
:102FB0000000000000000000000000000000000011
:102FC0000000000000000000000000003A3038342B
:102FD00036323030303031303230333034303630D9
:102FE000373038303936412A000000000000000038
:102FF00000000000000000000000000000000000D1
:1030000000000000000000000000000000000000C0
:1030100000000000000000000000000000000000B0
:1030200000000000000000000000000000000000A0
:103030003A3043343632383030304330303030324A
:103040003030303030303030303030323446343060
:103050003034322A000000000000000000000000B0
:103060000000000000000000000000000000000060
:103070000000000000000000000000000000000050
:103080000000000000000000000000000000000040
:10309000000000003A3034303030303035303830D5
:1030A000303431393531392A000000000000000089
:1030B0000000000000000000000000000000000010
:1030C0000000000000000000000000000000000000
:1030D00000000000000000000000000000000000F0
:1030E00000000000000000000000000000000000E0
:1030F00000000000000000003A3030303030303046
:103100003146460000000000000000000000000002
:1031100000000000000000000000000000000000AF
:10312000000000000000000000000000000000009F
:10313000000000000000000000000000000000008F
:10314000000000000000000000000000000000007F
:0C31500000000000000000000000000073
:040000050800019559
:00000001FF
