:020000040800F2
:100000000000012061020008650200086702000884
:100010007D0200087F020008950200080000000031
:10002000000000000000000000000000AB0200081B
:10003000AD02000800000000AF020008B102000895
:10004000C5020008C5020008C5020008C502000874
:10005000C5020008C5020008C5020008C504000862
:10006000C5020008C5020008C5020008C502000854
:10007000C5020008C5020008C5020008C502000844
:10008000C5020008C5020008C50200080000000003
:10009000000000000000000000000000C502000891
:1000A000C5020008C5020008C5020008C502000814
:1000B000C5020008C5020008C5020008C502000804
:1000C000C5020008C5020008C5020008C5020008F4
:1000D000C5020008C5020008C502000800000000B3
:1000E000C5020008C5020008C502000800000000A3
:1000F000000000000000000000000000C502000831
:1001000000000000C5020008C5020008C502000882
:1001100000000000000000000000000000000000DF
:10012000FD030008C5020008C5020008C50200085A
:10013000C5020008000000000000000000000000F0
:10014000000000000000000000000000C5020008E0
:10015000C5020008C5020008C5020008C502000863
:10016000C5020008C50200080000000000000000F1
:10017000000000000000000000000000000000007F
:1001800000000000C50200080000000000000000A0
:10019000C502000807B500F0B7F8274B274883428F
:1001A00026D3274B274900208B422DD300F0B8F8E7
:1001B000254E264C01A9684600F09EF8A41BA41009
:1001C0000025AC4229DC224E224CA41BA4100025A1
:1001D000AC4227DCDDE9000100F0C6FB1E4D1F4CE0
:1001E000641B0646A410002C21DC304600F080F889
:1001F000D3E900120C3353F8044C891A9442CED937
:10020000555815600432F9E753F8082B53F8044C9D
:100210009442C9D910600432FAE756F8253098475D
:100220000135CEE756F8253098470135D0E7013C37
:1002300055F824309847D6E7C8020008E0020008C5
:10024000E0020008F0020008F0020008F0020008D6
:10025000F0020008F0020008F0020008F0020008B6
:1002600014480047FEE71EF0040F0CBFEFF30880B0
:10027000EFF309807146104A1047FEE7FEE71EF0D3
:10028000040F0CBFEFF30880EFF3098071460B4AAF
:100290001047FEE71EF0040F0CBFEFF30880EFF3EA
:1002A00009807146064A1047FEE7FEE7FEE7FEE7D3
:1002B00070470000950100087B02000893020008C7
:0602C000A9020008FEE7A0
:1002C800300B0008000000200C000020300B000854
:1002D80000000010000000100C0000207400002036
:0802E8000000001000000010EE
:1002F00008B500F017F8000001230360014B0B6004
:10030000704700BF0000002008B500F01DF8024B48
:10031000024A9A6008BD00BF00ED00E0000000083E
:1003200000F032B8BFF34F8F0549064BCA6802F49C
:10033000E0621343CB60BFF34F8F00BFFDE700BF08
:1003400000ED00E00400FA050C4B1A68002142F0B1
:1003500001021A6099601A6822F0847222F48032D5
:100360001A60074A5A601A6822F480221A60D9601B
:10037000044B4FF000629A60704700BF00380240A3
:100380001030002400ED00E0174A1849936803F08C
:100390000C03042B10B50DD0082B0DD0144B0B60A3
:1003A000114B144A9B68C3F30313D25C0B68D34010
:1003B0000B6010BD104BF2E754685068526863023E
:1003C000C2F3881200F03F004CBF0B4B084BB3FB4D
:1003D000F0F35343044A5268C2F30142013252001F
:1003E000B3FBF2F3DBE700BF003802400800002057
:1003F0000024F400200B000840787D01014B1B68AD
:10040000184700BF1000002000F0FC0303F18043F8
:1004100003F59C3300F003009A6810B580000F24A8
:10042000844022EA04029A609A6801FA00F01043BC
:10043000986010BD11B1012907D07047064B01210A
:100440001A688140114319607047034A136881405C
:1004500023EA010111607047003C0140012903D0EB
:100460000CD3022916D070470F4BDA6881400A433B
:10047000DA60986820EA0101996070470A4B01210F
:100480009A6801FA00F002439A60D96821EA0000F4
:10049000D8607047044B01219A6801FA00F00243CA
:1004A0009A60DA681043F3E7003C014008B1014B61
:1004B000186070473000002008B1014B5860704749
:1004C0003000002008B5054B5B682BB19847044A03
:1004D000536943F00203536108BD00BF30000020A0
:1004E000003C014010B520B9A1F10D03022B0BD83F
:1004F00010BD012804D1CB1E012BF9D9094B04E012
:100500000228F5D1084B00E0084B18684900032485
:100510008C4020EA04001860186802FA01F10143D7
:100520001960E5E7000402400008024000000240B4
:1005300030B520B9A1F10D00022834D830BD012812
:1005400019D1CC1E012CF9D9234C6568884025EAC5
:100550000000606060688A4002436260A0684A00F0
:100560000321914020EA0101A160A06803FA02F191
:100570000143A160E2E70228E0D118480125446860
:100580008D4024EA0504446044688A402243426066
:100590008268490003248C4022EA04028260826857
:1005A00003FA01F114E00E48012544688D4024EA65
:1005B0000504446044688A402243426082684C00DB
:1005C0000321A14022EA01028260826803FA04F159
:1005D00011438160B2E700BF0004024000080240FE
:1005E0000000024010B520B9A1F10D03022B0BD879
:1005F00010BD012804D1CB1E012BF9D9094B04E011
:100600000228F5D1084B00E0084BD86849000324C4
:100610008C4020EA0400D860D86802FA01F1014356
:10062000D960E5E7000402400008024000000240F3
:1006300010B520B9A1F10D03022B0FD810BD012870
:1006400006D1CB1E012BF9D9012A19D1134B08E091
:100650000228F3D1012A1DD1114B02E0012A05D154
:10066000104B58698A4002435A61E7E7002AE5D1F6
:100670000C48436901228A4023EA02024261DDE715
:10068000002ADBD1054C636900FA01F223EA020279
:100690006261D3E7002AD1D10148EAE700040240B1
:1006A000000802400000024043099B0003F1604340
:1006B00003F5614300F01F021968012090400843D0
:1006C00018607047134B1B78033B042B21D8DFE8DD
:1006D00003F0030C10141800090100F1604000F54C
:1006E0006140C9B280F800137047120142EA41111B
:1006F000F3E7120142EA8111EFE7120142EAC11168
:10070000EBE700F16040120100F56140D2B280F8E1
:100710000023704770000020044B054A1870054BF9
:10072000136043EA00231360704700BF700000208D
:100730000CED00E00000FA05074B1A6842F00102D8
:100740001A601A689207FCD59A6822F003029A6030
:100750009A689A60704700BF00380240032822D888
:10076000DFE800F0020A121A0F4A0123106C03FAA4
:1007700001F10143116470470B4A0123506C03FAE5
:1007800001F1014351647047074A0123106B03FADA
:1007900001F1014311637047034A0123506B03FACF
:1007A00001F101435163704700380240024A136867
:1007B00023F004031360704710E000E0044B0022B4
:1007C00058609A601A6842F001021A60704700BFD0
:1007D00010E000E0024B1868C0F30040704700BF13
:1007E00010E000E010B1012806D07047054A1368F8
:1007F00043F0020313607047024A136823F00203B8
:10080000F8E700BF10E000E0014608B50120FFF75F
:10081000E9FF4FF4FA604843FFF7D0FFFFF7DAFF34
:100820000028FBD008BD08B5002210460721FFF7BD
:10083000FFFE002108460122FFF7FAFE4FF47A700E
:10084000FFF7E2FF002211461046FFF7F1FE0122FA
:1008500011460020FFF7ECFE4FF47A70FFF7D4FF4B
:10086000002210460121FFF7E3FE012202210020B1
:10087000FFF7DEFE4FF47A70FFF7C6FF0022104646
:100880000221FFF7D5FE012203210020FFF7D0FE51
:100890004FF47A70FFF7B8FF002210460321FFF7EC
:1008A000C7FE012204210020FFF7C2FE4FF47A7038
:1008B000FFF7AAFF002210460421FFF7B9FE01222C
:1008C00005210020FFF7B4FE4FF47A70FFF79CFF7C
:1008D000002210460521FFF7ABFE01220621002071
:1008E000FFF7A6FE4FF47A70FFF78EFF0022104646
:1008F0000621FFF79DFE012207210020FFF798FE49
:100900004FF47A70FFF780FF8EE7002208B511469A
:100910001046FFF78DFE002210460121FFF788FEEA
:10092000002210460221FFF783FE00221046032119
:10093000FFF77EFE002210460421FFF779FE002219
:1009400010460521FFF774FE002210460621FFF72E
:100950006FFE002210460721FFF76AFE4FF47A70FF
:10096000BDE80840FFF750BF08B5FFF7E5FEFFF709
:100970001DFF00210220FFF7F1FE01210220FFF7F9
:10098000EDFE0E210120FFF7E9FE0320FFF7C4FE74
:10099000002201210620FFF795FE002211460720C4
:1009A000FFF790FE0620FFF77FFE0720FFF77CFE93
:1009B000002211460120FFF795FD01210846002283
:1009C000FFF790FD022200210120FFF70BFE01211D
:1009D00008460222FFF706FE002108460122FFF723
:1009E00081FD012211460020FFF77CFD012202213A
:1009F0000020FFF777FD012203210020FFF772FDA1
:100A0000012204210020FFF76DFD012205210020B5
:100A1000FFF768FD012206210020FFF763FD012298
:100A200007210020FFF75EFD00231A4619461846ED
:100A3000FFF77EFD00231A4618460121FFF778FDD7
:100A400000231A4618460221FFF772FD00231A46BA
:100A500018460321FFF76CFD00231A4618460421AF
:100A6000FFF766FD00231A4618460521FFF760FDD3
:100A700000231A4618460621FFF75AFD00231A469E
:100A800018460721FFF754FD002211461046FFF7D4
:100A9000CFFD002210460121FFF7CAFD00221046BB
:100AA0000221FFF7C5FD002210460321FFF7C0FD1C
:100AB000002210460421FFF7BBFD0022104605214D
:100AC000FFF7B6FD002210460621FFF7B1FD002218
:100AD00010460721FFF7ACFD01210020FFF794FC31
:100AE00001210846FFF790FC02210020FFF7B6FC29
:100AF00002210120FFF7B2FC00210846FFF79AFC13
:100B000000210120FFF796FC0348FFF7CFFC0348C4
:100B1000FFF7D2FCFEE700BF270800080B0900081A
:100B2000000000000000000001020304060708099D
:0C0B30000C000020000000000024F40075
:040000050800019559
:00000001FF
